:020000040800F2
:10000000A00E0020D9010008E1010008E30100086A
:10001000E5010008E7010008E90100080000000010
:10002000000000000000000000000000EB010008DC
:10003000ED01000800000000EF0100083919000878
:10004000F3010008F3010008F3010008F3010008C0
:10005000F3010008F3010008F3010008F3010008B0
:10006000F3010008F3010008F3010008F3010008A0
:10007000D5060008F3010008F3010008F3010008A9
:10008000F3010008F3010008F3010008F301000880
:10009000F3010008F3010008F30100082D0800082F
:1000A000F3010008F3010008D5190008F301000866
:1000B000F3010008111A0008F3010008F301000819
:1000C000F3010008F3010008F3010008C916000855
:1000D000F3010008E51B0008F3010008F301000824
:1000E00095070008F3010008F3010008B51B00089C
:1000F000F301000800F002F800F05EF80AA090E8B2
:10010000000C82448344AAF10107DA4501D100F0D2
:1001100053F8AFF2090EBAE80F0013F0010F18BF41
:10012000FB1A43F001031847D8360000F8360000E8
:100130000A444FF0000C10F8013B13F0070408BF0D
:1001400010F8014B1D1108BF10F8015B641E05D0AB
:1001500010F8016B641E01F8016BF9D113F0080F60
:100160001EBF10F8014BAD1C0C1B09D16D1E58BFF2
:1001700001F801CBFAD505E014F8016B01F8016B29
:100180006D1EF9D59142D6D370470000002300249C
:1001900000250026103A28BF78C1FBD8520728BF97
:1001A00030C148BF0B6070471FB59DE8030000F0E9
:1001B00081F81FBD10B510BD00F000F91146FFF722
:1001C000F3FF02F0CDFB00F01EF903B4FFF7F2FFDE
:1001D00003BC00F04BF9000009488047094800477C
:1001E000FEE7FEE7FEE7FEE7FEE7FEE7FEE7FEE7E7
:1001F000FEE7FEE704480549054A064B7047000044
:100200006D190008F5000008A0080020A00E0020CD
:10021000A00A0020A00A002070B5064600F02EF8C3
:10022000056806F10B0020F00704B4429CBF0020D3
:1002300070BD2B466A68BAB11068A04210D304F1B1
:10024000080188423CBF5068586007D351681019B4
:1002500041601168091B016058601460101D70BD79
:1002600013465268002AE7D12146284600F00EF8CE
:100270000028DED170BD7047704770470048704756
:1002800044080020704770477047704738B50446EF
:100290000A4600206946AFF30080002808BF38BD39
:1002A00002460099204600F067F8012038BD012081
:1002B00000F07CB8F8B5AFF30080054600200C468E
:1002C000102000BF0646A819A0420DD93246694643
:1002D0000020AFF30080070008BF00F067F8009827
:1002E000A04218BF0546C419FFF7C8FF05600746BE
:1002F000F01D20F007004619284600F00AF8B44225
:1003000008BFF8BDA21B31463868BDE8F84000F0D0
:1003100033B800210160C0E9011070471020704718
:1003200070B50446051FFFF7A9FF0068002C14BF35
:10033000446870BD002C18BFAC423CBF20466468C6
:10034000F8D301680A18AA4218BF456003D12A6889
:1003500005461144016028684119A1421CBF6C6028
:1003600070BD6168696021680844286070BD000044
:10037000004870473C080020034640688C4600282F
:1003800018BF88423CBF03464068F8D31868184439
:10039000884207D00CF1030020F00700001D411A2D
:1003A000521A0146081D0A60FFF7BABF10B500F0E7
:1003B00035F8BDE8104000F02CB870477546FFF7DF
:1003C000D7FFAE4605006946534620F00700854634
:1003D00018B020B5FFF70EFFBDE820404FF0000633
:1003E0004FF000074FF000084FF0000B21F007011D
:1003F000AC46ACE8C009ACE8C009ACE8C009ACE860
:10040000C0098D4670470446AFF300802046FFF7D1
:10041000DCFE002801D000F029B8704710B5012893
:1004200005D0002103A000F027F8012010BD09A18C
:10043000F8E7000053494752544D454D3A204F7557
:1004400074206F662068656170206D656D6F7279CC
:10045000000000003A2048656170206D656D6F7284
:100460007920636F72727570746564000149182099
:10047000ABBEFEE72600020070B505460C460A201A
:1004800000E06D1C00F011F835B128780028F8D193
:1004900002E0641C00F009F814B120780028F8D1BB
:1004A000BDE870400A20AFF3008008B569468DF8BA
:1004B00000000320ABBE08BD0F48006840F00200FA
:1004C0000D4908600D48006840F000600B49086065
:1004D000081D008820F40050091D0880081D0068D0
:1004E00040F04060091D08600448406A40F4401133
:1004F00002484162704700001C380240000402407C
:100500001E48006840F004001C4908601C48008830
:1005100040F2F23188431A4908800846008840F0CA
:100520004400088016481830008840F070001449D4
:100530001831088012482030008840F0030010492C
:100540002031088063200E49283108800020091DD1
:1005500008600B49343108600949243108600848B3
:100560001430008840F00100054914310880081F4C
:10057000008820F00100091F0880704720380240E1
:100580000008014009480A4908600A4848600A48CA
:1005900088600A490648C160094805490861094957
:1005A00003484161FF20024948767047AC000020B3
:1005B000CC060020B6000020BC000020180100205E
:1005C00046010020800100200020114908701149D7
:1005D00008601049083108600E4910310860012098
:1005E0000D49086000200C49083908600948243882
:1005F000008820F0010007492439088006482C387B
:10060000008820F0010004492C3908807047000060
:1006100084000020240801402C04004000B502465C
:1006200000F062FA0A49086000200A4908600A4995
:1006300008600A4908600A4908700A48006800888A
:100640000949086012B101200849087000BD000086
:1006500030000020240000202C0000202800002072
:10066000380000203C000020340000203900002029
:100670000848006840F00100064908600648006824
:1006800040F44070044908600846806840F44070B7
:10069000886070471C380240000002400B48006828
:1006A00040F00050094908600948006820F0060041
:1006B00007490860002006491031086004480068B6
:1006C00040F00100024908607047000024380240F1
:1006D000007400400D48006800F02000A8B10B48ED
:1006E000406840F01000094948600020084908703F
:1006F0004FF08040008A20F001004FF080410882D6
:100700000846008820F00100088070470060024021
:10071000C3010020014602480A1810687047000013
:100720000000080810B502460B460E48141872B6B1
:1007300000F01CF80C48006840F480700A4908601A
:10074000236000BF08481430006800F00100002852
:10075000F8D10548006840F001000349086062B61E
:1007600010BD000000000808043C0240064807498C
:1007700008600748086000BF04480838006800F0B7
:1007800001000028F8D17047EFCDAB890C3C024046
:100790000504030210B51A48006800F40050002850
:1007A0002DD000220121104600F0D8FBC4B204F085
:1007B0001C000C2802D113A001F090FA04F01C00D8
:1007C000102816D100F038FD00F092FD00F068FC12
:1007D000104890F8410018B10021084600F0A8FD2B
:1007E0000C4890F8420010B90BA001F077FA00F025
:1007F0004BFD0348006840F400500149086010BDFB
:10080000140401405061636B65742073656E742E2F
:100810000A0000001A020020496E7465727072614D
:100820007465732061733A0A0000000010B5324805
:10083000006800F0400000285CD030484079002873
:1008400052D02E480079002838D02C480168012069
:1008500000F0D0FFB0F57A7F29D228480079401CFB
:10086000264908710846007904280EDD0020244935
:1008700048620846008840F00100088004201F49B3
:10088000087120A001F02AFA0AE022A001F026FA5D
:100890001A490879002101F02CFA23A001F01EFA70
:1008A0000021084600F0A6FF144908601CE0002063
:1008B000124908711DA001F011FA15E00F480079E6
:1008C000401C0E4908710021084600F093FF0B49B7
:1008D000086010A001F002FA08490879002101F02F
:1008E00008FA11A001F0FAF90348006840F040004E
:1008F0000149086010BD000014040140740000208C
:100900000010004046697368206361756768742150
:100910000A000000526F6C6C6572206D6F76656422
:1009200020776974682023002E0A0000526F6C6CD7
:100930006572206D6F766564207769746820233056
:100940002E0A00002DE9F0430546DDE90767099C02
:100950000A2D04D00B2D0ED00C2D24D117E0DFF87A
:1009600078C1DCF800C04CF0010CDFF86C81C8F8ED
:1009700000C05A4817E0DFF860C1DCF800C04CF056
:10098000020CDFF85481C8F800C055480BE0DFF8CE
:1009900048C1DCF800C04CF0040CDFF83C81C8F81A
:1009A00000C0504800BF00BFD0F800C04FEA410966
:1009B0004FF0030808FA09F82CEA080CC0F800C048
:1009C000D0F80CC04FEA41094FF0030808FA09F8C3
:1009D0002CEA080CC0F80CC0D0F800C04FEA41085F
:1009E00002FA08F84CEA080CC0F800C0012A03D04B
:1009F000022A01D0002A6CD1D0F80CC04FEA41087D
:100A000003FA08F84CEA080CC0F80CC0012A01D01F
:100A1000022A5ED1B0F804C04FEA41094FF0010844
:100A200008FA09F82CEA080CA0F804C0D0F808C0AD
:100A30004FEA41094FF0030808FA09F82CEA080CBC
:100A4000C0F808C0B0F804C006FA01F84CEA080C77
:100A5000A0F804C0D0F808C04FEA410807FA08F827
:100A60004CEA080CC0F808C0022A32D1082916DA6C
:100A7000D0F820C04FEA81094FF00F0808FA09F8B2
:100A80002CEA080CC0F820C0D0F820C04FEA81083A
:100A900004FA08F84CEA080CC0F820C019E0D0F8B5
:100AA00024C0A1F108084FEA88094FF00F0808FA9E
:100AB00009F82CEA080CC0F824C0D0F824C0A1F131
:100AC00008084FEA880804FA08F84CEA080CC0F84D
:100AD00024C0BDE8F08300001C3802400000024042
:100AE00000040240000802400848008AC0F34000A9
:100AF0000649098A01F0040140EA51000349098AC4
:100B000001F0080140EA5100704700000000024077
:100B10000648006838B105480068401E034908606F
:100B20000348006870470020FCE700002800002010
:100B3000240000200EB50020009001900123024601
:100B4000062102900A20FFF7FDFE2548006840F0CC
:100B50000100234908602348C0682249C860224830
:100B6000006840F04000204908601F480C300068D1
:100B700040F040001C490C3108600121172000F0B2
:100B8000AFF9172000F096F91548001D006840F0F5
:100B900010001349091D08601448008840F008003F
:100BA0001249088042F21070C8624FF47A500885EA
:100BB0000846808940F0010088810846808A40F01C
:100BC000010088820846008A20F001000882012185
:100BD0002B2000F085F92B2000F06CF90EBD0000F1
:100BE0002038024000000140000401400010004095
:100BF0000EB51248006840F001001049086000205E
:100C00000090019003460246012102900A20FFF75E
:100C100099FE0020009001900346024602210290B6
:100C20000A20FFF78FFE0020009001900346024645
:100C3000032102900A20FFF785FE0EBD1C380240FA
:100C400000B5FFF751FF034620480068984203D0E3
:100C50000020FFF7E3FC00BD13B11D48007820B170
:100C600013B900201A490870F5E71A480068401CBB
:100C70001849086018480360084600681749096861
:100C8000884220D316480068401C15490860154862
:100C90000068154908600846016814480078401C3F
:100CA00031F8100020B111480078401C0F4908703D
:100CB0000D4800680D49097830F8110007490968A6
:100CC00008440649086000BFC5E700003000002066
:100CD000390000202C0000202400002034000020D7
:100CE00028000020400000203C00002038000020A8
:100CF000F0B500241D0245EA024545EA010400263C
:100D0000451E034F47F825603E4646F82540F0BD96
:100D10001408002010B51020FFF77EFA544908602F
:100D20001020FFF779FA534908601020FFF774FA92
:100D3000514908601020FFF76FFA504908601020F1
:100D4000FFF76AFA4E4908601020FFF765FA4D492F
:100D500008601020FFF760FA4B4908601020FFF789
:100D60005BFA4A49086043480068414909680860DD
:100D700000203F49096888603D4909684860444847
:100D80003B490968C8603C4800683A4909680860FE
:100D900000203849096888603649096848603D483C
:100DA00034490968C86035480068334909680860F3
:100DB00000203149096888602F4909684860364831
:100DC0002D490968C8602E4800682C4909680860E8
:100DD00000202A49096888602849096848602F4826
:100DE00026490968C86027480068254909680860DD
:100DF000002023490968886021490968486028481B
:100E00001F490968C860204800681E4909680860D1
:100E100000201C49096888601A490968486021480F
:100E200018490968C86019480068174909680860C6
:100E300000201549096888601349096848601A4804
:100E400011490968C8600A480068104909680860C3
:100E500000200E49096888600C49096848601348F9
:100E60000A490968C860024800681149086010BD55
:100E700044000020480000204C00002050000020CA
:100E800054000020580000205C000020600000207A
:100E9000C92A0008412B0008292C0008112D000840
:100EA000E92D0008B92E0008892F000861300008DC
:100EB0006400002000F01F020121914042099200CD
:100EC00002F1E022C2F80011704700F01F02012178
:100ED00091404209920002F1E022C2F800117047ED
:100EE00010B5002807DA0A07140E054A00F00F03B0
:100EF0001B1FD45403E00A07130E024A135410BDFB
:100F000018ED00E000E400E01349098821F40061D5
:100F1000114A118000BF1049098901F080010029A0
:100F2000F9D10D49888100BF0B49098901F0010100
:100F30000029F9D008498989C8B200BF0649098942
:100F400001F080010029F9D10349098841F40061C9
:100F5000014A1180704700000030014010B503467F
:100F600013B1012B7ED146E04348008840F0400099
:100F7000414C20804148808A20F400403F4CA082B0
:100F80003D488089C2B200BF3B48008900F00200A2
:100F90000028F9D000BF3848008900F08000002800
:100FA000F9D140EA0120344CA08100BF32480089C9
:100FB00000F002000028F9D000BF2F48008900F09F
:100FC00001000028F9D02C488089C2B200BF2A480D
:100FD000008900F080000028F9D12848808A40F478
:100FE0000040264CA0822448008820F04000224C7B
:100FF0002080104610BD2048008840F040001E4C64
:1010000020801E48808A20F400401C4CA08200BF33
:101010001948008900F002000028F9D000BF1648E6
:10102000008900F080000028F9D141F0800042EAF8
:101030000020114CA08100BF0F48008900F0020081
:101040000028F9D000BF0C48008900F0800000287B
:10105000F9D10A48808A40F40040084CA082064832
:10106000008800E004E020F04000034C208000BF36
:1010700000BF00BFBEE7000000300140000002409A
:1010800070B504460D46002221461046FFF766FF64
:101090002843C6B2324621460120FFF75FFF70BDEC
:1010A00070B54A48008840F04000484908804848E8
:1010B000808A20F40040464988820020FFF724FF00
:1010C0000020FFF721FF434981F840000020FFF78F
:1010D0001BFF404981F83F00084690F84000C01EC1
:1010E00081F83D000020FFF70FFF3A4981F83E00EC
:1010F0000020FFF709FF054605F08000354981F81B
:10110000420005F0400081F84100002406E0002084
:10111000FFF7FAFE2F490855601CC4B22D4890F81D
:101120003D00A042F3DC2B4890F83D003D2805DA55
:101130000020284991F83D10264A50542448808ABE
:1011400040F40040224988822048008820F0400076
:101150001E490880002000F0AFF81E49A1F84400A5
:101160001DA000F0BBFD1B4991F83E00002100F0DE
:10117000C0FD1FA000F0B2FD164991F83F0000210C
:1011800000F0B7FD1CA000F0A9FD124991F83D0048
:10119000002100F0AEFD1AA000F0A0FD0D49B1F94C
:1011A0004400002100F0A5FD18A000F097FD0948BB
:1011B00090F8420010B117A000F090FD054890F89B
:1011C000410010B117A000F089FD70BD0030014052
:1011D000000002401A0200205061636B65742072A7
:1011E000656365697665642066726F6D3A200000FC
:1011F00020746F3A20000000207769746820000096
:1012000020627974657320616E642000205253530C
:10121000492E200041434B20726563656976656401
:101220002E0A00004974207265717565737473200D
:1012300041434B2E0A00000010B52422012108462C
:10124000FFF78CFE042201210846FFF787FE04E029
:10125000042201210846FFF781FE002201211046E9
:10126000FFF77CFE00F01C000428F1D101A000F083
:1012700035FD10BD4C697374656E206D6F6465201B
:101280004F46462E0A00000010B5012000F0BEF9BE
:10129000402201210846FFF761FE02A000F01EFD7A
:1012A00010BD00004C697374656E206D6F6465201D
:1012B0004F4E2E0A0000000030B5044600256CB1E8
:1012C00001212320FFF7DCFE00BF0022232110466E
:1012D000FFF744FE00F002000028F6D0002224218F
:1012E0001046FFF73BFE404205B26D10284630BD68
:1012F00000B500200D4981F83D0081F83E0081F8DD
:101300003F0081F8400081F8410081F84200A1F8D7
:101310004400002228211046FFF720FE00F00400C0
:1013200018B104213D20FFF7ABFE00BD1A020020DA
:10133000F8B504460D460F4890F83E60B0F9447089
:1013400004213D20FFF79CFE012000232A46214670
:101350000090304600F01AF807A000F0BFFC002112
:10136000304600F0C6FC08A000F0B8FC0148A0F828
:101370004470F8BD1A02002041434B5F73656E74E0
:1013800020746F3A200000000A0000002DE9F84F99
:101390008346894614461E46DDF828A0012000F049
:1013A00035F90021084600F0CBF83D2C00DD3D2446
:1013B000BAF1000F01D0802701E006B14027404874
:1013C000008840F040003E4908803E48808A20F472
:1013D00000403C4988828020FFF796FDE11CC8B29E
:1013E000FFF792FD5846FFF78FFD374991F8460009
:1013F000FFF78AFD3846FFF787FD002505E019F85D
:101400000500FFF781FD681CC5B2A542F7DB2D483A
:10141000808A40F400402B4988822948008820F0C7
:10142000400027490880042000F0F0F80021084619
:1014300000F0E0F9009000BF2448008800F400505C
:1014400030B90120009900F0D5F9B0F57A7FF3D3D7
:101450001E48008800F40050002826D01CA000F090
:101460003DFC0021584600F044FC1EA000F036FC74
:10147000154991F84600002100F03BFC1BA000F04C
:101480002DFC0021204600F034FC1AA000F026FCC0
:10149000BAF1000F02D01AA000F020FC16B11CA077
:1014A00000F01CFC4FF0010804E01EA000F016FC48
:1014B0004FF00008012000F0A9F84046BDE8F88F81
:1014C00000300140000002401A02002010080240D3
:1014D0005061636B65742073656E7420746F3A207D
:1014E000000000002066726F6D3A2000207769745A
:1014F000682000002062797465732E2000000000CF
:1015000049742073656E64732041434B2E0A0000BA
:1015100049742072657175657374732041434B2E55
:101520000A0000005061636B65742073656E646926
:101530006E672074696D6564206F75742E0A0000F3
:1015400070B505460C46062D5ED2DFE805F00312A5
:1015500021303F4E002225211046FFF7FFFC20F0EE
:10156000C0002043C6B2324625210120FFF7F6FC19
:101570004AE0002225211046FFF7F0FC20F0300061
:101580002043C6B2324625210120FFF7E7FC3BE0AD
:10159000002225211046FFF7E1FC20F00C0020433B
:1015A000C6B2324625210120FFF7D8FC2CE00022EC
:1015B00025211046FFF7D2FC20F003002043C6B2DD
:1015C000324625210120FFF7C9FC1DE0002226211B
:1015D0001046FFF7C3FC20F0C0002043C6B23246DD
:1015E00026210120FFF7BAFC0EE00022262110463A
:1015F000FFF7B4FC20F030002043C6B2324626216B
:101600000120FFF7ABFC00BF00BF70BD30B5044642
:10161000052C4DD2DFE804F03F30211203000022F8
:1016200001211046FFF79AFC00F0E30040F00C05A2
:101630002A4601210846FFF791FC39E000220121EA
:101640001046FFF78BFC00F0E30040F010052A463F
:1016500001210846FFF782FC2AE000220121104602
:10166000FFF77CFC00F0E30040F008052A4601216A
:101670000846FFF773FC1BE0002201211046FFF72C
:101680006DFC20F01C00001DC5B22A460121084651
:10169000FFF764FC0CE0002201211046FFF75EFC1E
:1016A00000F0E3052A4601210846FFF757FC00BF7A
:1016B00000BF00BF2CB90348008A00F480700028E6
:1016C000F8D030BD000002403349098901F0010122
:1016D00000295FD0304988893049898A41F4004126
:1016E0002E4A91822C49098821F040012A4A118012
:1016F0002B4991F850102A4A02EB81018978114652
:1017000091F85010491C142903D1002182F850107F
:1017100006E0234991F85010491C214A82F85010E4
:101720001F4991F850101E4A92F8512091421DD144
:1017300000BF1949098901F080010029F9D1174931
:10174000898A41F40041154A91821349098821F0A0
:101750004001114A11801146098821F04001118091
:101760001146898821F04001918013E00A490988D7
:1017700041F04001084A11800849898A21F400415A
:10178000064A9182064991F85010054A32F8211014
:10179000014A918170470000003001400000024082
:1017A000C801002010B54FF0E020006940F00200B1
:1017B0004FF0E021086141F2941048610846006949
:1017C00040F00100086148170121002807DA0A07E4
:1017D000140E064A00F00F031B1FD45403E00A073F
:1017E000130E034A135400BF10BD000018ED00E0B3
:1017F00000E400E0024612B90A4800687047012A76
:101800000DD108480068884203D306480068401A92
:10181000F4E7C1F1FF30034B1B681844EEE700BF4B
:10182000ECE700006C0000200CB500200190009057
:101830003E48006840F480303C49086000BF3B48A7
:10184000006800F4003000900198401C019000985E
:1018500018B90198B0F5A06FF1D13448006800F4D0
:10186000003010B10120009001E0002000900098AD
:10187000012859D12E48006840F004002C49086026
:101880000846006840F0020008600846006840F022
:101890000100086025482430006840F0805023494A
:1018A00024310860C8142349086000BF21484068FB
:1018B00000F010000028F9D11C48083000681B49CE
:1018C000083108600846006808600846006808603B
:1018D0000846006820F47D0008600846006840F46F
:1018E0009A0008601148006840F080700F49086055
:1018F00000BF0E48006800F000700028F9D00B48C7
:101900000830006820F003000849083108600846E4
:10191000006840F00300086000BF04480830006819
:1019200000F00C000C28F8D10CBD0000003802407B
:10193000003C02400070004010B50A480068401C9E
:101940000849086008480078401C074908700846A4
:1019500000780A2804D1FFF773F9002002490870C3
:1019600010BD00006C0000207000002010B515486C
:10197000006840F48070134908601248083000681D
:10198000114908400F49083108600E4800680F49A6
:1019900008400C4908600846006820F48020086070
:1019A00008480830006820F47D00064908310860C6
:1019B0000020091D0860FFF737FF4FF00060044961
:1019C000086010BD003802400CC0FF88FEFFFEEE2C
:1019D00008ED00E00B48008800F0010080B10948E4
:1019E000008820F00100074908800120064908709E
:1019F0000648007808B9012000E00020034908707B
:101A000070470000100C0140C4010020A00100201C
:101A100010B56248008800F0010000284CD05F48F3
:101A2000008820F001005D4908805D480078142896
:101A300052D15C48007E5B4951F8300000884FF677
:101A4000FF71884239D00020574908605548007E10
:101A5000544901EBC00040680078534908310860E0
:101A6000504B1B7E4F4C04EBC303191D5868431C9D
:101A70000B60027802EBD2735B104B4C1034236086
:101A8000484A127E474B03EBC2010868821C0A6079
:101A90000288424B1C331A6040481038008840F0DE
:101AA00001003E49103908803F482438008840F042
:101AB00001003D49243908806FE03A48007E3949E9
:101AC00051F8300000884FF6FF71884265D1FEF76B
:101AD00059FDFEF779FD60E0314800780A2824D1ED
:101AE00000203149086031488179801C30F81100AC
:101AF0002D49083108602D498A79891C31F8120076
:101B000000EBD0714910284A1032116027488079C3
:101B1000C0F101002549887120481038008840F044
:101B200001001E491039088037E01D4800781E2842
:101B300033D11F48807940B300201B4908601C48FE
:101B400000881949083108601949088800EBD071EC
:101B50004910154A10321160154880880F491C3110
:101B6000086011482438008840F001000E492439EB
:101B700008800A481038008840F0010007491039F1
:101B8000088000200A49887107E00948807920B957
:101B9000012007498871FEF717FD10BD10040040B1
:101BA00084000020CC06002024080140E806002024
:101BB0007C00002010B50748008A00F0010040B109
:101BC00005A000F08BF80348008A20F001000149CD
:101BD000088210BD0010004048756E7420646F7755
:101BE0006E2E0A001748008800F0400040B31648E7
:101BF00090F8E803401CB0F57A7F04D10020124928
:101C000081F8E80306E0104890F8E803401C0E490C
:101C100081F8E8030C4890F8E8030B4991F8E913C0
:101C2000884207D0084890F8E8030749085C05494E
:101C3000091D08800348008820F040000149088001
:101C40007047000000380140620200200EB51948BC
:101C5000006840F0020017490860081D006840F461
:101C60008040091D08600720002100910B460222D8
:101C7000CDE9011006210B20FEF764FE07200021AC
:101C800000910B460222CDE9011001460B20FEF720
:101C900059FE094800684FF4E131B0FBF1F0074903
:101CA0000880081D008842F20C0108430349091D01
:101CB00008800EBD1C38024000000020083801409A
:101CC00000BF0549098801F080010029F9D00249C7
:101CD000091D0880704700000038014000B5024629
:101CE00003E01078FFF7ECFF521C10780028F8D1C1
:101CF00000BD2DE9F04188B005460C4684B9284660
:101D000001F00EFB0646002032460B46009001A86B
:101D100000F01CFC01A8FFF7E1FF08B0BDE8F0816E
:101D2000022C10D1284600F0D5FC804601F0E1FAE3
:101D30000646002032460B46009001A800F006FC43
:101D400001A8FFF7CBFF00BFE7E7000000B50246A0
:101D5000034830F8120003490880FEF735FC00BD47
:101D600098000020E806002000B50246064810F85A
:101D7000120006494880044800EB420041780348BD
:101D80008180FEF721FC00BD85000020E8060020D0
:101D90000449095C044A118111460989034A11600A
:101DA0007047000091000020E806002010740040F9
:101DB0000A20124908701248008912490860104828
:101DC0000088114908601148008800F001000F499F
:101DD000088020B90846008840F0010008800A48C1
:101DE0002C38008800F0010007492C39088020B900
:101DF0000846008840F001000880704784000020F9
:101E0000E8060020107400402C0400400008014047
:101E100000B5FEF7D9FB00BD00B5FEF729FCFEF7C3
:101E20003DFCFEF749FBFEF76BFB2748006840F0DE
:101E30000200254908602548008840F2F2318843B5
:101E4000224908800846008840F00800088047F6CC
:101E5000FF401E49283108800120091D086000202C
:101E60001A49243108601A4988714F20194908809D
:101E700034201949086017494880642088801D2053
:101E8000012181404209920002F1E022C2F80011D2
:101E900000BF0E480C30008840F001000B490C31A7
:101EA00008800A481430008840F0010007491431C6
:101EB0000880081F008820F00100091F0880FEF735
:101EC00083FBFEF75FFB00BD2438024000040040A6
:101ED000E80600207C0000201074004000B5024697
:101EE0000D48407E0D4908600D480078142807D140
:101EF000FEF76AFBFEF746FB14200949087002E072
:101F0000142007490870044802760648008840F00B
:101F100001000449088000BDCC0600201074004078
:101F20008400002000040040012008498871084610
:101F30004088074908601E20064908700648008846
:101F400040F0010004490880704700007C00002038
:101F500010740040840000200004004000B5FEF72B
:101F600033FBFEF70FFB00BD30B5002400255D48B4
:101F70000078C72813D100BF05E000205A4941F876
:101F80002400601CC4B2052CF7DB00F0EBF9012043
:101F900056490870564908700A205249087053483B
:101FA000007800280FD05348007800284BD14D48C6
:101FB00000780A2808D10A21012000F061F9C5B291
:101FC0000A2000F0C1F876E046480078142818D1BD
:101FD00047490978491EC8B214220A2100F018F9AD
:101FE00014280AD1424801780078401E404A1070F7
:101FF000012902DA1E203B490870642000F0A4F891
:1020000059E0384800781E280CD10A21012000F040
:1020100037F90A2802D12820324908700A2000F036
:1020200093F848E02F480078282809D1142101208E
:1020300000F026F914283ED132202A4908703AE0EF
:102040002848007837E02B480078012833D125480C
:1020500000780A2821D164231A461946012000F08D
:1020600035FA1E231A461946022000F02FFA0F23D4
:102070001A461946032000F029FA03231A46194686
:10208000042000F023FA00231A461946052000F028
:102090001DFA0A2000F058F80DE0124800781428C4
:1020A00009D0104800781E2805D00E48007828284E
:1020B00001D00C4800780B480078312810D100245A
:1020C00007E00D4850F82400074941F82400601C3F
:1020D000C4B2052CF5DB00F045F963200149087016
:1020E00030BD00009F01002014080020C401002022
:1020F000C50100209E010020280800200146002084
:102100000D4A1278632A05D00C4A1170C7220A4B77
:102110001A7010E0002007E0094A52F82020094B0D
:1021200043F82020421CD0B20528F5DB034A117089
:10213000C722014B1A7070479F0100209E010020AA
:10214000140800202808002010B5044600F00AF901
:10215000002003490870204600F016F910BD000069
:10216000C401002010B5002400BF07E0094850F862
:102170002400094941F82400601CC4B2052CF5DB99
:1021800001200649087000F0EDF86320044908704A
:1021900010BD00002808002014080020C401002001
:1021A0009F01002010B504461421601E034A1154FB
:1021B00000F0D8F800200249087010BDA1010020ED
:1021C000C401002010B50446601E0F49085C1428A5
:1021D00007D10A21601E0C4A115401200B490870D6
:1021E00010E00A48007868B1601E0749085C0A28B8
:1021F00008D100200549087000F0B4F84FF4C87009
:1022000000F0C2F810BD0000A1010020C4010020B0
:102210002DE9F84F04460E464FF0000BDA46002039
:10222000009000278046814635460CB9012402E023
:10223000052C00DD0524601E104951F82000C0F374
:102240000747601E51F8200000F0FF08601E51F89B
:102250002000C0F307297819C7B208EB050000F089
:10226000FF0809EB050000F0FF094B463A464146DE
:102270002046FEF73DFD5046BDE8F88F14080020CB
:10228000F0B506460F4600240025012407E03A4633
:1022900031462046FFF7BCFF0544601CC4B2052C44
:1022A000F5DD0520B5FBF0F52846F0BD10B5044678
:1022B000044804700A210020FFF7E2FF00F07AF8DA
:1022C00010BD0000A601002010B504460249085DBB
:1022D000FFF7ECFF10BD0000BC01002010B500248A
:1022E00000F07EFA00F0F8FA0A2000F009FA00F097
:1022F00057FA00BF0D4800780028FBD1142000F0E9
:10230000FFF900F097FA642009490870002404E0FE
:10231000142008490855601CC4B2052CF8DB632062
:102320000549087064200549087010BDC3010020EC
:10233000A6010020A10100209F0100209E01002095
:1023400000B5002200BF05E00C20054921F812006D
:10235000501CC2B2782AF7DB00F0F0FA00BD000092
:102360002407002000B500BF064800780028FBD1F4
:1023700000F020F800F0E2FA00BF024800780028E0
:10238000FBD100BDC30100200849097861B90849A3
:1023900008600021054A117005492C39098841F06F
:1023A0000101034A2C3A118070470000C40100204B
:1023B0002C0C01402DE9F04185B0002400230025BC
:1023C0000026002700BF3B4800780028FBD10023EF
:1023D0006BE03948C05C142807D0384800780128E1
:1023E00036D13548C05C0A2832D1354850F8230030
:1023F000C0F30740334909784843642190FBF1F06A
:1024000000F0FF08404600F07FFE05462C4850F8DB
:102410002300C0B22B4909784843642190FBF1F0B6
:1024200000F0FF08404600F06FFE0646244850F8D2
:102430002300C0F30720234909784843642190FB17
:10244000F1F000F0FF08404600F05EFE074609E0AC
:102450001A48007830B91848C05C0A2802D1002513
:1024600000260027380440EA052030434DF82300B9
:10247000002416E05DF823000121A140084038B196
:102480001E20182101FB03410F4A22F8110006E02B
:102490000C20182101FB03410B4A22F81100601C9B
:1024A000C4B2182CE6DB581CC3B2052B91DB05B077
:1024B000BDE8F081C3010020A1010020A00100209F
:1024C00014080020A6010020240700202DE9F04771
:1024D00007460C4615461E4600BF00BFC5EBC500AB
:1024E000C0EBC510642190FBF1F000F0FF08C4EBD5
:1024F000C400C0EBC41090FBF1F000F0FF09C6EB84
:10250000C600C0EBC61090FBF1F000F0FF0A534686
:10251000424649463846FEF7EBFBBDE8F08700002F
:1025200070B505460C4604EB4400074E30448378F2
:1025300004EB44003044427804EB4400315C28460C
:10254000FFF7C4FF70BD0000A70100202DE9F04F88
:1025500093B0834616461F46DDF87080BBF1000F2E
:1025600001D1584800E0584604460120129000224C
:1025700013463046394600F0E7FE0BD22D2004F812
:10258000010B0022504B3046394600F019FF064639
:102590000F4605E04D48006810B12B2004F8010BF0
:1025A000B8F1080F0BD24A4800EBC80003C8324606
:1025B0003B46CDE9060100F0BBFD06460F4600256F
:1025C00005E0129800EB8000400012906D1C45451C
:1025D000F7D33046394600F05FFE8146129800F08E
:1025E0009FFECDE90401484600F09AFE32463B4684
:1025F000CDE9000100F0E2FFCDE90201DDE90423AD
:1026000000F0DEFECDE9060100F046FE8246002520
:102610000CE00A20B9FBF0F100FB119030302946A4
:102620006D1C08AA50540A20B9FBF0F9B9F1000F4B
:10263000EFD11DB9302004F8010B08E005E0681E59
:1026400008A9085C04F8010B6D1E002DF7D1B8F144
:10265000000F2AD02E2004F8010B00250CE00A20E0
:10266000BAFBF0F100FB11A0303029466D1C08AA1E
:1026700050540A20BAFBF0FABAF1000FEFD104E08F
:10268000302228466D1C08A90A544545F8D31DB9C7
:10269000302004F8010B08E005E0681E08A9085C7A
:1026A00004F8010B6D1E002DF7D100202070BBF146
:1026B000000F01D1034800E05846044613B0BDE8BE
:1026C000F08F00004C0600200000F0BF68000020E2
:1026D000C037000830B50146012300200DE00C464C
:1026E00001EBD4756D10A1EB450201EBD1756910BA
:1026F00002FB030003EB830463000029EFD130BD2C
:1027000010B504464FF08040808840F008004FF03C
:10271000804188801D48006840F080701B49086037
:102720001B48C06943F2A05108431949C8610846D3
:10273000C06920F04000C8610846C06940F0100040
:10274000C861144848620A2C09D10846C06920F0C3
:102750000300C86110488862182008620BE0142C3E
:1027600009D10B48C06920F003000949C8610B4832
:102770008862782008620648C06940F00300044976
:10278000C8610C20FEF7A1FB10BD00001C38024000
:10279000006002403C000040F406002024070020B6
:1027A000002000BF05E000210B4A22F81010411C58
:1027B000C8B21828F7DB0121084A11708907098877
:1027C00041F001014FF08042118000BF03490978B8
:1027D0000029FBD170470000F4060020C30100204F
:1027E0001248006840F00200104908601048006874
:1027F00040F400100E490860081D008820F4806035
:10280000091D0880081D006840F40010091D0860BB
:10281000081D006840F48010091D08600448406AE3
:1028200040F4807102484162704700001C38024049
:102830000004024010B52548006840F00800234914
:1028400008600020224908702248008840F2F231D6
:102850008843204908800846008840F00800088026
:1028600047F6FF401B49283108800020091D0860F9
:1028700018492431086017480C30008840F20111D3
:10288000884314490C3108801248001D008820F04C
:1028900008001049091D08801A20FEF716FB0D4894
:1028A0000C30008840F001000A490C3108800948CA
:1028B0001430008840F00100064914310880081FD8
:1028C000008820F00100091F088010BD2038024058
:1028D000C4010020000C01401748006840F00100CE
:1028E000154908600807008840F2F231884349071B
:1028F00008800846808840F0080088800846808B61
:1029000040F0600088830846008C40F480700884A2
:102910000846808940F4807088810020088527203F
:10292000C8620846808A40F0010088820846008A12
:1029300020F0010008827047243802400120074936
:1029400008708007008840F001004FF08041088047
:1029500000BF024800780028FBD17047C301002067
:102960000EB53748006840F0010035490860002086
:102970000090019003460122014602900A20FDF7D3
:10298000E1FF3048008B40F001002E490883002011
:10299000FDF7C0FE044604F00F002B490870C4F395
:1029A00003104870C4F303508870C4F30320C87048
:1029B000C4F303300871C4F303404871C4F30360E7
:1029C0008871FEF7EFFEFEF713F9FEF7A3F9FFF7A4
:1029D0003DF9FEF7AFF81DA0FFF780F9FFF71CFAED
:1029E000FFF77CFCFFF7ACFC1FA0FFF777F9164858
:1029F00041780520FFF794FD13498878FFF764FCC0
:102A0000FFF7B0FC1049C878FFF7AEF90E49087916
:102A1000FFF7BEF90C494879FFF798F9FDF7D4FDA7
:102A200019A0FFF75BF922A0FFF758F900BFFEF7E6
:102A30006FF8054623480068C16828468847F6E7CE
:102A40001C380240000002401D00002050657269E1
:102A500070686572616C7320696E697469616C6914
:102A60007A65642E0A00000045787465726E616CA8
:102A7000206465766963657320696E697469616C49
:102A8000697A65642E0A000053797374656D207647
:102A9000616C75657320696D706F72746564206612
:102AA000726F6D20454550524F4D2E0A0A000000AE
:102AB0002D312D2048756E746572206D6F64652E02
:102AC0000A0000006400002010B5044601201149EE
:102AD0004871012C04D0022C19D1FDF79FFD16E09E
:102AE000FFF722FA0120FDF799FD00210420FFF7EE
:102AF00017FDFFF737FC00200649487106A0FFF7D5
:102B0000EDF80E48006800680C49086000BF00BF7F
:102B100010BD0000740000202D322D204C454420B3
:102B2000616E696D6174696F6E2073657474696E2E
:102B300067206D6F64652E0A0000000064000020AD
:102B400070B50446FFF710FA012C22D0022C48D1B0
:102B5000FFF7EAF924480078062803D1002022492B
:102B6000087004E020480078401C1F4908700020CD
:102B7000FFF7C4FA1DA0FFF7B1F81B490878002140
:102B8000FFF7B7F81EA0FFF7A9F80120FDF746FDF3
:102B900027E0FFF7C9F90120FDF740FDFFF7E2FA52
:102BA0000020FDF7B7FD20F00F000F49097840EA3B
:102BB000010529460020FDF7B5FD0B4841780520A9
:102BC000FFF7AEFC01210420FFF7AAFCFFF7CAFBC8
:102BD0000CA0FFF783F813480068006811490860EB
:102BE00000BF00BF70BD00001D000020094C45441F
:102BF00020616E696D6174696F6E202300000000B2
:102C00002E0A00002D332D204C454420636F6C6F3D
:102C1000722073657474696E67206D6F64652E0A27
:102C2000000000006400002070B504460520FFF796
:102C3000C9FA012C26D0022C48D1FFF775F90120E2
:102C4000FDF7ECFC22484078062803D100202049FB
:102C5000487004E01E484078401C1D4948701C48DC
:102C600041780520FFF75CFCFFF77CFB19A0FFF71C
:102C700035F8174948780021FFF73BF819A0FFF70E
:102C80002DF823E0FFF750F90120FDF7C7FC0520E0
:102C9000FFF788FA0020FDF73DFD20F0F0000C4919
:102CA000497840EA011529460020FDF73BFD022145
:102CB0000420FFF735FCFFF755FB0BA0FFF70EF8DC
:102CC0001248006800681149086000BF00BF70BD6D
:102CD0001D000020094C454420636F6C6F72202357
:102CE000000000002E0A00002D342D204C45442009
:102CF0006272696768746E65737320736574746952
:102D00006E67206D6F64652E0A000000640000206D
:102D100070B50446012C25D0022C42D1FFF704F9EE
:102D20000120FDF77BFC20488078062803D1002095
:102D30001D49887004E01C488078401C1A4988703E
:102D400019498878FFF7C0FAFFF70CFB17A0FEF7C8
:102D5000C5FF154988780021FEF7CBFF18A0FEF7C4
:102D6000BDFF1EE00120FDF759FC0020FDF7D2FC5D
:102D700020F470000C49897840EA0155294600206A
:102D8000FDF7D0FC03210420FFF7CAFBFFF7EAFAA6
:102D90000CA0FEF7A3FF1348006800681149086003
:102DA00000BF00BF70BD00001D000020094C45445D
:102DB000206272696768746E657373202300000077
:102DC0002E0A00002D352D20416C61726D20746F2C
:102DD0006E652073657474696E67206D6F64652E0F
:102DE0000A0000006400002070B50446FEF7E0FF12
:102DF000012C21D0022C3ED10120FDF70FFC1F48F1
:102E0000C078052803D100201C49C87004E01B4885
:102E1000C078401C1949C8701849C878FEF7A4FF4B
:102E200017A0FEF75BFF1549C8780021FEF761FF88
:102E300017A0FEF753FF1EE00120FDF7EFFB002077
:102E4000FDF768FC20F470600C49C97840EA012560
:102E500029460020FDF766FC04210846FFF760FBC9
:102E6000FFF780FA0BA0FEF739FF124800680068F0
:102E70001049086000BF00BF70BD00001D000020A9
:102E800009416C61726D20746F6E65202300000033
:102E90002E0A00002D362D20416C61726D20766F58
:102EA0006C756D652073657474696E67206D6F64F1
:102EB000652E0A006400002070B50446FEF778FF16
:102EC000012C21D0022C3ED10120FDF7A7FB1F4889
:102ED0000079052803D100201C49087104E01B4833
:102EE0000079401C1949087118490879FEF750FF0C
:102EF00017A0FEF7F3FE154908790021FEF7F9FE49
:102F000017A0FEF7EBFE1EE00120FDF787FB002077
:102F1000FDF700FC20F470400C49097940EA0135C6
:102F200029460020FDF7FEFB05210420FFF7F8FAF3
:102F3000FFF718FA0BA0FEF7D1FE124800680068F0
:102F40001049086000BF00BF70BD00001D000020D8
:102F500009416C61726D20766F6C756D6520230080
:102F60002E0A00002D372D20416C61726D20746592
:102F70006D706F2073657474696E67206D6F646522
:102F80002E0A00006400002070B50446FEF710FF12
:102F9000012C21D0022C44D10120FDF73FFB224817
:102FA0004079092803D100201F49487104E01E48D8
:102FB0004079401C1C4948711B494879FEF7C6FE00
:102FC0001AA0FEF78BFE184948790021FEF791FE02
:102FD0001AA0FEF783FE24E00120FDF71FFB00206E
:102FE000FDF798FB20F470200F49497940EA01452C
:102FF00029460020FDF796FB06210420FFF790FAF2
:10300000FFF7B0F9FEF704FF07498879FEF766FF7E
:103010000BA0FEF763FE1148006800680F490860C6
:1030200000BF00BF70BD00001D00002009416C61A1
:10303000726D2074656D706F202300002E0A0000F1
:103040002D382D204D757369632073657474696E16
:1030500067206D6F64652E0A000000006400002088
:1030600010B50446012C21D0022C35D10120FDF7EA
:10307000D5FA1A488079022803D1002017498871AF
:1030800004E016488079401C1449887113498879F6
:10309000FEF724FF12A0FEF721FE104988790021D7
:1030A000FEF727FE11A0FEF719FE15E00120FDF73F
:1030B000B5FA00231A4619460420FFF707FAFFF76E
:1030C00051F9FEF74BFF0AA0FEF708FE0D48006815
:1030D00000680C49086000BF00BF10BD1D00002043
:1030E000094D757369632023000000002E0A00005B
:1030F0002D312D2048756E746572206D6F64652EBC
:103100000A00000064000020010900F00F0241EAFB
:10311000021000F0CC01891000F0330241EA820075
:1031200000F0AA01491000F0550241EA4200704740
:1031300010B591EA030F48BF83F0004300F15282BB
:10314000841A71EB030C05D2121943EB0C03001B1C
:1031500061EB0C01DFF824E14FEA1154A4EB135C9E
:103160001EEA430F18BF9EEA445F73D023EA0E03A2
:10317000DCF1200E21EA045143F4801332D322FA09
:103180000CFE10EB0E0023FA0CFE41EB0E01CCF10D
:10319000200E03FA0EFE10EB0E0051F10001B1F506
:1031A000801FCCF1200E32D201EB045112FA0EF244
:1031B000BDE8104058BF7047401C38BF5FEA42026C
:1031C00018BF7047002814BF20F0010041F1000132
:1031D0004FEA410313F5001F38BF7047A1F1C0410A
:1031E00000F0E6B9012A43EB0302ACF1200CDCF15C
:1031F0001F0E32BF4FF0000E23FA0CF310EB03004A
:1032000041EB0451B4EB115FD0D0A1EB045101F5B7
:10321000801149085FEA300001EB04510ED350F1F0
:10322000000038BF12FA0EFE08D1BDE81040C9E711
:10323000401C38BF5FEA4202CAD1C3E7BDE8104074
:103240004FEA410313F5001F38BF7047A1F1C04199
:1032500000F0AEB99EEA445F08D011EA5E0FBDE807
:10326000104004BF01F0004100207047BDE810404D
:1032700070B500F04FF900BF64FBBE3E0000E0FFF8
:10328000491058BFC1F140415B1058BFC3F14043E2
:103290008B42EFF3008070474FEA1153A3F5806330
:1032A000D3F11E03A8BFD3F1200C08DB4FF000427E
:1032B00042EAC12252EA505232FA03F07047094200
:1032C0000BD4102BC4BF0020704703F5787CBCF1F1
:1032D000FF3F05D04FF0FF3070474FF000007047C0
:1032E00070B500F017F900BF4992248000207047A4
:1032F000F0E710F0004248BF4042B0FA80F310FA05
:1033000003F10AD0C3F11D0303F580634FEA415076
:1033100002EB035202EBD12170474FF000007047DF
:10332000B0FA80F310FA03F10AD0C3F11D0303F5DC
:1033300080634FEA41504FEA035202EBD1217047BC
:103340004FF000007047000051EA030C17D41CF541
:10335000801F58BFBCF5801F00F10680994218BF3E
:10336000704708BF9042704707D711F5801F58BFBC
:1033700013F5801F19D499427047894270471CF594
:10338000801F08D5BCF5801FF7D58B4218BF70474A
:1033900008BF824270474FF4001C1CEB410F38BF3E
:1033A0001CEB430F01D28B42704770B500F0B2F8AE
:1033B000922449004FF000514FF08053FFF760BF57
:1033C000DFF848C170B51CEA111E1EBF1CEA1315B8
:1033D0009EEA0C0F95EA0C0F00F06F8081EA03045F
:1033E00023EA4C134EEAD47E21EA4C1141F48011B9
:1033F00043F48013AE44A1FB024CA0FB0365AEF185
:103400007F7E361955EB0C05A1FB034C4CF10003F4
:10341000A0FB021C16EB0C06654153F100030942A8
:1034200018BF46F0010613F4007F0BD14FEA0331B9
:103430004FEA0530340341EA155140EA16506FF067
:1034400003020AE04FEAC3214FEAC520F40241EA31
:10345000555140EA56506FF0020202EB2E4201EB4A
:10346000025585EACE710AD05FEA440C18BF24F0F9
:10347000004450F1000041F1000120EAD47040F214
:10348000FE7C624500D270BDA84214BF4FF080445C
:103490004FF04044002E08BF0024BEF1806FA8BF4B
:1034A000A1F1C041BDE8704080F282804FF0000081
:1034B00001F1C04101F0004170479EEA0C0F0CEA97
:1034C000131518BF95EA0C0F06D04FF0000081EAE3
:1034D000030E0EF0004170BD00F01CF88900013EA3
:1034E00000F007B800F009B84FEA430C5FEA5C5CF3
:1034F00008D081EA030100F05BB84FEA410C5FEAB3
:103500005C5CF6D14FF00000014970470000FF07F6
:103510000000F87F0EF1020E2EF0030E5EF8046B31
:10352000364205D4012A43EB030515F5001F12D8D6
:10353000012841EB010C1CF5001F0CD80ED14FEAFD
:10354000D17C15F5001F0CEB4C0C0CF1020C08BFE4
:103550004CEBD37C04E04FF0080C01E04FEAD37C45
:103560000CEB4C0526FA05F606F00706B6F1040C3E
:1035700006D20EEB860CBDE870404CF0010C6047A3
:10358000DFE80CF0090B02024FF000414FF00000A1
:10359000A1F5002170BD19461046012851EB010428
:1035A00018BFD4F5001484BF002001F0004170BDA5
:1035B0000808A0F500114FEA3101704791EA030FA6
:1035C00010B581F000413FF5BBAD83F0004300F042
:1035D00009B8000010B591EA030F48BF83F000431B
:1035E0003FF5AEAD841A71EB030C07D212198CF0C3
:1035F000004C43EB0C03001B61EB0C01DFF8A4E172
:103600004FEA1154A4EB135C1EEA430F18BF9EEA65
:10361000445F00F0B08023EA6E03524221EA045175
:10362000C3EB6E0338BF5B1EDCF1200E25D322FAFC
:103630000CFE10EB0E0043FA0CFE41EB0E01CCF138
:10364000200E03FA0EFE10EB0E0051F10001CCF13A
:10365000200E29D412FA0EF201EB0451BDE81040FD
:1036600058BF7047401C1CBFB2F1004F7047002884
:103670000CBF491C20F00100704712EB020E43EB17
:10368000030218BF4FF0010E4EEA4202ACF1200CCB
:10369000DCF11E0E54D943FA0CFE10EB0E0051F172
:1036A000FF31CCF11E0ED5D50EF1010E12FA0EFE31
:1036B000404141EB010101EB445C5FEA5C5C10D9E5
:1036C00010EBDE7001EB045138BFBEF1004FBDE8D6
:1036D000104018BF704700280CBF491C20F00100A3
:1036E000704730D24FEAD42C11F5001124F4006455
:1036F0001BD0B1FA81F20B3AA41AA41ED2F1200316
:10370000914030FA03F31943904001EBCC71002C47
:1037100001EB0451BDE81040A8BF704701F1C04162
:103720004FF0000001F000417047B0FA80F310FA4A
:1037300003F100D110BDE41A173C4805C90AE4E7BB
:1037400001EB045110BD491001EB0451BDE81040DC
:103750004FEA300002E04FF0000170474A0008BF16
:103760000042F8D0B2F5001F28BF704701F00041B9
:103770004FF0000070479EEA445F07D011EA5E0FE9
:10378000BDE8104004BF002100207047BDE8104094
:1037900070B5FFF7BFFE00BF40DFF63E83F000418B
:1037A000104670470000E0FF030064003200320062
:1037B0000A000A000A000A000A00030000000000D4
:1037C000000000000000E03F9A9999999999A93F5B
:1037D0007B14AE47E17A743FFCA9F1D24D62403FC1
:1037E0002D431CEBE2360A3FF168E388B5F8D43E7E
:1037F0008DEDB5A0F7C6A03E48AFBC9AF2D76A3EA1
:103800002038000800000020C80100003001000836
:10381000E4380008C8010020D80C00008C01000822
:1038200011800D48E801030406080C101820301B15
:10383000010213041F07080913A8372A08040141CD
:10384000100D404A454F4A544F59545E5963163142
:10385000323435FF126412C818122C019001F401A1
:103860005802BC0220038403E80364121FF401BC65
:1038700002FFFF311363FF12FA1CE803FA06690224
:10388000C90E49101AF4320D10E204F40120091A8D
:103890002E14FFFF5412541A59042179081C59633D
:1038A000680909121713FF3E89021AE8AA127C2937
:1038B000020D10E803F4010AA92C14FFFF6329028A
:1038C0006F5440454A4F31054B454F16A2FF7A646D
:1038D000041D6464643705290A1F050F1923374B3B
:0438E00017220100AA
:04000005080001D915
:00000001FF
