:020000040800F2
:10000000A00E0020D9010008E1010008E30100086A
:10001000E5010008E7010008E90100080000000010
:10002000000000000000000000000000EB010008DC
:10003000ED01000800000000EF0100081920000891
:10004000F3010008F3010008F3010008F3010008C0
:10005000F3010008F3010008F3010008F3010008B0
:10006000F3010008F3010008F3010008F3010008A0
:10007000D5060008F3010008F3010008F3010008A9
:10008000F3010008F3010008F3010008F301000880
:10009000F3010008F3010008F301000875080008E7
:1000A000F3010008F3010008B5200008F30100087F
:1000B000F3010008F1200008F3010008F301000833
:1000C000F3010008F3010008F3010008A91D00086E
:1000D000F3010008DD220008F3010008F301000825
:1000E000D9070008F3010008F30100089522000871
:1000F000F301000800F002F800F05EF80AA090E8B2
:10010000000C82448344AAF10107DA4501D100F0D2
:1001100053F8AFF2090EBAE80F0013F0010F18BF41
:10012000FB1A43F0010318474046000060460000F8
:100130000A444FF0000C10F8013B13F0070408BF0D
:1001400010F8014B1D1108BF10F8015B641E05D0AB
:1001500010F8016B641E01F8016BF9D113F0080F60
:100160001EBF10F8014BAD1C0C1B09D16D1E58BFF2
:1001700001F801CBFAD505E014F8016B01F8016B29
:100180006D1EF9D59142D6D370470000002300249C
:1001900000250026103A28BF78C1FBD8520728BF97
:1001A00030C148BF0B6070471FB59DE8030000F0E9
:1001B00081F81FBD10B510BD00F000F91146FFF722
:1001C000F3FF03F0F9F800F01EF903B4FFF7F2FFB4
:1001D00003BC00F04BF9000009488047094800477C
:1001E000FEE7FEE7FEE7FEE7FEE7FEE7FEE7FEE7E7
:1001F000FEE7FEE704480549054A064B7047000044
:100200004D200008F5000008A0080020A00E0020E6
:10021000A00A0020A00A002070B5064600F02EF8C3
:10022000056806F10B0020F00704B4429CBF0020D3
:1002300070BD2B466A68BAB11068A04210D304F1B1
:10024000080188423CBF5068586007D351681019B4
:1002500041601168091B016058601460101D70BD79
:1002600013465268002AE7D12146284600F00EF8CE
:100270000028DED170BD7047704770470048704756
:1002800048080020704770477047704738B50446EB
:100290000A4600206946AFF30080002808BF38BD39
:1002A00002460099204600F067F8012038BD012081
:1002B00000F07CB8F8B5AFF30080054600200C468E
:1002C000102000BF0646A819A0420DD93246694643
:1002D0000020AFF30080070008BF00F067F8009827
:1002E000A04218BF0546C419FFF7C8FF05600746BE
:1002F000F01D20F007004619284600F00AF8B44225
:1003000008BFF8BDA21B31463868BDE8F84000F0D0
:1003100033B800210160C0E9011070471020704718
:1003200070B50446051FFFF7A9FF0068002C14BF35
:10033000446870BD002C18BFAC423CBF20466468C6
:10034000F8D301680A18AA4218BF456003D12A6889
:1003500005461144016028684119A1421CBF6C6028
:1003600070BD6168696021680844286070BD000044
:100370000048704740080020034640688C4600282B
:1003800018BF88423CBF03464068F8D31868184439
:10039000884207D00CF1030020F00700001D411A2D
:1003A000521A0146081D0A60FFF7BABF10B500F0E7
:1003B00035F8BDE8104000F02CB870477546FFF7DF
:1003C000D7FFAE4605006946534620F00700854634
:1003D00018B020B5FFF70EFFBDE820404FF0000633
:1003E0004FF000074FF000084FF0000B21F007011D
:1003F000AC46ACE8C009ACE8C009ACE8C009ACE860
:10040000C0098D4670470446AFF300802046FFF7D1
:10041000DCFE002801D000F029B8704710B5012893
:1004200005D0002103A000F027F8012010BD09A18C
:10043000F8E7000053494752544D454D3A204F7557
:1004400074206F662068656170206D656D6F7279CC
:10045000000000003A2048656170206D656D6F7284
:100460007920636F72727570746564000149182099
:10047000ABBEFEE72600020070B505460C460A201A
:1004800000E06D1C00F011F835B128780028F8D193
:1004900002E0641C00F009F814B120780028F8D1BB
:1004A000BDE870400A20AFF3008008B569468DF8BA
:1004B00000000320ABBE08BD0F48006840F00200FA
:1004C0000D4908600D48006840F000600B49086065
:1004D000081D008820F40050091D0880081D0068D0
:1004E00040F04060091D08600448406A40F4401133
:1004F00002484162704700001C380240000402407C
:100500001E48006840F004001C4908601C48008830
:1005100040F2F23188431A4908800846008840F0CA
:100520004400088016481830008840F070001449D4
:100530001831088012482030008840F0030010492C
:100540002031088063200E49283108800020091DD1
:1005500008600B49343108600949243108600848B3
:100560001430008840F00100054914310880081F4C
:10057000008820F00100091F0880704720380240E1
:100580000008014009480A4908600A4848600A48CA
:1005900088600A490648C160094805490861094957
:1005A000034841610020024948767047A2000020BC
:1005B000D0060020AC000020B20000200E01002078
:1005C0003C010020760100200020114908701149EB
:1005D00008601049083108600E4910310860012098
:1005E0000D49086000200C49083908600948243882
:1005F000008820F0010007492439088006482C387B
:10060000008820F0010004492C3908807047000060
:100610007A000020240801402C04004000B5024666
:1006200000F0A2FA0A49086000200A4908600A4955
:1006300008600A4908600A4908700A48006800888A
:100640000949086012B101200849087000BD000086
:1006500030000020240000202C0000202800002072
:10066000380000203C000020340000203900002029
:100670000848006840F00100064908600648006824
:1006800040F44070044908600846806840F44070B7
:10069000886070471C380240000002400B48006828
:1006A00040F00050094908600948006820F0060041
:1006B00007490860002006491031086004480068B6
:1006C00040F00100024908607047000024380240F1
:1006D000007400400D48006800F02000A8B10B48ED
:1006E000406840F01000094948600020084908703F
:1006F0004FF08040008A20F001004FF080410882D6
:100700000846008820F00100088070470060024021
:10071000BD010020014602480A1810687047000019
:100720000000080810B502460B460E48141872B6B1
:1007300000F03EF80C48006840F480700A490860F8
:10074000236000BF08481430006800F00100002852
:10075000F8D10548006840F001000349086062B61E
:1007600010BD000000000808043C024000B50F481E
:1007700000780E4A527840EA02100C4A927840EA19
:1007800002500A4AD27840EA0220084A127940EA26
:100790000230064A527940EA0240044A927940EA1D
:1007A00002610020FFF7BEFF00BD00001D00002019
:1007B0000648074908600748086000BF0448083831
:1007C000006800F001000028F8D17047EFCDAB8938
:1007D0000C3C02400504030210B51B48006800F4FD
:1007E000005000282FD000220121104600F028FEE2
:1007F000C4B204F01C000C2802D114A001F0EAFDE0
:1008000004F01C00102818D100F0E0FF01F03AF8C5
:1008100000F010FF114890F8410018B1002108467F
:1008200001F0B2F80D4890F8420020B900F0B0FA9B
:100830000BA001F0CFFD00F0F1FF0348006840F489
:1008400000500149086010BD140401405061636B01
:1008500065742073656E742E0A0000001202002079
:10086000496E7465727072617465732061733A0ABF
:10087000000000001CB54048006800F0400000285F
:1008800079D03E48407A00286FD03C48007A002852
:1008900055D03A480168012001F01CFBB0F57A7F81
:1008A00046D23648007A401C344908720846007A1D
:1008B00004282BDD0020324948620846008840F0B9
:1008C0000100088004202D4908720846406838B1AC
:1008D00008464168012001F0FDFAB0F5FA7F20D901
:1008E0000021084601F0F6FA2449486001F0DCFDD9
:1008F0004F2001900A200F23012201A9009000201F
:1009000001F04AF91FA001F065FD0AE021A001F005
:1009100061FD1A49087A002101F067FD22A001F06B
:1009200059FD0021084601F0D5FA144908601CE081
:100930000020124908721DA001F04CFD15E00F487F
:10094000007A401C0D4908720021084601F0C2FAE5
:100950000A4908600FA001F03DFD0849087A00210E
:1009600001F043FD10A001F035FD0348006840F0A0
:100970004000014908601CBD14040140C406002069
:1009800000100040466973682063617567687421D0
:100990000A000000526F6C6C6572206D6F766564A2
:1009A00020776974682023002E0A0000526F6C6C57
:1009B0006572206D6F7665642077697468202330D6
:1009C0002E0A00002DE9F0430546DDE90767099C82
:1009D0000A2D04D00B2D0ED00C2D24D117E0DFF8FA
:1009E00078C1DCF800C04CF0010CDFF86C81C8F86D
:1009F00000C05A4817E0DFF860C1DCF800C04CF0D6
:100A0000020CDFF85481C8F800C055480BE0DFF84D
:100A100048C1DCF800C04CF0040CDFF83C81C8F899
:100A200000C0504800BF00BFD0F800C04FEA4109E5
:100A30004FF0030808FA09F82CEA080CC0F800C0C7
:100A4000D0F80CC04FEA41094FF0030808FA09F842
:100A50002CEA080CC0F80CC0D0F800C04FEA4108DE
:100A600002FA08F84CEA080CC0F800C0012A03D0CA
:100A7000022A01D0002A6CD1D0F80CC04FEA4108FC
:100A800003FA08F84CEA080CC0F80CC0012A01D09F
:100A9000022A5ED1B0F804C04FEA41094FF00108C4
:100AA00008FA09F82CEA080CA0F804C0D0F808C02D
:100AB0004FEA41094FF0030808FA09F82CEA080C3C
:100AC000C0F808C0B0F804C006FA01F84CEA080CF7
:100AD000A0F804C0D0F808C04FEA410807FA08F8A7
:100AE0004CEA080CC0F808C0022A32D1082916DAEC
:100AF000D0F820C04FEA81094FF00F0808FA09F832
:100B00002CEA080CC0F820C0D0F820C04FEA8108B9
:100B100004FA08F84CEA080CC0F820C019E0D0F834
:100B200024C0A1F108084FEA88094FF00F0808FA1D
:100B300009F82CEA080CC0F824C0D0F824C0A1F1B0
:100B400008084FEA880804FA08F84CEA080CC0F8CC
:100B500024C0BDE8F08300001C38024000000240C1
:100B600000040240000802400748008A00F001002B
:100B70000549098A01F0020108430349098A01F085
:100B80000401084370470000000002400648006866
:100B900038B105480068401E0349086003480068F2
:100BA00070470020FCE700002800002024000020FF
:100BB0000EB500200090019001230246062102900C
:100BC0000A20FFF7FFFE2548006840F00100234996
:100BD00008602348C0682249C8602248006840F085
:100BE0004000204908601F480C30006840F0400079
:100BF0001C490C3108600221172000F011FA17205F
:100C000000F0F8F91548001D006840F01000134985
:100C1000091D08601448008840F008001249088047
:100C200042F21070C8624FF47A50088508468089F5
:100C300040F0010088810846808A40F001008882E7
:100C40000846008A20F00100088202212B2000F0D3
:100C5000E7F92B2000F0CEF90EBD0000203802404D
:100C60000000014000040140001000400EB5124891
:100C7000006840F0010010490860002000900190D9
:100C800003460246014602900A20FFF79BFE002021
:100C90000090019003460246012102900A20FFF7CE
:100CA00091FE00200090019003460246022102902E
:100CB0000A20FFF787FE0EBD1C38024000B5FFF783
:100CC00053FF034620480068984203D00020FFF7F6
:100CD000A5FC00BD13B11D48007820B113B9002058
:100CE0001A490870F5E71A480068401C184908605E
:100CF000184803600846006817490968884220D3ED
:100D000016480068401C15490860154800681549D8
:100D100008600846016814480078401C31F810004B
:100D200020B111480078401C0F4908700D48006838
:100D30000D49097830F81100074909680844064947
:100D4000086000BFC5E70000300000203900002027
:100D50002C00002024000020340000202800002067
:100D6000400000203C00002038000020F0B50024A6
:100D70001D0245EA024545EA01040026451E034FCF
:100D800047F825603E4646F82540F0BD180800208B
:100D90001CB52E4890F83E00002856D12B4800780C
:100DA000062841D006DC032820D004282AD00528B4
:100DB0004AD131E007283FD03F2845D10020FFF736
:100DC000A9FC0446E0B28DF80400200A8DF8050065
:100DD000200C8DF80600200E8DF807000020034639
:100DE000042201A9009000F0FDFD2DE01748407895
:100DF0001749487008464178032002F0BDF801F019
:100E0000D5FF21E01148407811498870887801F0B9
:100E1000FDFE01F0CBFF17E00C4840780C49C8708C
:100E2000C87801F01DFB0FE00848407808490871B8
:100E3000087901F029FB07E004484078044948712B
:100E4000487901F0FFFA00BF00BF1CBD120200206C
:100E50001D00002010B51020FFF7DEF9544908608E
:100E60001020FFF7D9F9534908601020FFF7D4F993
:100E7000514908601020FFF7CFF950490860102051
:100E8000FFF7CAF94E4908601020FFF7C5F94D4930
:100E900008601020FFF7C0F94B4908601020FFF7E9
:100EA000BBF94A490860434800684149096808603D
:100EB00000203F49096888603D4909684860444806
:100EC0003B490968C8603C4800683A4909680860BD
:100ED00000203849096888603649096848603D48FB
:100EE00034490968C86035480068334909680860B2
:100EF00000203149096888602F49096848603648F0
:100F00002D490968C8602E4800682C4909680860A6
:100F100000202A49096888602849096848602F48E4
:100F200026490968C860274800682549096808609B
:100F300000202349096888602149096848602848D9
:100F40001F490968C860204800681E490968086090
:100F500000201C49096888601A49096848602148CE
:100F600018490968C8601948006817490968086085
:100F700000201549096888601349096848601A48C3
:100F800011490968C8600A48006810490968086082
:100F900000200E49096888600C49096848601348B8
:100FA0000A490968C860024800681149086010BD14
:100FB00044000020480000204C0000205000002089
:100FC00054000020580000205C0000206000002039
:100FD00045360008D136000845380008BD390008FC
:100FE000213B0008753C0008C93D0008253F00086A
:100FF0006400002000F01F0201219140420992008C
:1010000002F1E022C2F80011704700F01F02012136
:1010100091404209920002F1E022C2F800117047AB
:1010200010B5002807DA0A07140E054A00F00F036E
:101030001B1FD45403E00A07130E024A135410BDB9
:1010400018ED00E000E400E010B504460B4890F80D
:101050003E00A0420FD1094890F8420058B108A0C4
:1010600001F0B8F90021204601F0BFF909A001F014
:10107000B1F9012010BD0020FCE7000012020020A1
:1010800041434B5F72656365697665642066726F84
:101090006D3A20000A0000000EB52548006840F0B7
:1010A00003002349086000200090019003460122BC
:1010B000092102900A20FFF785FC0520012100226A
:1010C0001346CDE900210290022203210B20FFF7F5
:1010D00079FC0520012100221346CDE90021029070
:1010E000022201460B20FFF76DFC052001210022A2
:1010F0000B46CDE900210290022204210B20FFF7CC
:1011000061FC002000900190034601220F21029013
:101110000A20FFF757FC0748808A40F40040054941
:1011200088820548008820F04000034908800EBDF1
:101130001C38024000000240003001403EB500F083
:10114000BFFB00BFAA222F21012000F079F9002265
:101150002F21104600F074F9AA28F3D100BF5522C0
:101160002F21012000F06CF900222F21104600F001
:1011700067F95528F3D100220121104600F060F9EB
:1011800004220121084600F05BF9002201211046EB
:1011900000F056F900220221012000F051F902224C
:1011A0000321012000F04CF940220421012000F02D
:1011B00047F903220521012000F042F933220621DC
:1011C000012000F03DF9D9220721012000F038F973
:1011D00000220821012000F033F90022092101201A
:1011E00000F02EF942221921012000F029F95222A3
:1011F0002521012000F024F977222621012000F08A
:101200001FF9002000900190012302460D21029059
:101210000C20FFF7D7FB6148006840F001005F49F0
:1012200008605F48406940F020015D4841615D48C9
:10123000006840F400505B4908605A480830006874
:1012400040F4005057490831086028200121002847
:1012500007DA0A07140E544A00F00F031B1FD45478
:1012600003E00A07130E514A135400BF282000F070
:101270001F02012191404209920002F1E022C2F8CE
:10128000001100BF002000900190012302460B21B5
:1012900002900846FFF796FB002000900190012382
:1012A00002460C2102900B20FFF78CFB00200090DF
:1012B0000190012302460E2102900B20FFF782FBD2
:1012C000002000900190012302460F2102900B2084
:1012D000FFF778FB002000900190012302460821CF
:1012E00002900A20FFF76EFB10222821012000F057
:1012F000A7F8DC222921012000F0A2F888222E2163
:10130000012000F09DF82D222F21012000F098F8F7
:1013100064223021012000F093F89022372101202F
:1013200000F08EF842223821012000F089F88F2247
:101330003C21012000F084F812223D21012000F020
:101340007FF830226F21012000F07AF818A000F019
:101350002DF90F221321012000F072F89F22112194
:10136000012000F06DF8012000F0C0FC98220D2152
:10137000012000F065F818220E21012000F060F82D
:10138000FA220F21012000F05BF801200D4981F8BD
:10139000460000F043FA01203EBD00002038024024
:1013A000000001400004014018ED00E000E400E00E
:1013B00046697368696E674D6F6E737465727321E9
:1013C00000000000120200200648006840F480502F
:1013D000044908600448008840F624310843024963
:1013E00008807047203802400030014013490988C6
:1013F00021F40061114A118000BF1049098901F0F0
:1014000080010029F9D10D49888100BF0B49098964
:1014100001F001010029F9D008498989C8B200BF4B
:101420000649098901F080010029F9D10349098899
:1014300041F40061014A1180704700000030014012
:1014400010B5034613B1012B7ED146E04348008816
:1014500040F04000414C20804148808A20F4004008
:101460003F4CA0823D488089C2B200BF3B48008902
:1014700000F002000028F9D000BF3848008900F0D1
:1014800080000028F9D140EA0120344CA08100BF3F
:101490003248008900F002000028F9D000BF2F4830
:1014A000008900F001000028F9D02C488089C2B2E0
:1014B00000BF2A48008900F080000028F9D12848A0
:1014C000808A40F40040264CA0822448008820F006
:1014D0004000224C2080104610BD2048008840F07B
:1014E00040001E4C20801E48808A20F400401C4C86
:1014F000A08200BF1948008900F002000028F9D03E
:1015000000BF1648008900F080000028F9D141F0A2
:10151000800042EA0020114CA08100BF0F480089E2
:1015200000F002000028F9D000BF0C48008900F04C
:1015300080000028F9D10A48808A40F40040084C15
:10154000A0820648008800E004E020F04000034C40
:10155000208000BF00BF00BFBEE700000030014098
:101560000000024070B504460D4600222146104698
:10157000FFF766FF2843C6B2324621460120FFF737
:101580005FFF70BD00B5002201211046FFF758FF34
:1015900000F01000102807D0002000F057F910F1DB
:1015A0005A0F01DA012000BD0020FCE730B50446E7
:1015B000012000F09BFB44B31848008840F0400035
:1015C000164908801648808A20F400401449888211
:1015D000BE20FFF70BFF002504E0605DFFF706FF6C
:1015E000681CC5B2102DF8DB0D48808A40F400401D
:1015F0000B4988820948008820F04000074908808C
:101600000846008820F0400008800CB1012000E06E
:10161000002001463D20FFF7A5FF30BD003001400E
:101620000000024010B5FFF737FDFFF7CDFEFFF7D2
:1016300085FD10BD70B54A48008840F0400048491B
:1016400008804848808A20F400404649888200206B
:10165000FFF7CCFE0020FFF7C9FE434981F84000A8
:101660000020FFF7C3FE404981F83F00084690F88C
:101670004000C01E81F83D000020FFF7B7FE3A4948
:1016800081F83E000020FFF7B1FE054605F080001E
:10169000354981F8420005F0400081F841000024FE
:1016A00006E00020FFF7A2FE2F490855601CC4B2D7
:1016B0002D4890F83D00A042F3DC2B4890F83D0007
:1016C0003D2805DA0020284991F83D10264A50545B
:1016D0002448808A40F400402249888220480088BB
:1016E00020F040001E490880002000F0AFF81E499D
:1016F000A1F844001DA000F06DFE1B4991F83E00CA
:10170000002100F072FE1FA000F064FE164991F85F
:101710003F00002100F069FE1CA000F05BFE1249B2
:1017200091F83D00002100F060FE1AA000F052FE8A
:101730000D49B1F94400002100F057FE18A000F057
:1017400049FE094890F8420010B117A000F042FE8F
:10175000054890F8410010B117A000F03BFE70BDA5
:101760000030014000000240120200205061636B13
:1017700065742072656365697665642066726F6D55
:101780003A20000020746F3A20000000207769742E
:101790006820000020627974657320616E64200007
:1017A00020525353492E200041434B2072656365FC
:1017B000697665642E0A000049742072657175654A
:1017C0007374732041434B2E0A00000010B524228D
:1017D00001210846FFF734FE042201210846FFF7E5
:1017E0002FFE04E0042201210846FFF729FE002213
:1017F00001211046FFF724FE00F01C000428F1D15F
:1018000001A000F0E7FD10BD4C697374656E206D9A
:101810006F6465204F46462E0A00000010B5012077
:1018200000F064FA402201210846FFF709FE02A0F9
:1018300000F0D0FD10BD00004C697374656E206D22
:101840006F6465204F4E2E0A0000000030B504463C
:1018500000256CB101212320FFF784FE00BF002288
:1018600023211046FFF7ECFD00F002000028F6D01F
:10187000002224211046FFF7E3FD404205B26D101F
:10188000284630BD00B500200C4981F83D0081F8A4
:101890003E0081F83F0081F8400081F84100A1F846
:1018A0004400002228211046FFF7CAFD00F0040082
:1018B00018B104213D20FFF755FE00BD12020020A3
:1018C0003EB50020009001900346012209210290BC
:1018D0000A20FFF777F81448808A40F40070124914
:1018E00088820021084600F0F5FA044600BF214630
:1018F000012000F0EFFA0028F9D00B48808A20F48C
:101900000070094988820021084600F0E3FA044685
:1019100000BF2146012000F0DDFA0528F9D303A01D
:1019200000F058FD3EBD00000000024052464D361A
:10193000395720726573657420646F6E652E0A00D6
:101940002DE9F84304460D4616461F4604213D2066
:10195000FFF708FE0021084600F0BCFA804600BFF1
:10196000FFF710FE30B94146012000F0B3FAB0F5A0
:101970007A7FF5D300203B46324629460090204628
:1019800000F030F8BDE8F883F8B504460D460F487E
:1019900090F83E60B0F9447004213D20FFF7E2FD6D
:1019A000012000232A4621460090304600F01AF814
:1019B00007A000F00FFD0021304600F016FD08A042
:1019C00000F008FD0148A0F84470F8BD12020020A4
:1019D00041434B5F73656E7420746F3A20000000C2
:1019E0000A0000002DE9F84F8346894614461E463A
:1019F000DDF828A0012000F079F90021084600F068
:101A00000FF93D2C00DD3D24BAF1000F01D08027F5
:101A100001E006B140274048008840F040003E49C0
:101A200008803E48808A20F400403C49888280201B
:101A3000FFF7DCFCE11CC8B2FFF7D8FC5846FFF703
:101A4000D5FC374991F84600FFF7D0FC3846FFF740
:101A5000CDFC002505E019F80500FFF7C7FC681C60
:101A6000C5B2A542F7DB2D48808A40F400402B49DF
:101A700088822948008820F04000274908800420F7
:101A800000F034F90021084600F024FA009000BF6D
:101A90002448008800F4005030B90120009900F07B
:101AA00019FAB0F57A7FF3D31E48008800F400508D
:101AB000002826D01CA000F08DFC0021584600F024
:101AC00094FC1EA000F086FC154991F84600002108
:101AD00000F08BFC1BA000F07DFC0021204600F0F4
:101AE00084FC1AA000F076FCBAF1000F02D01AA014
:101AF00000F070FC16B11CA000F06CFC4FF0010867
:101B000004E01EA000F066FC4FF00008012000F089
:101B1000EDF84046BDE8F88F00300140000002407B
:101B200012020020100802405061636B657420733C
:101B3000656E7420746F3A20000000002066726F9A
:101B40006D3A200020776974682000002062797463
:101B500065732E200000000049742073656E647365
:101B60002041434B2E0A000049742072657175654F
:101B70007374732041434B2E0A0000005061636B65
:101B800065742073656E64696E672074696D656441
:101B9000206F75742E0A00002DE9F04706460F46A7
:101BA00090461C46DDF82090FFF710FE012000F063
:101BB0009DF800252BE00020184981F84200012300
:101BC000424639463046FFF7BBFE032000F08EF850
:101BD0004021002000F024F80021084600F07AF9A6
:101BE000824609E03046FFF72FFA28B1012000F0C5
:101BF0007DF80120BDE8F0875146012000F06AF928
:101C00004845EFD3012000F071F8681CC5B2A54229
:101C1000D1DDFFF703FE0020ECE7000012020020F8
:101C200070B505460C46062D5ED2DFE805F00312BE
:101C300021303F4E002225211046FFF701FC20F005
:101C4000C0002043C6B2324625210120FFF7F8FB31
:101C50004AE0002225211046FFF7F2FB20F0300079
:101C60002043C6B2324625210120FFF7E9FB3BE0C5
:101C7000002225211046FFF7E3FB20F00C00204353
:101C8000C6B2324625210120FFF7DAFB2CE0002204
:101C900025211046FFF7D4FB20F003002043C6B2F5
:101CA000324625210120FFF7CBFB1DE00022262133
:101CB0001046FFF7C5FB20F0C0002043C6B23246F5
:101CC00026210120FFF7BCFB0EE000222621104652
:101CD000FFF7B6FB20F030002043C6B23246262183
:101CE0000120FFF7ADFB00BF00BF70BD30B504465B
:101CF000052C4DD2DFE804F03F3021120300002212
:101D000001211046FFF79CFB00F0E30040F00C05BA
:101D10002A4601210846FFF793FB39E00022012102
:101D20001046FFF78DFB00F0E30040F010052A4657
:101D300001210846FFF784FB2AE00022012110461A
:101D4000FFF77EFB00F0E30040F008052A46012182
:101D50000846FFF775FB1BE0002201211046FFF744
:101D60006FFB20F01C00001DC5B22A460121084669
:101D7000FFF766FB0CE0002201211046FFF760FB35
:101D800000F0E3052A4601210846FFF759FB00BF92
:101D900000BF00BF2CB90348008A00F480700028FF
:101DA000F8D030BD000002403349098901F001013B
:101DB00000295FD0304988893049898A41F400413F
:101DC0002E4A91822C49098821F040012A4A11802B
:101DD0002B4991F850102A4A02EB8101897811466B
:101DE00091F85010491C142903D1002182F8501099
:101DF00006E0234991F85010491C214A82F85010FE
:101E00001F4991F850101E4A92F8512091421DD15D
:101E100000BF1949098901F080010029F9D117494A
:101E2000898A41F40041154A91821349098821F0B9
:101E30004001114A11801146098821F040011180AA
:101E40001146898821F04001918013E00A490988F0
:101E500041F04001084A11800849898A21F4004173
:101E6000064A9182064991F85010054A32F821102D
:101E7000014A91817047000000300140000002409B
:101E8000C001002010B54FF0E020006940F00200D2
:101E90004FF0E021086141F2941048610846006962
:101EA00040F00100086148170121002807DA0A07FD
:101EB000140E064A00F00F031B1FD45403E00A0758
:101EC000130E034A135400BF10BD000018ED00E0CC
:101ED00000E400E0024612B90A4800687047012A8F
:101EE0000DD108480068884203D306480068401AAC
:101EF000F4E7C1F1FF30034B1B681844EEE700BF65
:101F0000ECE700006C0000200CB500200190009070
:101F10003E48006840F480303C49086000BF3B48C0
:101F2000006800F4003000900198401C0190009877
:101F300018B90198B0F5A06FF1D13448006800F4E9
:101F4000003010B10120009001E0002000900098C6
:101F5000012859D12E48006840F004002C4908603F
:101F60000846006840F0020008600846006840F03B
:101F70000100086025482430006840F08050234963
:101F800024310860C8142349086000BF2148406814
:101F900000F010000028F9D11C48083000681B49E7
:101FA0000831086008460068086008460068086054
:101FB0000846006820F47D0008600846006840F488
:101FC0009A0008601148006840F080700F4908606E
:101FD00000BF0E48006800F000700028F9D00B48E0
:101FE0000830006820F003000849083108600846FE
:101FF000006840F00300086000BF04480830006833
:1020000000F00C000C28F8D10CBD00000038024094
:10201000003C02400070004010B50A480068401CB7
:102020000849086008480078401C074908700846BD
:1020300000780A2804D1FEF741FE0020024908700A
:1020400010BD00006C0000207000002010B5154885
:10205000006840F480701349086012480830006836
:10206000114908400F49083108600E4800680F49BF
:1020700008400C4908600846006820F48020086089
:1020800008480830006820F47D00064908310860DF
:102090000020091D0860FFF737FF4FF0006004497A
:1020A000086010BD003802400CC0FF88FEFFFEEE45
:1020B00008ED00E00B48008800F0010080B10948FD
:1020C000008820F0010007490880012006490870B7
:1020D0000648007808B9012000E000200349087094
:1020E00070470000100C0140BE0100209801002044
:1020F00010B56248008800F0010000284CD05F480D
:10210000008820F001005D4908805D4800781428AF
:1021100052D15C48007E5B4951F8300000884FF690
:10212000FF71884239D00020574908605548007E29
:10213000544901EBC00040680078534908310860F9
:10214000504B1B7E4F4C04EBC303191D5868431CB6
:102150000B60027802EBD2735B104B4C103423609F
:10216000484A127E474B03EBC2010868821C0A6092
:102170000288424B1C331A6040481038008840F0F7
:1021800001003E49103908803F482438008840F05B
:1021900001003D49243908806FE03A48007E394902
:1021A00051F8300000884FF6FF71884265D1FEF784
:1021B000E9F9FEF709FA60E0314800780A2824D1ED
:1021C00000203149086031488179801C30F81100C5
:1021D0002D49083108602D498A79891C31F812008F
:1021E00000EBD0714910284A1032116027488079DD
:1021F000C0F101002549887120481038008840F05E
:1022000001001E491039088037E01D4800781E285B
:1022100033D11F48807940B300201B4908601C4817
:1022200000881949083108601949088800EBD07105
:102230004910154A10321160154880880F491C3129
:10224000086011482438008840F001000E49243904
:1022500008800A481038008840F00100074910390A
:10226000088000200A49887107E00948807920B970
:10227000012007498871FEF7A7F910BD100400403E
:102280007A000020D006002024080140EC0600203F
:10229000720000201CB50D48008A00F00100A0B1BA
:1022A00000F032F96F2001900A200F23012201A9CA
:1022B00000900020FFF770FC05A000F08BF80348A9
:1022C000008A20F00100014908821CBD0010004076
:1022D00048756E7420646F776E2E0A001748008868
:1022E00000F0400040B3164890F8E803401CB0F5F9
:1022F0007A7F04D10020124981F8E80306E01048F3
:1023000090F8E803401C0E4981F8E8030C4890F867
:10231000E8030B4991F8E913884207D0084890F880
:10232000E8030749085C0549091D0880034800883F
:1023300020F040000149088070470000003801404B
:102340005A0200200EB51948006840F002001749F3
:102350000860081D006840F48040091D08600720DF
:10236000002100910B460222CDE9011006210B202D
:10237000FEF728FB0720002100910B460222CDE941
:10238000011001460B20FEF71DFB094800684FF4C1
:10239000E131B0FBF1F007490880081D008842F2E6
:1023A0000C0108430349091D08800EBD1C3802407A
:1023B000000000200838014000BF0549098801F0ED
:1023C00080010029F9D00249091D088070470000EA
:1023D0000038014000B5024603E01078FFF7ECFF3B
:1023E000521C10780028F8D100BD2DE9F04188B0CA
:1023F00005460C4684B9284601F046FF06460020F3
:1024000032460B46009001A800F0CCFD01A8FFF772
:10241000E1FF08B0BDE8F081022C10D1284600F0A1
:1024200085FE804601F019FF0646002032460B4625
:10243000009001A800F0B6FD01A8FFF7CBFF00BF98
:10244000E7E7000000B50246034830F812000349F0
:102450000880FEF7B9F800BD8E000020EC060020D1
:1024600000B50246064810F81200064948800448A4
:1024700000EB4200417803488180FEF7A5F800BDDB
:102480007B000020EC0600200449095C044A11810D
:1024900011460989034A1160704700008700002037
:1024A000EC060020107400400A20124908701248FF
:1024B00000891249086010480088114908601148D5
:1024C000008800F001000F49088020B90846008804
:1024D00040F0010008800A482C38008800F0010014
:1024E00007492C39088020B90846008840F00100CF
:1024F000088070477A000020EC060020107400402D
:102500002C0400400008014000B5FEF75DF800BD56
:1025100000B5FEF7ADF8FEF7C1F8FDF7CDFFFDF70A
:10252000EFFF2648006840F0020024490860244874
:10253000008840F2F231884321490880084600882B
:1025400040F00800088047F6FF401D492831088008
:102550000120091D0860002019492431086019492B
:1025600088714F20184908800120488064208880A5
:102570001D20012181404209920002F1E022C2F8AF
:10258000001100BF0E480C30008840F001000C49DB
:102590000C3108800A481430008840F001000849D6
:1025A00014310880081F008820F00100091F0880EE
:1025B000FEF70AF8FDF7E6FF00BD000024380240F0
:1025C00000040040EC0600207200002000B5024626
:1025D0000D48407E0D4908600D480078142807D149
:1025E000FDF7F2FFFDF7CEFF14200949087002E065
:1025F000142007490870044802760648008840F015
:1026000001000449088000BDD0060020107400407D
:102610007A00002000040040012008498871084623
:102620004088074908601E2006490870064800884F
:1026300040F001000449088070470000720000204B
:10264000107400407A0000200004004000B5FDF73F
:10265000BBFFFDF797FF00BD70B5044600250026BF
:10266000B7480078C72813D100BF05E00020B5495E
:1026700041F82500681CC5B2052DF7DB00F096FB7C
:102680000A20AF4908700120AF490870AF490870AF
:10269000AE48007800281DD0AD480078002870D1E1
:1026A000A74800780A2816D10A220121A6480078F6
:1026B00000F0FCF90A280AD1A34801780078401CF0
:1026C000A14A1070052902DD14209D4908700320DD
:1026D00000F06CF92DE19A480078142818D19A4935
:1026E0000978491EC8B21422012100F0DFF914282C
:1026F0000AD1954801780078401E934A107001294C
:1027000002DA1E208E490870032000F04FF910E114
:102710008B4800781E280CD10A21012000F04EFAC7
:102720000A2802D1282086490870032000F03EF9CB
:10273000FFE08348007828280CD11421012000F004
:102740003DFA142802D132207D490870032000F0A0
:102750002DF9EEE07A4800783228BBD10A2C06D158
:102760000120794908700A207549087004E0142C8A
:1027700002D1312072490870032000F017F9D8E027
:10278000FFE7734800780128A4D16D4800780A2833
:102790000CD10A21012000F011FA0A2802D11420DC
:1027A00067490870052000F001F9C2E0644800782C
:1027B000142816D10A2201216348007800F076F926
:1027C0000A280AD1604801780078401C5E4A1070DF
:1027D000052902DD1E205A490870052000F0E6F8A0
:1027E000A7E0574800781E280DD10A2201210020B9
:1027F00000F068FA0A2802D1282051490870052003
:1028000000F0D4F895E04E48007828280DD10A222F
:102810000121082000F056FA0A2802D13220484946
:102820000870052000F0C2F883E04548007832289F
:102830000DD114220121102000F044FA142802D1F5
:102840003C203F490870052000F0B0F871E03C489A
:1028500000783C280DD10A220121002000F032FA34
:102860000A2802D1462036490870052000F09EF85B
:102870005FE033480078462814D10A220121002065
:1028800000F020FA0A2809D114220121082000F0C2
:1028900019FA142802D1502029490870052000F0A7
:1028A00085F846E026480078502814D10A220121F4
:1028B000102000F007FA0A2809D11422012108206B
:1028C00000F000FA142802D15A201D490870052092
:1028D00000F06CF82DE01A4800785A2814D10A222A
:1028E0000121002000F0EEF90A2809D1142201216B
:1028F000082000F0E7F9142802D16420104908707C
:10290000052000F053F814E00D480078642810D139
:102910000A2C06D101200C4908700A2008490870C9
:1029200004E0142C02D1312005490870032000F086
:102930003DF803480078312801D100F045F870BD1A
:102940009501002018080020BF010020BE010020D2
:102950009401002070B5054600240E4800780E4909
:1029600008700E480078632802D000F08FFC0BE05E
:10297000002407E00A4850F824000A4941F82400DE
:10298000601CC4B2052CF5DB07480570C72003495D
:10299000087070BD960100209E0100209501002066
:1029A000180800202C0800209401002010B50446CF
:1029B00000F0FCF9002003490870204600F008FAF6
:1029C00010BD0000BE01002010B5002400F05EFC28
:1029D0000C4800780C49087000BF07E00B4850F81D
:1029E00024000B4941F82400601CC4B2052CF5DB1F
:1029F00001200849087000F0D9F9632006490870E1
:102A000010BD0000970100209E0100202C0800202E
:102A100018080020BE0100209501002010B50446D2
:102A20001421601E034A115400F0C0F9002002492D
:102A3000087010BD99010020BE01002010B50446A9
:102A40001148007811490870601E1149085C14286B
:102A500007D10A21601E0E4A115401200D49087049
:102A600010E00C48007868B1601E0949085C0A282B
:102A700008D100200749087000F098F94FF4C87099
:102A800000F0A6F910BD0000970100209E01002073
:102A900099010020BE01002010B504460249085DDE
:102AA000FFF758FF10BD00009F0100202DE9FC4FEB
:102AB00005468A46914600200190834600900026F4
:102AC0000027804654460DB9012502E0052D00DDA2
:102AD0000525681E384951F82000C0F30746681ED6
:102AE00051F82000C7B2681E51F82000C0F3072833
:102AF000792E0AD1792F08D1B8F1790F05D1B9F122
:102B00000A0F02D10A20BDE8FC8FB9F10A0F24D1C7
:102B1000022000FB0460792803DB79264FF00A0BC2
:102B200001E03019C6B2022000FB0470792803DBF3
:102B300079274FF00A0B01E03819C7B2022000FBD9
:102B40000480792804DB4FF079084FF00A0B2BE062
:102B500008EB040000F0FF0826E0B9F1140F23D1C0
:102B6000022000FB1460002803DC00264FF0140B49
:102B700001E0301BC6B2022000FB1470002803DC09
:102B800000274FF0140B01E0381BC7B2022000FBF6
:102B90001480002804DC4FF000084FF0140B03E011
:102BA000A8EB040000F0FF084346324639462846A9
:102BB000FEF7DCF85846A6E718080020F0B50646F0
:102BC0000F4600240025012407E03A4631462046FE
:102BD000FFF76CFF0544601CC4B2052CF5DD052031
:102BE000B5FBF0F52846F0BD10B504460548047065
:102BF0000078054908700A210020FFF7DFFF00F088
:102C0000FDF810BD970100209E01002010B504467C
:102C10000249085DFFF7E8FF10BD0000B601002083
:102C20002DE9FF4F05460E46914698460020039039
:102C300002908246681E224951F82000C0F3074BDB
:102C4000681E51F82000C0B20190681E51F82000A3
:102C5000C0F307200090681E51F82000F040C4B275
:102C60004F46B8F10A0F09D1E019792803DB79241E
:102C70004FF00A0A10E0E019C4B20DE0B8F1140FE9
:102C80000AD1E01BA04201DAE01B03D100244FF07F
:102C9000140A01E0E01BC4B2102E01D1A34605E0E6
:102CA0000EB9019402E0082E00D100945A4628463D
:102CB000DDE90031FEF75AF8504604B0BDE8F08F68
:102CC000180800202DE9F04F06460F4690464FF0B9
:102CD000000AD1460024A346002500BF09E0611C7C
:102CE000C8B243463A463146FFF79AFF0544601C96
:102CF000C4B2052CF3DB642D02D14FF0140903E0BC
:102D0000322D01D14FF00A094846BDE8F08F00008E
:102D100010B5002400F090FA00F00AFB0A2000F041
:102D20001BFA00F069FA00BF104800780028FBD1B8
:102D3000142000F011FA00F0A9FA002404E0142095
:102D40000B490855601CC4B2052CF8DB6320094907
:102D5000087064200849087005200849087064203C
:102D6000074908700749087010BD0000BD01002028
:102D70009901002095010020940100209601002077
:102D80009E0100209701002000B5002200BF05E051
:102D90000C20054921F81200501CC2B2782AF7DB3A
:102DA00000F0F8FA00BD00002807002000B500BFC1
:102DB000064800780028FBD100F020F800F0EAFA7D
:102DC00000BF024800780028FBD100BDBD010020F3
:102DD0000849097861B9084908600021054A11705D
:102DE00005492C39098841F00101034A2C3A118028
:102DF00070470000BE0100202C0C01402DE9F0417D
:102E000085B00024002300250026002700BF3B4892
:102E100000780028FBD100236BE03948C05C1428FF
:102E200007D038480078012836D13548C05C0A28D8
:102E300032D1354850F82300C0F3074033490978B0
:102E40004843642190FBF1F000F0FF08404601F098
:102E50000FF905462C4850F82300C0B22B490978D9
:102E60004843642190FBF1F000F0FF08404601F078
:102E7000FFF80646244850F82300C0F307202349F2
:102E800009784843642190FBF1F000F0FF084046C8
:102E900001F0EEF8074609E01A48007830B9184802
:102EA000C05C0A2802D1002500260027380440EA29
:102EB000052030434DF82300002416E05DF8230080
:102EC0000121A140084038B11E20182101FB034117
:102ED0000F4A22F8110006E00C20182101FB0341E3
:102EE0000B4A22F81100601CC4B2182CE6DB581CF7
:102EF000C3B2052B91DB05B0BDE8F081BD01002018
:102F00009901002098010020180800209E0100204F
:102F1000280700202DE9F04707460C4615461E46B7
:102F200000BF00BFC5EBC500C0EBC510642190FB1E
:102F3000F1F000F0FF08C4EBC400C0EBC41090FB3C
:102F4000F1F000F0FF09C6EBC600C0EBC61090FB25
:102F5000F1F000F0FF0A0648007806490870534671
:102F6000424649463846FDF701FFBDE8F0870000BC
:102F7000970100209E01002070B505460C4604EB29
:102F80004400074E3044837804EB440030444278D8
:102F900004EB4400315C2846FFF7BCFF70BD000025
:102FA000A10100202DE9F04F93B0834616461F463D
:102FB000DDF87080BBF1000F01D1584800E05846A1
:102FC000044601201290002213463046394601F093
:102FD0006FF90BD22D2004F8010B0022504B304624
:102FE000394601F0A1F906460F4605E04D48006854
:102FF00010B12B2004F8010BB8F1080F0BD24A488E
:1030000000EBC80003C832463B46CDE9060101F09B
:1030100043F806460F46002505E0129800EB8000B5
:10302000400012906D1C4545F7D33046394601F0FB
:10303000E7F88146129801F027F9CDE904014846E6
:1030400001F022F932463B46CDE9000101F06AFA6F
:10305000CDE90201DDE9042301F066F9CDE90601BD
:1030600001F0CEF8824600250CE00A20B9FBF0F111
:1030700000FB1190303029466D1C08AA50540A20DC
:10308000B9FBF0F9B9F1000FEFD11DB9302004F808
:10309000010B08E005E0681E08A9085C04F8010BB4
:1030A0006D1E002DF7D1B8F1000F2AD02E2004F8A4
:1030B000010B00250CE00A20BAFBF0F100FB11A087
:1030C000303029466D1C08AA50540A20BAFBF0FA89
:1030D000BAF1000FEFD104E0302228466D1C08A998
:1030E0000A544545F8D31DB9302004F8010B08E017
:1030F00005E0681E08A9085C04F8010B6D1E002D90
:10310000F7D100202070BBF1000F01D1034800E08F
:103110005846044613B0BDE8F08F00004406002076
:103120000000F0BF680000202847000830B50146C5
:10313000012300200DE00C4601EBD4756D10A1EBCE
:10314000450201EBD175691002FB030003EB830418
:1031500063000029EFD130BD10B504464FF0804028
:10316000808840F008004FF0804188801D4800684A
:1031700040F080701B4908601B48C06943F2A051B1
:1031800008431949C8610846C06920F04000C86179
:103190000846C06940F01000C861144848620A2C13
:1031A00009D10846C06920F00300C8611048886250
:1031B000182008620BE0142C09D10B48C06920F0DC
:1031C00003000949C8610B488862782008620648F4
:1031D000C06940F003000449C8610C20FDF715FFE9
:1031E00010BD00001C380240006002403C0000405E
:1031F000F806002028070020002000BF05E000217D
:103200000B4A22F81010411CC8B21828F7DB012124
:10321000084A11708907098841F001014FF0804286
:10322000118000BF034909780029FBD170470000D5
:10323000F8060020BD0100201248006840F002009E
:10324000104908601048006840F400100E490860FA
:10325000081D008820F48060091D0880081D006892
:1032600040F40010091D0860081D006840F480103B
:10327000091D08600448406A40F4807102484162B8
:10328000704700001C3802400004024010B5254879
:10329000006840F0080023490860002022490870B7
:1032A0002248008840F2F2318843204908800846CD
:1032B000008840F00800088047F6FF401B4928318D
:1032C00008800020091D086018492431086017484B
:1032D0000C30008840F20111884314490C310880F9
:1032E0001248001D008820F008001049091D0880C0
:1032F0001A20FDF78AFE0D480C30008840F00100CE
:103300000A490C31088009481430008840F0010057
:10331000064914310880081F008820F00100091FA9
:10332000088010BD20380240BE010020000C014082
:103330001748006840F00100154908600807008838
:1033400040F2F2318843490708800846808840F0FF
:10335000080088800846808B40F06000888308461B
:10336000008C40F4807008840846808940F48070A6
:103370008881002008852720C8620846808A40F09E
:10338000010088820846008A20F001000882704708
:10339000243802400120074908708007008840F067
:1033A00001004FF08041088000BF024800780028EB
:1033B000FBD17047BD01002086B0FEF763FD002100
:1033C0000846FEF787FD044600BF21460120FEF7B0
:1033D00081FDB0F5C87FF8D36A48006840F001006D
:1033E00068490860002000900190034601220321F3
:1033F00002900A20FDF7E6FA0020009001900346B3
:103400000122072102900A20FDF7DCFA5E48008BBA
:1034100040F008005C4908830846008B40F08000BB
:1034200008830020FDF776F9044604F00F005749A1
:103430000870C4F303104870C4F303508870C4F3D9
:103440000320C870C4F303300871C4F3034048710B
:10345000C4F303608871FDF709FCFDF7FBFCFEF780
:1034600071FFFDF7A5FB4AA0FEF7B4FFFEF7DAF8FF
:10347000FFF74EF8FFF74CFCFFF786FC4BA0FEF77A
:10348000A9FF424841780320FFF776FD3F4988783D
:10349000FFF7BCFBFFF78AFC3C49C878FEF7E0FF6A
:1034A0003A490879FEF7F0FF38494879FEF7CAFF34
:1034B000FDF78AF845A0FEF78DFF4EA0FEF78AFFC4
:1034C0002F208DF81000E0B28DF81100200A8DF841
:1034D0001200200C8DF81300200E8DF814000A2025
:1034E0000F23052204A900900020FEF755FB00BF22
:1034F0002548008A00F001000028F9D100BFFDF73F
:1035000045FB054640480068C168284688471E4874
:10351000008A00F001000028F1D000210846FEF7E3
:10352000D9FC044626E021460120FEF7D3FC40F6F4
:10353000B83188421ED9FDF719F9FFF725FC5F2045
:103540008DF810000A200F23012204A9009000200A
:10355000FEF722FB2DA0FEF73DFF0B48808A20F0EE
:103560000800094988820846808A20F08000888205
:1035700000BFFEE70448008A00F001000028BED02A
:10358000D1E700001C380240000002401D0000206E
:103590005065726970686572616C7320696E6974D8
:1035A00069616C697A65642E0A000000457874656B
:1035B000726E616C206465766963657320696E69FB
:1035C0007469616C697A65642E0A000053797374BA
:1035D000656D2076616C75657320696D706F7274AE
:1035E00065642066726F6D20454550524F4D2E0A1E
:1035F0000A0000002D312D2048756E746572206D13
:103600006F64652E0A00000064000020506F77652B
:1036100072206F66662064657465637465642E202D
:1036200053797374656D206261636B656420757096
:103630002E20537769746368696E67206F66662E03
:103640000A00000010B50446012016494872012CFA
:1036500006D0022C1FD0042C21D1FCF7DFFF1EE086
:10366000FEF7DAFF0120FCF7D9FF00210220FFF767
:1036700083FC00210420FFF77FFCFFF797FB00206D
:103680000849487208A0FEF7A5FE104800680068C7
:103690000E49086003E00120FCF7C0FF00BF00BF37
:1036A00010BD0000C40600202D322D204C454420C2
:1036B000616E696D6174696F6E2073657474696E93
:1036C00067206D6F64652E0A000000006400002012
:1036D0003EB505461420FEF7BFFF012D25D0022D73
:1036E0006CD0042D20D1FEF797FF464800780128C2
:1036F00003DB00204349087004E042480078401C86
:10370000404908703F490878FFF7C6F93EA0FEF728
:1037100061FE3C4908780021FEF767FE3FA0FEF7F6
:1037200059FE0120FCF77AFF69E0FEF775FF0120E2
:10373000FCF774FFFFF748F90020FCF7EBFF0446A5
:1037400024F00F002F4A127840EA02010020FCF713
:10375000E9FF24F0F0002B49497840EA0114294898
:1037600041780320FFF708FC01210220FFF704FC49
:1037700001210420FFF700FCFFF718FB1F208DF844
:103780000400E0B28DF80500200A8DF80600200C38
:103790008DF80700200E8DF808000A200F2305225F
:1037A00001A900900020FEF7F7F91DA0FEF712FE18
:1037B0002348006800682249086020E0FEF72CFFDB
:1037C0000120FCF72BFF0F48007818B901200D49A4
:1037D000087004E00B480078401E0A490870094947
:1037E0000878FFF759F908A0FEF7F4FD05490878B5
:1037F0000021FEF7FAFD09A0FEF7ECFD00BF00BFB7
:103800003EBD00001D000020094C454420616E694A
:103810006D6174696F6E2023000000002E0A0000A5
:103820002D332D204C454420636F6C6F72207365DF
:103830007474696E67206D6F64652E0A0000000065
:10384000640000203EB505460320FFF7F7F8012D80
:1038500028D0022D6BD0042D23D1FEF7DDFE0120F0
:10386000FCF7DCFE45484078062803D10020434998
:10387000487004E041484078401C404948703F4847
:1038800041780320FFF778FBFFF790FA3CA0FEF7A2
:10389000A1FD3A4948780021FEF7A7FD3CA0FEF7BC
:1038A00099FD68E0FEF7B8FE0120FCF7B7FE0320A3
:1038B000FFF7B4F80020FCF72DFF044624F0F000D9
:1038C0002E4A527840EA02110020FCF72BFF24F028
:1038D000F0002A49497840EA011402210846FFF71E
:1038E0004BFB02210420FFF747FBFFF75FFA1F2085
:1038F0008DF80400E0B28DF80500200A8DF806006E
:10390000200C8DF80700200E8DF808000F200346CC
:10391000052201A900900020FEF73EF91DA0FEF748
:1039200059FD2548006800682349086023E0FEF738
:1039300073FE0120FCF772FE1048407818B906208B
:103940000E49487004E00D484078401E0B4948700D
:103950000A4841780320FFF70FFBFFF727FA08A07A
:10396000FEF738FD054948780021FEF73EFD08A026
:10397000FEF730FD00BF00BF3EBD00001D0000206F
:10398000094C454420636F6C6F72202300000000D7
:103990002E0A00002D342D204C45442062726967A8
:1039A00068746E6573732073657474696E67206DD7
:1039B0006F64652E0A000000640000203EB50546D5
:1039C000012D27D0022D65D0042D22D1FEF724FE33
:1039D0000120FCF723FE42488078062803D100200E
:1039E0003F49887004E03E488078401C3C4988701C
:1039F0003B498878FFF70AF9FFF7D8F939A0FEF7B5
:103A0000E9FC374988780021FEF7EFFC3AA0FEF781
:103A1000E1FC62E00120FCF701FE0020FCF77AFEE9
:103A2000044624F470002E4A927840EA02510020A5
:103A3000FCF778FE24F0F0002949497840EA0114A7
:103A400003210220FFF798FA03210420FFF794FADC
:103A5000FFF7ACF91F208DF80400E0B28DF80500E7
:103A6000200A8DF80600200C8DF80700200E8DF836
:103A700008000A200F23052201A900900020FEF76C
:103A80008BF81EA0FEF7A6FC2448006800682349B6
:103A9000086022E0FEF7C0FD0120FCF7BFFD1048E2
:103AA000807818B906200E49887004E00C488078A8
:103AB000401E0B4988700A498878FFF7A7F8FFF77E
:103AC00075F908A0FEF786FC054988780021FEF705
:103AD0008CFC09A0FEF77EFC00BF00BF3EBD0000CD
:103AE0001D000020094C4544206272696768746EAD
:103AF00065737320230000002E0A00002D352D2051
:103B0000416C61726D20746F6E65207365747469A9
:103B10006E67206D6F64652E0A000000640000204F
:103B20003EB50546FEF7C0FC012D23D0022D61D025
:103B3000042D7ED10120FCF771FD3F48C078052897
:103B400003D100203C49C87004E03B48C078401CC9
:103B50003949C8703849C878FEF782FC37A0FEF7AB
:103B600039FC3549C8780021FEF73FFC37A0FEF745
:103B700031FC5EE00120FCF751FD0020FCF7CAFD9E
:103B8000044624F470602C4AD27840EA02210020D6
:103B9000FCF7C8FD24F0F0002749497840EA0114F9
:103BA00004210220FFF7E8F904210846FFF7E4F9B1
:103BB000FFF7FCF81F208DF80400E0B28DF8050037
:103BC000200A8DF80600200C8DF80700200E8DF8D5
:103BD00008000A200F23052201A900900020FDF70C
:103BE000DBFF1BA0FEF7F6FB2148006800682049B8
:103BF00008601EE00120FCF711FD0F48C07818B9DD
:103C000005200D49C87004E00B48C078401E0A49E1
:103C1000C8700949C878FEF723FC08A0FEF7DAFB54
:103C20000549C8780021FEF7E0FB08A0FEF7D2FBAB
:103C300000BF00BF3EBD00001D00002009416C61B7
:103C4000726D20746F6E6520230000002E0A000044
:103C50002D362D20416C61726D20766F6C756D650F
:103C60002073657474696E67206D6F64652E0A0039
:103C7000640000203EB50546FEF716FC012D23D05A
:103C8000022D61D0042D7ED10120FCF7C7FC3F48F6
:103C90000079052803D100203C49087104E03B4825
:103CA0000079401C3949087138490879FEF7ECFB66
:103CB00037A0FEF78FFB354908790021FEF795FB09
:103CC00037A0FEF787FB5EE00120FCF7A7FC002091
:103CD000FCF720FD044624F470402C4A127940EA97
:103CE00002310020FCF71EFD24F0F000274949783E
:103CF00040EA011405210220FFF73EF905210420C6
:103D0000FFF73AF9FFF752F81F208DF80400E0B2F0
:103D10008DF80500200A8DF80600200C8DF80700AC
:103D2000200E8DF808000A200F23052201A900901B
:103D30000020FDF731FF1BA0FEF74CFB2148006877
:103D40000068204908601EE00120FCF767FC0F486E
:103D5000007918B905200D49087104E00B48007975
:103D6000401E0A49087109490879FEF78DFB08A031
:103D7000FEF730FB054908790021FEF736FB08A065
:103D8000FEF728FB00BF00BF3EBD00001D00002065
:103D900009416C61726D20766F6C756D6520230032
:103DA0002E0A00002D372D20416C61726D20746544
:103DB0006D706F2073657474696E67206D6F6465D4
:103DC0002E0A0000640000203EB50546FEF76CFB9D
:103DD000012D23D0022D67D0042D1ED10120FCF728
:103DE0001DFC42484079092803D100203F49487111
:103DF00004E03E484079401C3C4948713B494879C1
:103E0000FEF720FB3AA0FEF7E5FA38494879002191
:103E1000FEF7EBFA3AA0FEF7DDFA64E00120FCF7CA
:103E2000FDFB0020FCF776FC044624F470202F4AAA
:103E3000527940EA02410020FCF774FC24F0F000C3
:103E40002A49497840EA011406210220FFF794F834
:103E500006210420FFF790F8FEF7A8FFFEF754FBB9
:103E600022498879FEF7B2FB1F208DF80400E0B2EA
:103E70008DF80500200A8DF80600200C8DF807004B
:103E8000200E8DF808000A200F23052201A90090BA
:103E90000020FDF781FE1BA0FEF79CFA2048006879
:103EA00000681F4908601EE00120FCF7B7FB0F48BF
:103EB000407918B909200D49487104E00B48407950
:103EC000401E0A49487109494879FEF7BBFA08A023
:103ED000FEF780FA054948790021FEF786FA08A026
:103EE000FEF778FA00BF00BF3EBD00001D000020B5
:103EF00009416C61726D2074656D706F2023000044
:103F00002E0A00002D382D204D75736963207365CE
:103F10007474696E67206D6F64652E0A000000007E
:103F2000640000203EB50546012D23D0022D67D048
:103F3000042D1ED10120FCF771FB42488079022834
:103F400003D100203F49887104E03E488079401C3D
:103F50003C4988713B498879FEF738FB3AA0FEF767
:103F600039FA384988790021FEF73FFA39A0FEF77F
:103F700031FA64E00120FCF751FB0020FCF7CAFB9A
:103F8000044624F470202F4A527940EA024100206E
:103F9000FCF7C8FB24F0F0002A49497840EA0114F4
:103FA00000231A4619460220FEF7B4FF00231A46E2
:103FB00019460420FEF7AEFFFEF7F8FEFEF746FBBB
:103FC0001F208DF80400E0B28DF80500200A8DF85E
:103FD0000600200C8DF80700200E8DF808000A203E
:103FE0000F23052201A900900020FDF7D5FD1AA09E
:103FF000FEF7F0F91D48006800681C4908601EE0E3
:104000000120FCF70BFB0F48807918B902200D49FD
:10401000887104E00B488079401E0A49887109497B
:104020008879FEF7D3FA08A0FEF7D4F90549887914
:104030000021FEF7DAF907A0FEF7CCF900BF00BFB8
:104040003EBD00001D000020094D757369632023EB
:10405000000000002E0A00002D312D2048756E74DE
:104060006572206D6F64652E0A00000064000020F8
:10407000010900F00F0241EA021000F0CC018910A2
:1040800000F0330241EA820000F0AA01491000F07A
:10409000550241EA4200704710B591EA030F48BF4C
:1040A00083F0004300F15282841A71EB030C05D2B5
:1040B000121943EB0C03001B61EB0C01DFF824E148
:1040C0004FEA1154A4EB135C1EEA430F18BF9EEA9B
:1040D000445F73D023EA0E03DCF1200E21EA045181
:1040E00043F4801332D322FA0CFE10EB0E0023FAB5
:1040F0000CFE41EB0E01CCF1200E03FA0EFE10EB8C
:104100000E0051F10001B1F5801FCCF1200E32D22A
:1041100001EB045112FA0EF2BDE8104058BF70478F
:10412000401C38BF5FEA420218BF7047002814BF26
:1041300020F0010041F100014FEA410313F5001F97
:1041400038BF7047A1F1C04100F0E6B9012A43EB46
:104150000302ACF1200CDCF11F0E32BF4FF0000E59
:1041600023FA0CF310EB030041EB0451B4EB115FA5
:10417000D0D0A1EB045101F5801149085FEA30006D
:1041800001EB04510ED350F1000038BF12FA0EFEBD
:1041900008D1BDE81040C9E7401C38BF5FEA4202C1
:1041A000CAD1C3E7BDE810404FEA410313F5001F31
:1041B00038BF7047A1F1C04100F0AEB99EEA445F3C
:1041C00008D011EA5E0FBDE8104004BF01F00041C5
:1041D00000207047BDE8104070B500F04FF900BFF7
:1041E00064FBBE3E0000E0FF491058BFC1F14041F2
:1041F0005B1058BFC3F140438B42EFF30080704720
:104200004FEA1153A3F58063D3F11E03A8BFD3F186
:10421000200C08DB4FF0004242EAC12252EA505221
:1042200032FA03F0704709420BD4102BC4BF0020B0
:10423000704703F5787CBCF1FF3F05D04FF0FF30AD
:1042400070474FF00000704770B500F017F900BFDD
:104250004992248000207047F0E710F0004248BFE8
:104260004042B0FA80F310FA03F10AD0C3F11D0303
:1042700003F580634FEA415002EB035202EBD12178
:1042800070474FF000007047B0FA80F310FA03F166
:104290000AD0C3F11D0303F580634FEA41504FEA92
:1042A000035202EBD12170474FF00000704700002D
:1042B00051EA030C17D41CF5801F58BFBCF5801FB2
:1042C00000F10680994218BF704708BF90427047BE
:1042D00007D711F5801F58BF13F5801F19D49942D5
:1042E0007047894270471CF5801F08D5BCF5801FB8
:1042F000F7D58B4218BF704708BF824270474FF412
:10430000001C1CEB410F38BF1CEB430F01D28B424A
:10431000704770B500F0B2F8922449004FF0005198
:104320004FF08053FFF760BFDFF848C170B51CEA5B
:10433000111E1EBF1CEA13159EEA0C0F95EA0C0F06
:1043400000F06F8081EA030423EA4C134EEAD47E26
:1043500021EA4C1141F4801143F48013AE44A1FBD7
:10436000024CA0FB0365AEF17F7E361955EB0C05C0
:10437000A1FB034C4CF10003A0FB021C16EB0C0646
:10438000654153F10003094218BF46F0010613F4DA
:10439000007F0BD14FEA03314FEA0530340341EA85
:1043A000155140EA16506FF003020AE04FEAC321AC
:1043B0004FEAC520F40241EA555140EA56506FF0E9
:1043C000020202EB2E4201EB025585EACE710AD0C1
:1043D0005FEA440C18BF24F0004450F1000041F1A2
:1043E000000120EAD47040F2FE7C624500D270BD2C
:1043F000A84214BF4FF080444FF04044002E08BF45
:104400000024BEF1806FA8BFA1F1C041BDE870409B
:1044100080F282804FF0000001F1C04101F00041C4
:1044200070479EEA0C0F0CEA131518BF95EA0C0FA3
:1044300006D04FF0000081EA030E0EF0004170BD7F
:1044400000F01CF88900013E00F007B800F009B840
:104450004FEA430C5FEA5C5C08D081EA030100F09C
:104460005BB84FEA410C5FEA5C5CF6D14FF00000AC
:10447000014970470000FF070000F87F0EF1020EAF
:104480002EF0030E5EF8046B364205D4012A43EB8E
:10449000030515F5001F12D8012841EB010C1CF58E
:1044A000001F0CD80ED14FEAD17C15F5001F0CEB84
:1044B0004C0C0CF1020C08BF4CEBD37C04E04FF029
:1044C000080C01E04FEAD37C0CEB4C0526FA05F60C
:1044D00006F00706B6F1040C06D20EEB860CBDE81A
:1044E00070404CF0010C6047DFE80CF0090B020251
:1044F0004FF000414FF00000A1F5002170BD1946BA
:104500001046012851EB010418BFD4F5001484BFF4
:10451000002001F0004170BD0808A0F500114FEA2D
:104520003101704791EA030F10B581F000413FF56A
:10453000BBAD83F0004300F009B8000010B591EA6C
:10454000030F48BF83F000433FF5AEAD841A71EB13
:10455000030C07D212198CF0004C43EB0C03001B28
:1045600061EB0C01DFF8A4E14FEA1154A4EB135CFA
:104570001EEA430F18BF9EEA445F00F0B08023EAB2
:104580006E03524221EA0451C3EB6E0338BF5B1E37
:10459000DCF1200E25D322FA0CFE10EB0E0043FABC
:1045A0000CFE41EB0E01CCF1200E03FA0EFE10EBD7
:1045B0000E0051F10001CCF1200E29D412FA0EF2B6
:1045C00001EB0451BDE8104058BF7047401C1CBFB0
:1045D000B2F1004F704700280CBF491C20F00100C9
:1045E000704712EB020E43EB030218BF4FF0010EAF
:1045F0004EEA4202ACF1200CDCF11E0E54D943FA13
:104600000CFE10EB0E0051F1FF31CCF11E0ED5D592
:104610000EF1010E12FA0EFE404141EB010101EBD9
:10462000445C5FEA5C5C10D910EBDE7001EB045176
:1046300038BFBEF1004FBDE8104018BF70470028DA
:104640000CBF491C20F00100704730D24FEAD42C37
:1046500011F5001124F400641BD0B1FA81F20B3A79
:10466000A41AA41ED2F12003914030FA03F3194397
:10467000904001EBCC71002C01EB0451BDE81040DF
:10468000A8BF704701F1C0414FF0000001F00041A8
:104690007047B0FA80F310FA03F100D110BDE41AAC
:1046A000173C4805C90AE4E701EB045110BD491065
:1046B00001EB0451BDE810404FEA300002E04FF03A
:1046C000000170474A0008BF0042F8D0B2F5001F51
:1046D00028BF704701F000414FF0000070479EEA8C
:1046E000445F07D011EA5E0FBDE8104004BF00210F
:1046F00000207047BDE8104070B5FFF7BFFE00BF57
:1047000040DFF63E83F00041104670470000E0FFB6
:1047100003006400320032000A000A000A000A00A6
:104720000A00030000000000000000000000E03F5D
:104730009A9999999999A93F7B14AE47E17A743F68
:10474000FCA9F1D24D62403F2D431CEBE2360A3FFB
:10475000F168E388B5F8D43E8DEDB5A0F7C6A03E6C
:1047600048AFBC9AF2D76A3E884700080000002094
:10477000C00100003001000850480008C0010020BE
:10478000E00C00008C01000811800D48E8010304D2
:1047900006080C101820301B010213041F0708091B
:1047A0001310472A08040137100D404A454F4A5458
:1047B0004F59545E59631631323435FF126412C8B2
:1047C00018122C019001F4015802BC02200384034A
:1047D000E80364121FF401BC02FFFF311363FF12F0
:1047E000FA1CE803FA066902C90E49101AF4320DE0
:1047F00010E204F40120091A2E14FFFF5412541A77
:1048000059042179081C5963680909121713FF3EDE
:1048100089021AE8AA127C29020D10E803F4010AA1
:10482000A92C14FFFF6329026F5440454A4F3105FC
:104830004B454F16D2FF33016449041D646464374D
:1048400005290A1F050F1923374B17020001000025
:04000005080001D915
:00000001FF
