:020000040800F2
:10000000200E0020D9010008E1010008E3010008EA
:10001000E5010008E7010008E90100080000000010
:10002000000000000000000000000000EB010008DC
:10003000ED01000800000000EF010008051D0008A8
:10004000F3010008F3010008F3010008F3010008C0
:10005000F3010008F3010008F3010008F3010008B0
:10006000F3010008F3010008F3010008F3010008A0
:10007000D5060008F3010008F3010008F3010008A9
:10008000F3010008F3010008F3010008F301000880
:10009000F3010008F3010008F30100083D0800081F
:1000A000F3010008F3010008A11D0008F301000896
:1000B000F3010008DD1D0008F3010008F30100084A
:1000C000F3010008F3010008F3010008951A000885
:1000D000F3010008A51F0008F3010008F301000860
:1000E000D9070008F3010008F3010008811F000888
:1000F000F301000800F002F800F05EF80AA090E8B2
:10010000000C82448344AAF10107DA4501D100F0D2
:1001100053F8AFF2090EBAE80F0013F0010F18BF41
:10012000FB1A43F001031847A0330000C03300005E
:100130000A444FF0000C10F8013B13F0070408BF0D
:1001400010F8014B1D1108BF10F8015B641E05D0AB
:1001500010F8016B641E01F8016BF9D113F0080F60
:100160001EBF10F8014BAD1C0C1B09D16D1E58BFF2
:1001700001F801CBFAD505E014F8016B01F8016B29
:100180006D1EF9D59142D6D370470000002300249C
:1001900000250026103A28BF78C1FBD8520728BF97
:1001A00030C148BF0B6070471FB59DE8030000F0E9
:1001B00081F81FBD10B510BD00F000F91146FFF722
:1001C000F3FF02F03DFE00F01EF903B4FFF7F2FF6B
:1001D00003BC00F04BF9000009488047094800477C
:1001E000FEE7FEE7FEE7FEE7FEE7FEE7FEE7FEE7E7
:1001F000FEE7FEE704480549054A064B7047000044
:10020000391D0008F500000820080020200E0020FD
:10021000200A0020200A002070B5064600F02EF8C3
:10022000056806F10B0020F00704B4429CBF0020D3
:1002300070BD2B466A68BAB11068A04210D304F1B1
:10024000080188423CBF5068586007D351681019B4
:1002500041601168091B016058601460101D70BD79
:1002600013465268002AE7D12146284600F00EF8CE
:100270000028DED170BD7047704770470048704756
:10028000C4070020704770477047704738B5044670
:100290000A4600206946AFF30080002808BF38BD39
:1002A00002460099204600F067F8012038BD012081
:1002B00000F07CB8F8B5AFF30080054600200C468E
:1002C000102000BF0646A819A0420DD93246694643
:1002D0000020AFF30080070008BF00F067F8009827
:1002E000A04218BF0546C419FFF7C8FF05600746BE
:1002F000F01D20F007004619284600F00AF8B44225
:1003000008BFF8BDA21B31463868BDE8F84000F0D0
:1003100033B800210160C0E9011070471020704718
:1003200070B50446051FFFF7A9FF0068002C14BF35
:10033000446870BD002C18BFAC423CBF20466468C6
:10034000F8D301680A18AA4218BF456003D12A6889
:1003500005461144016028684119A1421CBF6C6028
:1003600070BD6168696021680844286070BD000044
:1003700000487047BC070020034640688C460028B0
:1003800018BF88423CBF03464068F8D31868184439
:10039000884207D00CF1030020F00700001D411A2D
:1003A000521A0146081D0A60FFF7BABF10B500F0E7
:1003B00035F8BDE8104000F02CB870477546FFF7DF
:1003C000D7FFAE4605006946534620F00700854634
:1003D00018B020B5FFF70EFFBDE820404FF0000633
:1003E0004FF000074FF000084FF0000B21F007011D
:1003F000AC46ACE8C009ACE8C009ACE8C009ACE860
:10040000C0098D4670470446AFF300802046FFF7D1
:10041000DCFE002801D000F029B8704710B5012893
:1004200005D0002103A000F027F8012010BD09A18C
:10043000F8E7000053494752544D454D3A204F7557
:1004400074206F662068656170206D656D6F7279CC
:10045000000000003A2048656170206D656D6F7284
:100460007920636F72727570746564000149182099
:10047000ABBEFEE72600020070B505460C460A201A
:1004800000E06D1C00F011F835B128780028F8D193
:1004900002E0641C00F009F814B120780028F8D1BB
:1004A000BDE870400A20AFF3008008B569468DF8BA
:1004B00000000320ABBE08BD0F48006840F00200FA
:1004C0000D4908600D48006840F000600B49086065
:1004D000081D008820F40050091D0880081D0068D0
:1004E00040F04060091D08600448406A40F4401133
:1004F00002484162704700001C380240000402407C
:100500001E48006840F004001C4908601C48008830
:1005100040F2F23188431A4908800846008840F0CA
:100520004400088016481830008840F070001449D4
:100530001831088012482030008840F0030010492C
:100540002031088063200E49283108800020091DD1
:1005500008600B49343108600949243108600848B3
:100560001430008840F00100054914310880081F4C
:10057000008820F00100091F0880704720380240E1
:100580000008014009480A4908600A4848600A48CA
:1005900088600A490648C160094805490861094957
:1005A000034841610020024948767047A8000020B6
:1005B0004C060020B2000020B800002014010020EA
:1005C000420100207C0100200020114908701149DF
:1005D00008601049083108600E4910310860012098
:1005E0000D49086000200C49083908600948243882
:1005F000008820F0010007492439088006482C387B
:10060000008820F0010004492C3908807047000060
:1006100080000020240801402C04004000B5024660
:1006200000F02EFA0A49086000200A4908600A49C9
:1006300008600A4908600A4908700A48006800888A
:100640000949086012B101200849087000BD000086
:1006500030000020240000202C0000202800002072
:10066000380000203C000020340000203900002029
:100670000848006840F00100064908600648006824
:1006800040F44070044908600846806840F44070B7
:10069000886070471C380240000002400B48006828
:1006A00040F00050094908600948006820F0060041
:1006B00007490860002006491031086004480068B6
:1006C00040F00100024908607047000024380240F1
:1006D000007400400D48006800F02000A8B10B48ED
:1006E000406840F01000094948600020084908703F
:1006F0004FF08040008A20F001004FF080410882D6
:100700000846008820F00100088070470060024021
:10071000C3010020014602480A1810687047000013
:100720000000080810B502460B460E48141872B6B1
:1007300000F03EF80C48006840F480700A490860F8
:10074000236000BF08481430006800F00100002852
:10075000F8D10548006840F001000349086062B61E
:1007600010BD000000000808043C024000B50F481E
:1007700000780E4A527840EA02100C4A927840EA19
:1007800002500A4AD27840EA0220084A127940EA26
:100790000230064A527940EA0240044A927940EA1D
:1007A00002610020FFF7BEFF00BD00001D00002019
:1007B0000648074908600748086000BF0448083831
:1007C000006800F001000028F8D17047EFCDAB8938
:1007D0000C3C02400504030210B51648006800F402
:1007E000005028B300220121104600F09DFDC4B244
:1007F00004F01C00102815D100F0F8FE00F038FFBE
:1008000000F08CFE0C4890F8410018B10021084619
:1008100000F0A4FF084890F8420008B900F046FA3A
:1008200000F0FFFE0348006840F4005001490860F2
:1008300010BD0000140401401A02002010B5244825
:10084000006800F04000002840D02248407900288D
:1008500036D02048007940B31E480168012001F0DD
:10086000AFF9B0F57A7F1CD21A480079401C1949BB
:1008700008710846007904280CDD002016494862FA
:100880000846008840F001000880042011490871E2
:1008900001F028FC0021084601F092F90D4908609A
:1008A0000EE000200B4908710AE00A480079401C5C
:1008B000084908710021084601F082F905490860DD
:1008C0000348006840F040000149086010BD000086
:1008D0001404014070000020001000402DE9F04396
:1008E0000546DDE90767099C0A2D04D00B2D0ED0C3
:1008F0000C2D24D117E0DFF878C1DCF800C04CF0F3
:10090000010CDFF86C81C8F800C05A4817E0DFF826
:1009100060C1DCF800C04CF0020CDFF85481C8F86C
:1009200000C055480BE0DFF848C1DCF800C04CF0CF
:10093000040CDFF83C81C8F800C0504800BF00BF7D
:10094000D0F800C04FEA41094FF0030808FA09F84F
:100950002CEA080CC0F800C0D0F80CC04FEA4109DE
:100960004FF0030808FA09F82CEA080CC0F80CC08C
:10097000D0F800C04FEA410802FA08F84CEA080C27
:10098000C0F800C0012A03D0022A01D0002A6CD18D
:10099000D0F80CC04FEA410803FA08F84CEA080CFA
:1009A000C0F80CC0012A01D0022A5ED1B0F804C000
:1009B0004FEA41094FF0010808FA09F82CEA080C3F
:1009C000A0F804C0D0F808C04FEA41094FF003086E
:1009D00008FA09F82CEA080CC0F808C0B0F804C0FE
:1009E00006FA01F84CEA080CA0F804C0D0F808C0D8
:1009F0004FEA410807FA08F84CEA080CC0F808C0AA
:100A0000022A32D1082916DAD0F820C04FEA81092B
:100A10004FF00F0808FA09F82CEA080CC0F820C0BB
:100A2000D0F820C04FEA810804FA08F84CEA080C14
:100A3000C0F820C019E0D0F824C0A1F108084FEA9E
:100A400088094FF00F0808FA09F82CEA080CC0F8DA
:100A500024C0D0F824C0A1F108084FEA880804FA9D
:100A600008F84CEA080CC0F824C0BDE8F083000088
:100A70001C3802400000024000040240000802400E
:100A80000848008AC0F340000649098A01F00401C1
:100A900040EA51000349098A01F0080140EA510087
:100AA00070470000000002400648006838B1054861
:100AB0000068401E03490860034800687047002032
:100AC000FCE7000028000020240000200EB50020D4
:100AD0000090019001230246062102900A20FFF7B0
:100AE000FDFE2548006840F00100234908602348C6
:100AF000C0682249C8602248006840F04000204990
:100B000008601F480C30006840F040001C490C3160
:100B100008600121172000F00FFA172000F0F6F905
:100B20001548001D006840F010001349091D0860B9
:100B30001448008840F008001249088042F2107002
:100B4000C8624FF47A5008850846808940F0010059
:100B500088810846808A40F0010088820846008A21
:100B600020F00100088201212B2000F0E5F92B2064
:100B700000F0CCF90EBD000020380240000001401A
:100B800000040140001000400EB51248006840F01B
:100B900001001049086000200090019003460246C1
:100BA000012102900A20FFF799FE00200090019099
:100BB00003460246022102900A20FFF78FFE002022
:100BC0000090019003460246032102900A20FFF79D
:100BD00085FE0EBD1C38024000B5FFF751FF0346ED
:100BE00020480068984203D00020FFF717FD00BDA1
:100BF00013B11D48007820B113B900201A490870BC
:100C0000F5E71A480068401C184908601848036056
:100C10000846006817490968884220D316480068CA
:100C2000401C1549086015480068154908600846C9
:100C3000016814480078401C31F8100020B11148B8
:100C40000078401C0F4908700D4800680D4909786C
:100C500030F811000749096808440649086000BFD8
:100C6000C5E7000030000020390000202C000020E3
:100C70002400002034000020280000204000002034
:100C80003C00002038000020F0B500241D0245EA99
:100C9000024545EA01040026451E034F47F825603A
:100CA0003E4646F82540F0BD940700201CB52D486F
:100CB0000078062844D006DC032823D004282DD051
:100CC00005284DD134E0072842D0FF2848D1002024
:100CD000FFF720FD0446E0B28DF80400200A8DF8ED
:100CE0000500200C8DF80600200E8DF807000A2064
:100CF0001C49009091F83E000F23042201A900F046
:100D0000C1FD2DE0174840781749487008464178E2
:100D1000032001F04FFF01F067FE21E01148407809
:100D200011498870887801F08FFD01F05DFE17E0B1
:100D30000C4840780C49C870C87801F0AFF90FE052
:100D40000848407808490871087901F0BBF907E0C4
:100D50000448407804494871487901F091F900BF8E
:100D600000BF1CBD1A0200201D00002010B510207D
:100D7000FFF752FA544908601020FFF74DFA534923
:100D800008601020FFF748FA514908601020FFF76B
:100D900043FA504908601020FFF73EFA4E490860B8
:100DA0001020FFF739FA4D4908601020FFF734FA98
:100DB0004B4908601020FFF72FFA4A490860434862
:100DC000006841490968086000203F490968886057
:100DD0003D490968486044483B490968C8603C4847
:100DE00000683A4909680860002038490968886045
:100DF0003649096848603D4834490968C860354843
:100E00000068334909680860002031490968886032
:100E10002F490968486036482D490968C8602E483E
:100E200000682C490968086000202A490968886020
:100E30002849096848602F4826490968C86027483A
:100E4000006825490968086000202349096888600E
:100E500021490968486028481F490968C860204836
:100E600000681E490968086000201C4909688860FC
:100E70001A4909684860214818490968C860194832
:100E800000681749096808600020154909688860EA
:100E90001349096848601A4811490968C8600A4836
:100EA000006810490968086000200E4909688860D8
:100EB0000C490968486013480A490968C860024833
:100EC00000681149086010BD44000020480000205F
:100ED0004C0000205000002054000020580000204A
:100EE0005C00002060000020812F0008D52F000842
:100EF0009D30000851310008F53100089532000896
:100F000035330008E13300086400002000F01F02C0
:100F1000012191404209920002F1E022C2F8001141
:100F2000704700F01F02012191404209920002F136
:100F3000E022C2F80011704710B5002807DA0A074E
:100F4000140E054A00F00F031B1FD45403E00A07D8
:100F5000130E024A135410BD18ED00E000E400E047
:100F60000146064890F83E00884205D1034890F8B3
:100F7000420008B1012070470020FCE71A0200205F
:100F80000EB52548006840F00300234908600020A2
:100F90000090019003460122092102900A20FFF7E8
:100FA0009DFC0520012100221346CDE9002102907D
:100FB000022203210B20FFF791FC052001210022D2
:100FC0001346CDE900210290022201460B20FFF7D3
:100FD00085FC0520012100220B46CDE9002102906D
:100FE000022204210B20FFF779FC002000900190E1
:100FF000034601220F2102900A20FFF76FFC0748E9
:10100000808A40F40040054988820548008820F025
:101010004000034908800EBD1C3802400000024019
:10102000003001403EB500F043FB00BFAA222F2153
:10103000012000F079F900222F21104600F074F908
:10104000AA28F3D100BF55222F21012000F06CF90E
:1010500000222F21104600F067F95528F3D1002215
:101060000121104600F060F904220121084600F039
:101070005BF900220121104600F056F900220221FE
:10108000012000F051F902220321012000F04CF967
:1010900040220421012000F047F90322052101200C
:1010A00000F042F933220621012000F03DF9D92257
:1010B0000721012000F038F900220821012000F06A
:1010C00033F900220921012000F02EF942221921D2
:1010D000012000F029F952222521012000F024F9F5
:1010E00077222621012000F01FF9002000900190B6
:1010F000012302460D2102900C20FFF7EFFB61480F
:10110000006840F001005F4908605F48406940F0B6
:1011100020015D4841615D48006840F400505B4932
:1011200008605A480830006840F4005057490831B8
:10113000086028200121002807DA0A07140E544A03
:1011400000F00F031B1FD45403E00A07130E514A8B
:10115000135400BF282000F01F02012191404209D2
:10116000920002F1E022C2F8001100BF00200090BE
:101170000190012302460B2102900846FFF7AEFBC7
:10118000002000900190012302460C2102900B20C8
:10119000FFF7A4FB002000900190012302460E21DE
:1011A00002900B20FFF79AFB002000900190012392
:1011B00002460F2102900B20FFF790FB00200090C9
:1011C000019001230246082102900A20FFF786FBC6
:1011D00010222821012000F0A7F8DC22292101207B
:1011E00000F0A2F888222E21012000F09DF82D2287
:1011F0002F21012000F098F864223021012000F016
:1012000093F890223721012000F08EF842223821F5
:10121000012000F089F88F223C21012000F084F8A1
:1012200012223D21012000F07FF830226F210120A1
:1012300000F07AF818A000F02DF90F2213210120F8
:1012400000F072F89F221121012000F06DF80120BA
:1012500000F0C2FB98220D21012000F065F8182251
:101260000E21012000F060F89C220F21012000F0E7
:101270005BF801200D4981F8460000F0D2F9012009
:101280003EBD000020380240000001400004014043
:1012900018ED00E000E400E046697368696E674D90
:1012A0006F6E737465727321000000001A020020D3
:1012B0000648006840F480500449086004480088EB
:1012C00040F6243108430249088070472038024024
:1012D000003001401349098821F40061114A11804E
:1012E00000BF1049098901F080010029F9D10D4999
:1012F000888100BF0B49098901F001010029F9D05B
:1013000008498989C8B200BF0649098901F08001EE
:101310000029F9D10349098841F40061014A11808B
:10132000704700000030014010B5034613B1012B97
:101330007ED146E04348008840F04000414C208088
:101340004148808A20F400403F4CA0823D4880897B
:10135000C2B200BF3B48008900F002000028F9D06B
:1013600000BF3848008900F080000028F9D140EA29
:101370000120344CA08100BF3248008900F00200F7
:101380000028F9D000BF2F48008900F00100002894
:10139000F9D02C488089C2B200BF2A48008900F0E9
:1013A00080000028F9D12848808A40F40040264C6B
:1013B000A0822448008820F04000224C2080104663
:1013C00010BD2048008840F040001E4C20801E4880
:1013D000808A20F400401C4CA08200BF194800897C
:1013E00000F002000028F9D000BF1648008900F084
:1013F00080000028F9D141F0800042EA0020114C21
:10140000A08100BF0F48008900F002000028F9D039
:1014100000BF0C48008900F080000028F9D10A487C
:10142000808A40F40040084CA0820648008800E012
:1014300004E020F04000034C208000BF00BF00BF4C
:10144000BEE70000003001400000024070B50446D5
:101450000D46002221461046FFF766FF2843C6B21C
:10146000324621460120FFF75FFF70BD00B5002224
:1014700001211046FFF758FF00F01000102807D098
:10148000002000F0D8F810F15A0F01DA012000BD59
:101490000020FCE730B50446012000F09DFA44B37B
:1014A0001848008840F04000164908801648808A95
:1014B00020F4004014498882BE20FFF70BFF00256E
:1014C00004E0605DFFF706FF681CC5B2102DF8DB75
:1014D0000D48808A40F400400B4988820948008802
:1014E00020F04000074908800846008820F04000AE
:1014F00008800CB1012000E0002001463D20FFF7EC
:10150000A5FF30BD003001400000024010B5FFF7DC
:1015100037FDFFF7CDFEFFF785FD10BD30B5304834
:10152000008840F040002E4908802E48808A20F430
:1015300000402C4988820020FFF7CCFE0020FFF7F6
:10154000C9FE294981F840000020FFF7C3FE264963
:1015500081F83F00084690F84000C01E81F83D0029
:101560000020FFF7B7FE204981F83E000020FFF77A
:10157000B1FE054605F080001B4981F8420005F0E8
:10158000400081F84100002406E00020FFF7A2FEA1
:1015900015490855601CC4B2134890F83D00A0429C
:1015A000F3DC114890F83D003D2805DA00200E4993
:1015B00091F83D100C4A50540A48808A40F400408B
:1015C000084988820648008820F0400004490880C5
:1015D000002000F030F80449A1F8440030BD0000BC
:1015E00000300140000002401A02002000B5242211
:1015F00001210846FFF798FE042201210846FFF763
:1016000093FE04E0042201210846FFF78DFE00222C
:1016100001211046FFF788FE00F01C000428F1D1DC
:1016200000BD00B5012000F0D7F940220121084695
:10163000FFF77AFE00BD30B5044600256CB10121EC
:101640002320FFF703FF00BF002223211046FFF7EE
:101650006BFE00F002000028F6D000222421104684
:10166000FFF762FE404205B26D10284630BD000013
:1016700000B500200D4981F83D0081F83E0081F859
:101680003F0081F8400081F8410081F84200A1F854
:101690004400002228211046FFF746FE00F0040017
:1016A00018B104213D20FFF7D1FE00BD1A02002031
:1016B0003EB50020009001900346012209210290CE
:1016C0000A20FFF70BF91248808A40F40070104995
:1016D00088820021084600F073FA044600BF2146C4
:1016E000012000F06DFA0028F9D00948808A20F422
:1016F0000070074988820021084600F061FA04461C
:1017000000BF2146012000F05BFA0528F9D33EBD59
:10171000000002402DE9F84304460D4616461F46D8
:1017200004213D20FFF792FE0021084600F048FA10
:10173000804600BFFFF79AFE30B94146012000F015
:101740003FFAB0F57A7FF5D300203B463246294672
:101750000090204600F01CF8BDE8F883F8B5044678
:101760000D460A4890F83E60B0F9447004213D20CF
:10177000FFF76CFE012000232A46214600903046E8
:1017800000F006F80148A0F84470F8BD1A020020E5
:101790002DE9F84F8246884614469946DDF828B070
:1017A000012000F019F90021084600F0AFF83D2CA7
:1017B00000DD3D24BBF1000F01D0802603E0B9F12C
:1017C000000F00D040262B48008840F040002949F7
:1017D00008802948808A20F4004027498882802098
:1017E000FFF778FDE11CC8B2FFF774FD5046FFF724
:1017F00071FD224991F84600FFF76CFD3046FFF776
:1018000069FD002505E018F80500FFF763FD681C79
:10181000C5B2A542F7DB1848808A40F4004016495B
:1018200088821448008820F0400012490880042073
:1018300000F0D2F80021084600F0C2F9009000BF85
:101840000F48008800F4005030B90120009900F0E2
:10185000B7F9B0F57A7FF3D30948008800F4005057
:1018600008B1012700E00027012000F0B5F8384654
:10187000BDE8F88F00300140000002401A0200204D
:10188000100802402DE9F04706460F4690461C46D8
:10189000DDF82090FFF7AAFE012000F09DF800255A
:1018A0002BE00123424639463046FFF733FF002044
:1018B000154981F84200032000F08EF840210020F5
:1018C00000F024F80021084600F07AF9824609E089
:1018D0003046FFF745FB28B1012000F07DF80120DC
:1018E000BDE8F0875146012000F06AF94845EFD382
:1018F000012000F071F8681CC5B2A542D1DDFFF7E8
:1019000090FE0020ECE700001A02002070B50546AA
:101910000C46062D5ED2DFE805F0031221303F4E63
:10192000002225211046FFF7FFFC20F0C0002043D5
:10193000C6B2324625210120FFF7F6FC4AE000221C
:1019400025211046FFF7F0FC20F030002043C6B2FE
:10195000324625210120FFF7E7FC3BE0002225214C
:101960001046FFF7E1FC20F00C002043C6B23246DF
:1019700025210120FFF7D8FC2CE00022252110466C
:10198000FFF7D2FC20F003002043C6B232462521E7
:101990000120FFF7C9FC1DE0002226211046FFF7B9
:1019A000C3FC20F0C0002043C6B2324626210120ED
:1019B000FFF7BAFC0EE0002226211046FFF7B4FC28
:1019C00020F030002043C6B2324626210120FFF726
:1019D000ABFC00BF00BF70BD30B50446052C4DD236
:1019E000DFE804F03F3021120300002201211046FD
:1019F000FFF79AFC00F0E30040F00C052A460121B5
:101A00000846FFF791FC39E0002201211046FFF75C
:101A10008BFC00F0E30040F010052A460121084647
:101A2000FFF782FC2AE0002201211046FFF77CFC30
:101A300000F0E30040F008052A4601210846FFF7C0
:101A400073FC1BE0002201211046FFF76DFC20F023
:101A50001C00001DC5B22A4601210846FFF764FCA0
:101A60000CE0002201211046FFF75EFC00F0E305C8
:101A70002A4601210846FFF757FC00BF00BF00BF00
:101A80002CB90348008A00F480700028F8D030BDDB
:101A9000000002403349098901F0010100295FD0AB
:101AA000304988893049898A41F400412E4A91821F
:101AB0002C49098821F040012A4A11802B4991F8CC
:101AC00050102A4A02EB81018978114691F8501092
:101AD000491C142903D1002182F8501006E0234943
:101AE00091F85010491C214A82F850101F4991F872
:101AF00050101E4A92F8512091421DD100BF194941
:101B0000098901F080010029F9D11749898A41F436
:101B10000041154A91821349098821F04001114A78
:101B200011801146098821F04001118011468988F1
:101B300021F04001918013E00A49098841F04001F9
:101B4000084A11800849898A21F40041064A918295
:101B5000064991F85010054A32F82110014A918146
:101B6000704700000030014000000240C801002022
:101B700010B54FF0E020006940F002004FF0E02186
:101B8000086141F2941048610846006940F0010084
:101B9000086148170121002807DA0A07140E064ACF
:101BA00000F00F031B1FD45403E00A07130E034A6F
:101BB000135400BF10BD000018ED00E000E400E089
:101BC000024612B90A4800687047012A0DD1084838
:101BD0000068884203D306480068401AF4E7C1F160
:101BE000FF30034B1B681844EEE700BFECE7000032
:101BF000680000200CB50020019000903E4800686D
:101C000040F480303C49086000BF3B48006800F465
:101C1000003000900198401C0190009818B901987C
:101C2000B0F5A06FF1D13448006800F4003010B175
:101C30000120009001E0002000900098012859D177
:101C40002E48006840F004002C49086008460068EF
:101C500040F0020008600846006840F0010008609B
:101C600025482430006840F0805023492431086022
:101C7000C8142349086000BF2148406800F01000E4
:101C80000028F9D11C48083000681B490831086059
:101C90000846006808600846006808600846006852
:101CA00020F47D0008600846006840F49A0008604F
:101CB0001148006840F080700F49086000BF0E486E
:101CC000006800F000700028F9D00B480830006868
:101CD00020F003000849083108600846006840F019
:101CE0000300086000BF04480830006800F00C00E2
:101CF0000C28F8D10CBD000000380240003C024026
:101D00000070004010B50A480068401C084908608F
:101D100008480078401C07490870084600780A28DF
:101D200004D1FEF759FF00200249087010BD0000E1
:101D3000680000206C00002010B51548006840F4D1
:101D40008070134908601248083000681149084043
:101D50000F49083108600E4800680F4908400C49D7
:101D600008600846006820F48020086008480830B1
:101D7000006820F47D000649083108600020091D34
:101D80000860FFF737FF4FF000600449086010BD9E
:101D9000003802400CC0FF88FEFFFEEE08ED00E0B8
:101DA0000B48008800F0010080B10948008820F04D
:101DB000010007490880012006490870064800789C
:101DC00008B9012000E000200349087070470000B6
:101DD000100C0140C40100209E01002010B5624893
:101DE000008800F0010000284CD05F48008820F0F7
:101DF00001005D4908805D480078142852D15C4894
:101E0000007E5B4951F8300000884FF6FF71884230
:101E100039D00020574908605548007E544901EBED
:101E2000C00040680078534908310860504B1B7E61
:101E30004F4C04EBC303191D5868431C0B60027818
:101E400002EBD2735B104B4C10342360484A127E75
:101E5000474B03EBC2010868821C0A600288424BB0
:101E60001C331A6040481038008840F001003E4999
:101E7000103908803F482438008840F001003D496F
:101E8000243908806FE03A48007E394951F8300023
:101E900000884FF6FF71884265D1FEF773FBFEF7AD
:101EA00093FB60E0314800780A2824D100203149B2
:101EB000086031488179801C30F811002D490831C3
:101EC00008602D498A79891C31F8120000EBD07125
:101ED0004910284A1032116027488079C0F101006A
:101EE0002549887120481038008840F001001E49BB
:101EF0001039088037E01D4800781E2833D11F486C
:101F0000807940B300201B4908601C4800881949AB
:101F1000083108601949088800EBD0714910154A4A
:101F200010321160154880880F491C310860114833
:101F30002438008840F001000E49243908800A48FE
:101F40001038008840F0010007491039088000204F
:101F50000A49887107E00948807920B901200749BA
:101F60008871FEF731FB10BD100400408000002096
:101F70004C0600202408014068060020780000205C
:101F800010B50748008A00F0010038B100F0DAF817
:101F90000348008A20F001000149088210BD0000BA
:101FA000001000401748008800F0400040B3164879
:101FB00090F8E803401CB0F57A7F04D10020124964
:101FC00081F8E80306E0104890F8E803401C0E4949
:101FD00081F8E8030C4890F8E8030B4991F8E913FD
:101FE000884207D0084890F8E8030749085C05498B
:101FF000091D08800348008820F04000014908803E
:102000007047000000380140620200200EB51948F8
:10201000006840F0020017490860081D006840F49D
:102020008040091D08600720002100910B46022214
:10203000CDE9011006210B20FEF750FC07200021FE
:1020400000910B460222CDE9011001460B20FEF75C
:1020500045FC094800684FF4E131B0FBF1F0074955
:102060000880081D008842F20C0108430349091D3D
:1020700008800EBD1C3802400000002008380140D6
:1020800000B50246034830F8120003490880FEF705
:102090009BFA00BD940000206806002000B50246AF
:1020A000064810F8120006494880044800EB420038
:1020B000417803488180FEF787FA00BD8100002047
:1020C000680600200449095C044A11811146098907
:1020D000034A1160704700008D0000206806002050
:1020E000107400400A2012490870124800891249F1
:1020F000086010480088114908601148008800F005
:1021000001000F49088020B90846008840F001000E
:1021100008800A482C38008800F0010007492C3953
:10212000088020B90846008840F001000880704708
:102130008000002068060020107400402C0400403D
:102140000008014000B5FEF73FFA00BD00B5FEF7FC
:102150008FFAFEF7A3FAFEF7AFF9FEF7D1F926489A
:10216000006840F00200244908602448008840F2DA
:10217000F2318843214908800846008840F0080071
:10218000088047F6FF401D49283108800120091DBD
:1021900008600020194924310860194988714F20CE
:1021A0001849088001204880642088801D20012172
:1021B00081404209920002F1E022C2F8001100BF02
:1021C0000E480C30008840F001000C490C310880AA
:1021D0000A481430008840F0010008491431088092
:1021E000081F008820F00100091F0880FEF7ECF9A5
:1021F000FEF7C8F900BD000024380240000400408A
:10220000680600207800002000B502460D48407E98
:102210000D4908600D480078142807D1FEF7D4F95D
:10222000FEF7B0F914200949087002E014200749AC
:102230000870044802760648008840F0010004490E
:10224000088000BD4C060020107400408000002073
:102250000004004001200849887108464088074969
:1022600008601E20064908700648008840F00100FA
:102270000449088070470000780000201074004076
:10228000800000200004004000B5FEF79DF9FEF735
:1022900079F900BD70B5044600250026B7480078DE
:1022A000C72813D100BF05E00020B54941F825003B
:1022B000681CC5B2052DF7DB00F096FB0A20AF497C
:1022C00008700120AF490870AF490870AE48007827
:1022D00000281DD0AD480078002870D1A7480078AC
:1022E0000A2816D10A220121A648007800F0FCF93C
:1022F0000A280AD1A34801780078401CA14A10702E
:10230000052902DD14209D490870032000F06CF9B6
:102310002DE19A480078142818D19A490978491E65
:10232000C8B21422012100F0DFF914280AD195481F
:1023300001780078401E934A1070012902DA1E20AD
:102340008E490870032000F04FF910E18B480078A7
:102350001E280CD10A21012000F04EFA0A2802D1D1
:10236000282086490870032000F03EF9FFE08348EA
:10237000007828280CD11421012000F03DFA1428FF
:1023800002D132207D490870032000F02DF9EEE0E3
:102390007A4800783228BBD10A2C06D1012079492D
:1023A00008700A207549087004E0142C02D131200D
:1023B00072490870032000F017F9D8E0FFE773486E
:1023C00000780128A4D16D4800780A280CD10A2190
:1023D000012000F011FA0A2802D114206749087080
:1023E000052000F001F9C2E064480078142816D1F5
:1023F0000A2201216348007800F076F90A280AD100
:10240000604801780078401C5E4A1070052902DDA2
:102410001E205A490870052000F0E6F8A7E057484A
:1024200000781E280DD10A220121002000F068FA50
:102430000A2802D1282051490870052000F0D4F85C
:1024400095E04E48007828280DD10A220121082065
:1024500000F056FA0A2802D13220484908700520B7
:1024600000F0C2F883E04548007832280DD11422EC
:102470000121102000F044FA142802D13C203F49E9
:102480000870052000F0B0F871E03C4800783C2866
:102490000DD10A220121002000F032FA0A2802D1CF
:1024A000462036490870052000F09EF85FE033486A
:1024B0000078462814D10A220121002000F020FAD9
:1024C0000A2809D114220121082000F019FA142841
:1024D00002D1502029490870052000F085F846E017
:1024E00026480078502814D10A220121102000F03B
:1024F00007FA0A2809D114220121082000F000FA65
:10250000142802D15A201D490870052000F06CF8EB
:102510002DE01A4800785A2814D10A2201210020FF
:1025200000F0EEF90A2809D114220121082000F058
:10253000E7F9142802D1642010490870052000F042
:1025400053F814E00D480078642810D10A2C06D105
:1025500001200C4908700A200849087004E0142C76
:1025600002D1312005490870032000F03DF80348EE
:102570000078312801D100F045F870BD9B010020A2
:1025800094070020C5010020C40100209A0100200A
:1025900070B5054600240E4800780E4908700E48B4
:1025A0000078632802D000F0B5FB0BE0002407E0C0
:1025B0000A4850F824000A4941F82400601CC4B2BB
:1025C000052CF5DB07480570C7200349087070BD6E
:1025D0009C010020A40100209B0100209407002002
:1025E000A80700209A01002010B5044600F0FCF96D
:1025F000002003490870204600F008FA10BD0000D2
:10260000C401002010B5002400F084FB0C480078C1
:102610000C49087000BF07E00B4850F824000B4934
:1026200041F82400601CC4B2052CF5DB01200849E8
:10263000087000F0D9F963200649087010BD000049
:102640009D010020A4010020A8070020940700207D
:10265000C40100209B01002010B504461421601E17
:10266000034A115400F0C0F900200249087010BD5F
:102670009F010020C401002010B5044611480078D5
:1026800011490870601E1149085C142807D10A21FD
:10269000601E0E4A115401200D49087010E00C48CC
:1026A000007868B1601E0949085C0A2808D100203A
:1026B0000749087000F098F94FF4C87000F0A6F9C7
:1026C00010BD00009D010020A40100209F010020FA
:1026D000C401002010B504460249085DFFF758FF09
:1026E00010BD0000A50100202DE9FC4F05468A46DB
:1026F00091460020019083460090002600278046E6
:1027000054460DB9012502E0052D00DD0525681EA2
:10271000384951F82000C0F30746681E51F82000E0
:10272000C7B2681E51F82000C0F30728792E0AD1DD
:10273000792F08D1B8F1790F05D1B9F10A0F02D17B
:102740000A20BDE8FC8FB9F10A0F24D1022000FB5A
:102750000460792803DB79264FF00A0B01E0301979
:10276000C6B2022000FB0470792803DB79274FF002
:102770000A0B01E03819C7B2022000FB0480792857
:1027800004DB4FF079084FF00A0B2BE008EB040054
:1027900000F0FF0826E0B9F1140F23D1022000FB5E
:1027A0001460002803DC00264FF0140B01E0301BFE
:1027B000C6B2022000FB1470002803DC00274FF093
:1027C000140B01E0381BC7B2022000FB1480002864
:1027D00004DC4FF000084FF0140B03E0A8EB0400FA
:1027E00000F0FF084346324639462846FEF74CFAC9
:1027F0005846A6E794070020F0B506460F46002489
:102800000025012407E03A4631462046FFF76CFFD9
:102810000544601CC4B2052CF5DD0520B5FBF0F5C0
:102820002846F0BD10B504460548047000780549F7
:1028300008700A210020FFF7DFFF00F0FDF810BD4F
:102840009D010020A401002010B504460249085D46
:10285000FFF7E8FF10BD0000BC0100202DE9FF4F8D
:1028600005460E4691469846002003900290824607
:10287000681E224951F82000C0F3074B681E51F82A
:102880002000C0B20190681E51F82000C0F307205C
:102890000090681E51F82000F040C4B24F46B8F1D5
:1028A0000A0F09D1E019792803DB79244FF00A0ACD
:1028B00010E0E019C4B20DE0B8F1140F0AD1E01B2A
:1028C000A04201DAE01B03D100244FF0140A01E01A
:1028D000E01BC4B2102E01D1A34605E00EB901944D
:1028E00002E0082E00D100945A462846DDE9003166
:1028F000FEF7CAF9504604B0BDE8F08F94070020F7
:102900002DE9F04F06460F4690464FF0000AD1469B
:102910000024A346002500BF09E0611CC8B243465D
:102920003A463146FFF79AFF0544601CC4B2052CB5
:10293000F3DB642D02D14FF0140903E0322D01D1F5
:102940004FF00A094846BDE8F08F000010B500249A
:1029500000F0B6F900F030FA0A2000F041F900F07A
:102960008FF900BF104800780028FBD1142000F038
:1029700037F900F0CFF9002404E014200B49085582
:10298000601CC4B2052CF8DB632009490870642080
:102990000849087005200849087064200749087034
:1029A0000749087010BD0000C30100209F010020EE
:1029B0009B0100209A0100209C010020A40100201E
:1029C0009D01002000B5002200BF05E00C20054954
:1029D00021F81200501CC2B2782AF7DB00F01EFA70
:1029E00000BD0000A406002000B500BF0648007826
:1029F0000028FBD100F020F800F010FA00BF0248D8
:102A000000780028FBD100BDC301002008490978E7
:102A100061B9084908600021054A117005492C393F
:102A2000098841F00101034A2C3A118070470000E7
:102A3000C40100202C0C01402DE9F04185B0002498
:102A4000002300250026002700BF3B48007800280F
:102A5000FBD100236BE03948C05C142807D038480C
:102A60000078012836D13548C05C0A2832D1354873
:102A700050F82300C0F307403349097848436421E4
:102A800090FBF1F000F0FF08404600F0FDFC054629
:102A90002C4850F82300C0B22B49097848436421E0
:102AA00090FBF1F000F0FF08404600F0EDFC064618
:102AB000244850F82300C0F30720234909784843ED
:102AC000642190FBF1F000F0FF08404600F0DCFCD0
:102AD000074609E01A48007830B91848C05C0A284F
:102AE00002D1002500260027380440EA05203043A3
:102AF0004DF82300002416E05DF823000121A140D9
:102B0000084038B11E20182101FB03410F4A22F86A
:102B1000110006E00C20182101FB03410B4A22F8AA
:102B20001100601CC4B2182CE6DB581CC3B2052B84
:102B300091DB05B0BDE8F081C30100209F010020BA
:102B40009E01002094070020A4010020A40600207C
:102B50002DE9F04707460C4615461E4600BF00BF4C
:102B6000C5EBC500C0EBC510642190FBF1F000F08F
:102B7000FF08C4EBC400C0EBC41090FBF1F000F000
:102B8000FF09C6EBC600C0EBC61090FBF1F000F0E9
:102B9000FF0A0648007806490870534642464946EF
:102BA0003846FEF771F8BDE8F08700009D0100206F
:102BB000A401002070B505460C4604EB4400074E06
:102BC0003044837804EB44003044427804EB440002
:102BD000315C2846FFF7BCFF70BD0000A701002054
:102BE00010B504464FF08040808840F008004FF058
:102BF000804188801D48006840F080701B49086053
:102C00001B48C06943F2A05108431949C8610846EE
:102C1000C06920F04000C8610846C06940F010005B
:102C2000C861144848620A2C09D10846C06920F0DE
:102C30000300C86110488862182008620BE0142C59
:102C400009D10B48C06920F003000949C8610B484D
:102C50008862782008620648C06940F00300044991
:102C6000C8610C20FEF75DF910BD00001C38024061
:102C7000006002403C00004074060020A4060020D2
:102C8000002000BF05E000210B4A22F81010411C73
:102C9000C8B21828F7DB0121084A11708907098892
:102CA00041F001014FF08042118000BF03490978D3
:102CB0000029FBD17047000074060020C3010020EA
:102CC0001248006840F0020010490860104800688F
:102CD00040F400100E490860081D008820F4806050
:102CE000091D0880081D006840F40010091D0860D7
:102CF000081D006840F48010091D08600448406AFF
:102D000040F4807102484162704700001C38024064
:102D10000004024010B52548006840F0080023492F
:102D200008600020224908702248008840F2F231F1
:102D30008843204908800846008840F00800088041
:102D400047F6FF401B49283108800020091D086014
:102D500018492431086017480C30008840F20111EE
:102D6000884314490C3108801248001D008820F067
:102D700008001049091D08801A20FEF7D2F80D48F6
:102D80000C30008840F001000A490C3108800948E5
:102D90001430008840F00100064914310880081FF3
:102DA000008820F00100091F088010BD2038024073
:102DB000C4010020000C01401748006840F00100E9
:102DC000154908600807008840F2F2318843490736
:102DD00008800846808840F0080088800846808B7C
:102DE00040F0600088830846008C40F480700884BE
:102DF0000846808940F4807088810020088527205B
:102E0000C8620846808A40F0010088820846008A2D
:102E100020F0010008827047243802400120074951
:102E200008708007008840F001004FF08041088062
:102E300000BF024800780028FBD17047C301002082
:102E40000EB5FEF795FE00210846FEF7B9FE0446D2
:102E500000BF21460120FEF7B3FEB0F5C87FF8D3CE
:102E60004348006840F0010041490860002000909C
:102E7000019003460122014602900A20FDF72EFD33
:102E80003C48008B40F001003A4908830020FDF7E0
:102E900041FC044604F00F0037490870C4F30310E6
:102EA0004870C4F303508870C4F30320C870C4F39F
:102EB00003300871C4F303404871C4F303608871A0
:102EC000FDF762FEFDF752FFFFF7A0F8FDF7FEFDEC
:102ED000FEF71CFBFFF73AF9FFF738FDFFF772FD2D
:102EE000254841780320FFF765FE23498878FFF7DE
:102EF000ABFCFFF779FD2049C878FFF7CFF81E49F2
:102F00000879FFF7DFF81C494879FFF7B9F8FDF7B2
:102F10005BFB00BFFDF7C8FD054618480068C168A7
:102F2000284688471348008A00F002000028F1D0A4
:102F300000210846FEF744FE044611E02146012028
:102F4000FEF73EFE40F6B831884209D9FDF70EFC87
:102F5000FFF738FD0748808A20F001000549888284
:102F60000448008A00F002000028D3D0E6E7000001
:102F70001C380240000002401D00002064000020B8
:102F800010B50446012011494871012C04D0022CCF
:102F90001AD1FDF743FB17E0FFF75CF90120FDF7BD
:102FA0003DFB00210220FFF705FE00210420FFF772
:102FB00001FEFFF719FD002004494871044800682C
:102FC00000680349086000BF00BF10BD700000200A
:102FD000640000207CB505461420FFF75BF9012D45
:102FE00018D0022D53D1FFF735F92A48007801286F
:102FF00003DB00202749087004E026480078401CC5
:103000002449087023490878FFF764FB0120FDF785
:1030100005FB3CE0FFF71EF90120FDF7FFFAFFF783
:10302000F1FA0020FDF776FB044624F00F00194A60
:10303000127840EA02010020FDF774FB1548417840
:103040000320FFF7B7FD01210220FFF7B3FD0121A7
:103050000420FFF7AFFDFFF7C7FCE0B28DF80400D6
:10306000200A8DF80500200C8DF80600200E8DF842
:1030700007000A200F23042201A900900020FEF778
:1030800001FC0548006800680349086000BF00BFF4
:103090007CBD00001D0000206400002038B50546FE
:1030A0000320FFF7E9FA012D1BD0022D4AD1FFF7CB
:1030B000D1F80120FDF7B2FA23484078062803D161
:1030C00000202149487004E01F484078401C1E49F8
:1030D00048701D4841780320FFF76CFDFFF784FC22
:1030E00030E0FFF7B7F80120FDF798FA0320FFF76B
:1030F000B3FA0020FDF70EFB044624F0F000124A5C
:10310000527840EA02110020FDF70CFB022108462C
:10311000FFF750FD02210420FFF74CFDFFF764FC90
:10312000E0B28DF80000200A8DF80100200C8DF827
:103130000200200E8DF8030004480068006803496F
:10314000086000BF00BF38BD1D00002064000020E3
:1031500038B50546012D1AD0022D44D1FFF77AF873
:103160000120FDF75BFA21488078062803D1002072
:103170001E49887004E01D488078401C1B498870F7
:103180001A498878FFF760FBFFF72EFC2BE001203F
:10319000FDF744FA0020FDF7BDFA044624F4700060
:1031A000124A927840EA02510020FDF7BBFA03214F
:1031B0000220FFF7FFFC03210420FFF7FBFCFFF7D1
:1031C00013FCE0B28DF80000200A8DF80100200CFD
:1031D0008DF80200200E8DF8030005480068006895
:1031E0000349086000BF00BF38BD00001D0000207B
:1031F0006400002038B50546FEF774FF012D16D097
:10320000022D40D10120FDF709FA2048C078052899
:1032100003D100201D49C87004E01C48C078401C40
:103220001A49C8701949C878FEF738FF2BE0012009
:10323000FDF7F4F90020FDF76DFA044624F4706000
:10324000124AD27840EA02210020FDF76BFA0421ED
:103250000220FFF7AFFC04210846FFF7ABFCFFF7A5
:10326000C3FBE0B28DF80000200A8DF80100200CAD
:103270008DF80200200E8DF80300054800680068F4
:103280000349086000BF00BF38BD00001D000020DA
:103290006400002038B50546FEF724FF012D16D046
:1032A000022D40D10120FDF7B9F920480079052809
:1032B00003D100201D49087104E01C480079401C1E
:1032C0001A49087119490879FEF7FCFE2BE0012024
:1032D000FDF7A4F90020FDF71DFA044624F4704020
:1032E000124A127940EA02310020FDF71BFA05214B
:1032F0000220FFF75FFC05210420FFF75BFCFFF7CE
:1033000073FBE0B28DF80000200A8DF80100200C5C
:103310008DF80200200E8DF8030005480068006853
:103320000349086000BF00BF38BD00001D00002039
:103330006400002038B50546FEF7D4FE012D16D0F6
:10334000022D46D10120FDF769F92348407909286B
:1033500003D100202049487104E01F484079401CF7
:103360001D4948711C494879FEF78AFE31E0012069
:10337000FDF754F90020FDF7CDF9044624F4702040
:10338000154A527940EA02410020FDF7CBF90621A7
:103390000220FFF70FFC06210420FFF70BFCFFF7CC
:1033A00023FBFEF7CFFE0C498879FEF72DFFE0B234
:1033B0008DF80000200A8DF80100200C8DF8020025
:1033C000200E8DF803000548006800680349086076
:1033D00000BF00BF38BD00001D00002064000020B9
:1033E00038B50546012D16D0022D46D10120FDF736
:1033F00015F923488079022803D1002020498871DB
:1034000004E01F488079401C1D4988711C49887957
:10341000FEF7FAFE31E00120FDF700F90020FDF78C
:1034200079F9044624F47020154A527940EA0241A1
:103430000020FDF777F900231A4619460220FFF70E
:1034400087FB00231A4619460420FFF781FBFFF78C
:10345000CBFAFEF719FFE0B28DF80000200A8DF8D4
:103460000100200C8DF80200200E8DF803000548A5
:10347000006800680349086000BF00BF38BD000055
:103480001D00002064000020010900F00F0241EA45
:10349000021000F0CC01891000F0330241EA8200F2
:1034A00000F0AA01491000F0550241EA42007047BD
:1034B00003006400320032000A000A000A000A0019
:1034C0000A00030000000000E834000800000020AB
:1034D000C801000030010008B0350008C801002014
:1034E000580C00008C01000811800D48E80103040D
:1034F00006080C101820301B010213041F070809CE
:1035000013B0342A0804013D100D404A454F4A5477
:103510004F59545E59631631323435FF126412C864
:1035200018122C019001F4015802BC0220038403FC
:10353000E80364121FF401BC02FFFF311363FF12A2
:10354000FA1CE803FA066902C90E49101AF4320D92
:1035500010E204F40120091A2E14FFFF5412541A29
:1035600059042179081C5963680909121713FF3E91
:1035700089021AE8AA127C29020D10E803F4010A54
:10358000A92C14FFFF6329026F5440454A4F3105AF
:103590004B454F16D2FF33016449041D6464643700
:1035A00005290A1F050F1923374B172201000000B8
:04000005080001D915
:00000001FF
