:020000040800F2
:10000000F807002091010008990100089B010008F1
:100010009D0100089F010008A101000800000000E8
:10002000000000000000000000000000A301000824
:10003000A501000800000000A7010008450F000806
:10004000AB010008AB010008AB010008AB010008E0
:10005000AB010008AB010008AB010008AB010008D0
:10006000AB010008AB010008AB010008AB010008C0
:10007000AB010008AB010008AB010008AB010008B0
:10008000AB010008AB010008AB010008AB010008A0
:10009000AB010008AB010008AB010008AB01000890
:1000A000AB010008AB010008AB010008AB01000880
:1000B000AB010008AB010008AB010008AB01000870
:1000C000AB010008AB010008AB010008010D0008FE
:1000D000AB010008ED0F0008AB010008AB01000800
:1000E00099020008AB010008AB010008C90F000825
:1000F000AB01000800F002F800F03AF80AA090E81E
:10010000000C82448344AAF10107DA4501D100F0D2
:100110002FF8AFF2090EBAE80F0013F0010F18BF65
:10012000FB1A43F001031847181A0000381A0000A0
:10013000103A24BF78C878C1FAD8520724BF30C813
:1001400030C144BF04680C607047000000230024E5
:1001500000250026103A28BF78C1FBD8520728BFD7
:1001600030C148BF0B6070471FB51FBD10B510BD33
:1001700000F037F81146FFF7F7FF01F02BF900F018
:1001800055F803B4FFF7F2FF03BC00F055F8000088
:100190000948804709480047FEE7FEE7FEE7FEE71B
:1001A000FEE7FEE7FEE7FEE7FEE7FEE70448054957
:1001B000054A064B70470000610F0008F500000873
:1001C000F8010020F8070020F8030020F8030020C1
:1001D0007047704770470000004870479401002046
:1001E00070477546FFF7F8FFAE460500694653466F
:1001F00020F00700854618B020B5FFF7D7FFBDE80F
:1002000020404FF000064FF000074FF000084FF07D
:10021000000B21F00701AC46ACE8C009ACE8C0090E
:10022000ACE8C009ACE8C0098D4670470446AFF39E
:1002300000802046FFF7A5FF01491820ABBEFEE76E
:100240002600020000B5024600F0EAF80A490860FC
:1002500000200A4908600A4908600A4908600A49FA
:1002600008700A48006800880949086012B1012036
:100270000849087000BD0000380000202C00002054
:100280003400002030000020400000204400002006
:100290003C0000204100002000B50748006800F441
:1002A000806038B100F08AFB0348006840F4806049
:1002B0000149086000BD0000140401402DE9F0432D
:1002C0000546DDE90767099C0A2D04D00B2D04D0F3
:1002D0000C2D06D103E04F4803E04F4801E04F48A2
:1002E00000BF00BFD0F800C04FEA41094FF003083B
:1002F00008FA09F82CEA080CC0F800C0D0F80CC0C5
:100300004FEA41094FF0030808FA09F82CEA080CF3
:10031000C0F80CC0D0F800C04FEA410802FA08F853
:100320004CEA080CC0F800C0012A03D0022A01D010
:10033000002A6CD1D0F80CC04FEA410803FA08F843
:100340004CEA080CC0F80CC0012A01D0022A5ED188
:10035000B0F804C04FEA41094FF0010808FA09F863
:100360002CEA080CA0F804C0D0F808C04FEA4109F4
:100370004FF0030808FA09F82CEA080CC0F808C086
:10038000B0F804C006FA01F84CEA080CA0F804C062
:10039000D0F808C04FEA410807FA08F84CEA080C00
:1003A000C0F808C0022A32D1082916DAD0F820C0D5
:1003B0004FEA81094FF00F0808FA09F82CEA080CF7
:1003C000C0F820C0D0F820C04FEA810804FA08F82D
:1003D0004CEA080CC0F820C019E0D0F824C0A1F104
:1003E00008084FEA88094FF00F0808FA09F82CEAC4
:1003F000080CC0F824C0D0F824C0A1F108084FEAC6
:10040000880804FA08F84CEA080CC0F824C0BDE8D3
:10041000F083000000000240000402400008024097
:100420000648008AC0F340000449098A01F004012B
:1004300040EA510106208843704700000000024056
:1004400000B5FFF7EDFF034620480068984203D04F
:100450000020FFF7F7FE00BD13B11D48007820B162
:1004600013B900201A490870F5E71A480068401CC3
:100470001849086018480360084600681749096869
:10048000884220D316480068401C1549086015486A
:100490000068154908600846016814480078401C47
:1004A00031F8100020B111480078401C0F49087045
:1004B0000D4800680D49097830F8110007490968AE
:1004C00008440649086000BFC5E700003800002066
:1004D00041000020340000202C0000203C000020BF
:1004E0003000002048000020440000204000002090
:1004F00000F01F02012191404209920002F1E02226
:10050000C2F80011704700000EB52648006840F0A0
:100510000300244908600020009001900346012256
:10052000092102900A20FFF7C9FE052001210022BF
:100530001346CDE900210290022203210B20FFF790
:10054000BDFE0520012100221346CDE900210290C5
:10055000022201460B20FFF7B1FE052001210022F7
:100560001346CDE900210290022204210B20FFF75F
:10057000A5FE002000900190034601220F21029069
:100580000A20FFF79BFE0848808A40F40040064995
:1005900088820648008820F040000449088062B63E
:1005A0000EBD00001C380240000002400030014037
:1005B000FEB504460D46164600BFAA222F21012093
:1005C00000F014F900222F21104600F00FF9AA289C
:1005D000F3D100BF55222F21012000F007F900229E
:1005E0002F21104600F002F95528F3D104220121F1
:1005F000084600F0FBF800220221012000F0F6F886
:1006000002220321012000F0F1F840220421012000
:1006100000F0ECF803220521012000F0E7F8332276
:100620000621012000F0E2F8D9220721012000F084
:10063000DDF800220821012000F0D8F8002209216D
:10064000012000F0D3F842221921012000F0CEF859
:1006500040222521012000F0C9F80722262101208F
:1006600000F0C4F810222821012000F0BFF8DC229D
:100670002921012000F0BAF888222E21012000F063
:10068000B5F82D222F21012000F0B0F8642230218E
:10069000012000F0ABF890223721012000F0A6F8ED
:1006A00042223821012000F0A1F88F223C210120B4
:1006B00000F09CF812223D21012000F097F8302232
:1006C0006F21012000F092F8002000F021F90020B5
:1006D00000F086FA012000F0A9FA00BF00222721CD
:1006E000104600F083F800F080000028F6D00020CB
:1006F00000900190034602460A2102900846FFF747
:10070000DDFD15480069144908611448006840F48B
:1007100080601249086011480830006840F4806029
:100720000E490831086028200021002807DA0A074E
:10073000170E0B4A00F00F031B1FD75403E00A07E4
:10074000130E084A135400BF2820FFF7D1FE85205E
:10075000054908700120FEBD000001400004014071
:1007600018ED00E000E400E01F00002010B508488C
:10077000006840F48050064908600648008840F64A
:1007800024310843034908802320FFF7B1FE10BD40
:1007900020380240003001401349098821F40061EB
:1007A000114A118000BF1049098901F08001002918
:1007B000F9D10D49888100BF0B49098901F0010178
:1007C0000029F9D008498989C8B200BF06490989BA
:1007D00001F080010029F9D10349098841F4006141
:1007E000014A1180704700000030014010B50346F7
:1007F00013B1012B7ED145E072B64348008840F02A
:100800004000414C20804148808A20F400403F4C09
:10081000A08200BF3C48008900F002000028F9D007
:1008200000BF3948008900F080000028F9D140EA73
:100830000120354CA08100BF3348008900F0020040
:100840000028F9D000BF3048008900F001000028DE
:10085000F9D02D488089C2B200BF2B48008900F032
:1008600080000028F9D12948808A40F40040274CB4
:10087000A0822548008820F04000234C208062B6EA
:10088000104610BD72B62048008840F040001E4C53
:1008900020801E48808A20F400401C4CA08200BFAB
:1008A0001948008900F002000028F9D000BF16485E
:1008B000008900F080000028F9D141F0800042EA70
:1008C0000020114CA08100BF0F48008900F00200F9
:1008D0000028F9D000BF0C48008900F080000028F3
:1008E000F9D10A48808A40F40040084CA0820648AA
:1008F000008800E005E020F04000034C208062B654
:1009000000BF00BF00BFBCE7003001400000024054
:1009100070B50446012000F089F95CB372B61F4837
:10092000008840F040001D4908801D48808A20F45E
:1009300000401B498882BE20FFF72EFF002504E0FF
:10094000605DFFF729FF681CC5B2102DF8DB144865
:10095000808A40F40040124988821048008820F0C4
:1009600040000E49088062B60C48008820F0400024
:100970000A49088000223D211046FFF737FF00F0AA
:10098000FE000CB1012100E0002140EA01063246E0
:100990003D210120FFF72AFF70BD0000003001401B
:1009A0000000024010B5FFF7AFFDFFF7DFFE642245
:1009B00085215620FFF7FCFD10BD000030B54E48E4
:1009C000007803287ED1002228211046FFF70EFF71
:1009D00000F00400002875D0012000F027F972B65D
:1009E0004648008840F04000444908804448808AD6
:1009F00020F40040424988820020FFF7CDFE00200D
:100A0000FFF7CAFE3F49087008460078422801DD1A
:100A1000422001E03B4800783A4908700020FFF787
:100A2000BBFE394908703948007848B90846007853
:100A300037490978884203D033480078FF2803D12A
:100A400030480078032812DA00202E4908702C481C
:100A5000808A40F400402A4988822848008820F093
:100A600040002649088062B600F07EF830BD254877
:100A70000078C01E274908700020FFF78DFE264928
:100A800008700020FFF788FE054605F08000234926
:100A9000087005F0400022490870002406E000209C
:100AA000FFF77AFE1F490855601CC4B21948007848
:100AB0008442F4DB174800783D2806DA0021194803
:100AC000144A00E011E0127881540D48808A40F405
:100AD00000400B4988820948008820F040000749FF
:100AE000088062B6032000F0A1F8002000F01EF894
:100AF0000D49088000BFB9E71E000020003001400A
:100B000000000240240000202300002020000020DC
:100B10001F000020210000202200002026000020CD
:100B200025000020A20000202800002030B5044647
:100B3000002574B1012223211046FFF757FE00BFA4
:100B4000002223211046FFF751FE00F0020000288A
:100B5000F6D0002224211046FFF748FE404205B29D
:100B60006D10284630BD000010B5002015490870F2
:100B7000154908701549087015490870154908701D
:100B80001549087015490880002228211046FFF7F2
:100B90002DFE00F0040060B100223D211046FFF759
:100BA00025FE00F0FB00041D22463D210120FFF739
:100BB0001DFE402225210120FFF718FE032000F032
:100BC00035F810BD21000020220000202300002065
:100BD00024000020250000202600002028000020FE
:100BE00030B504460CB10F2000E01A200246132154
:100BF0000120FFF7FBFD74B1002211211046FFF721
:100C0000F5FD00F01F0040F060052A46112101208B
:100C1000FFF7ECFD07E00448007840F08002112166
:100C20000120FFF7E3FD30BD2A00002030B5044667
:100C300032480078844200D130BD052C4CD2DFE828
:100C400004F03E3021120300002201211046FFF77C
:100C5000CDFD00F0E30040F00C052A4601210846D6
:100C6000FFF7C4FD38E0002201211046FFF7BEFD6A
:100C700000F0E30040F010052A4601210846FFF786
:100C8000B5FD29E0002201211046FFF7AFFD00F07D
:100C9000E30040F008052A4601210846FFF7A6FDBB
:100CA0001AE0002201211046FFF7A0FD00F0E3004A
:100CB000051D2A4601210846FFF798FD0CE0002299
:100CC00001211046FFF792FD00F0E3052A460121BD
:100CD0000846FFF78BFD00BF00BF00BF0748007844
:100CE00040B9002227211046FFF780FD00F0800068
:100CF0000028F3D00148047000BF9DE71E000020CB
:100D00003549098901F00101002963D032498889F8
:100D10003249898A41F40041304A91822E4909883A
:100D200021F040012C4A118062B62D4991F85010F3
:100D30002B4A02EB81018978114691F85010491C29
:100D4000142903D1002182F8501006E0244991F8BB
:100D50005010491C224A82F85010214991F8501035
:100D60001F4A92F8512091421FD100BF1A490989A8
:100D700001F080010029F9D11849898A41F4004124
:100D8000164A91821449098821F04001124A1180C3
:100D900062B61149098821F040010F4A11801146BD
:100DA000898821F04001918014E072B60A490988CF
:100DB00041F04001084A11800849898A21F4004124
:100DC000064A9182064991F85010054A32F82110DE
:100DD000014A91817047000000300140000002404C
:100DE0005000002010B54FF0E020006940F00200F4
:100DF0004FF0E02108610C4848610846006940F066
:100E00000100086148170121002807DA0A07140EBB
:100E1000064A00F00F031B1FD45403E00A07130E09
:100E2000034A135400BF10BD20AA440018ED00E08F
:100E300000E400E00CB50020019000903E480068FE
:100E400040F480303C49086000BF3B48006800F433
:100E5000003000900198401C0190009818B901984A
:100E6000B0F5A06FF1D13448006800F4003010B143
:100E70000120009001E0002000900098012859D145
:100E80002E48006840F004002C49086008460068BD
:100E900040F0020008600846006840F00100086069
:100EA00025482430006840F08050234924310860F0
:100EB000C8142349086000BF2148406800F01000B2
:100EC0000028F9D11C48083000681B490831086027
:100ED0000846006808600846006808600846006820
:100EE00020F47D0008600846006840F49A0008601D
:100EF0001148006840F080700F49086000BF0E483C
:100F0000006800F000700028F9D00B480830006835
:100F100020F003000849083108600846006840F0E6
:100F20000300086000BF04480830006800F00C00AF
:100F30000C28F8D10CBD000000380240003C0240F3
:100F40000070004010B5012000F068FA044600214E
:100F500000F03AF901A000F0E7F810BD0A00000027
:100F600010B51548006840F48070134908601248B5
:100F700008300068114908400F49083108600E48E0
:100F800000680F4908400C4908600846006820F4D2
:100F90008020086008480830006820F47D00064979
:100FA000083108600020091D0860FFF743FF4FF07B
:100FB00000600449086010BD003802400CC0FF8882
:100FC000FEFFFEEE08ED00E000B50748008A00F0E5
:100FD000010038B1FFF734FA0348008A20F001001D
:100FE0000149088200BD0000001000401C48008834
:100FF00000F0400038B31B4890F83200401C322803
:1010000004D10020174981F8320006E0154890F815
:101010003200401C134981F83200124890F8320027
:10102000104991F83310884207D00E4890F83200EA
:101030000C49085C0A49091D08800948008820F00D
:101040004000074908800648008800F0200028B1C9
:101050000348008820F02000014908807047000004
:1010600000380140DF0000203EB52948006840F00C
:10107000020027490860081D006840F48040091DEF
:1010800008600720002100910B460222CDE90110E3
:1010900006210B20FFF712F90720002100910B46D3
:1010A0000222CDE9011001460B20FFF707F919488C
:1010B00000684FF49641B0FBF1F017490880081D15
:1010C000008842F26C0108431349091D088025205D
:1010D00000F01F02012191404209920002F1E0223A
:1010E000C2F8001100BF0121002807DA0A07140E18
:1010F0000A4A00F00F031B1FD45403E00A07130E23
:10110000074A135400BF0020064981F832003EBD53
:101110001C380240000000200838014018ED00E0B3
:1011200000E400E0DF00002000B5034606E000BF59
:10113000187800F007F80028FAD05B1C187800280F
:10114000F5D100BD01461E4890F83300312805D185
:101150001B4890F8320058B900207047184890F8A2
:10116000322090F83300401C824201D10020F4E785
:10117000134890F83300124A1154104690F8330087
:1011800092F83220904206D10D4890F832000C4A75
:10119000105C0C4A10800A4890F83300401C32283A
:1011A00004D10020064A82F8330006E0044890F893
:1011B0003300401C024A82F833000120CDE70000D2
:1011C000DF000020043801402DE9F04188B00546D9
:1011D0000C4684B9284600F043FA06460020324601
:1011E0000B46009001A800F01BF801A8FFF79CFF38
:1011F00008B0BDE8F081022C10D1284600F0D4F8E8
:10120000804600F016FA0646002032460B46009053
:1012100001A800F005F801A8FFF786FF00BFE7E787
:101220002DE9F04F93B0834616461F46DDF87080D7
:10123000BBF1000F01D1584800E058460446012098
:101240001290002213463046394600F01DFA0BD2A8
:101250002D2004F8010B0022504B3046394600F097
:101260004FFA06460F4605E04D48006810B12B20A6
:1012700004F8010BB8F1080F0BD24A4800EBC80084
:1012800003C832463B46CDE9060100F0F1F80646B8
:101290000F46002505E0129800EB800040001290F8
:1012A0006D1C4545F7D33046394600F095F9814627
:1012B000129800F0D5F9CDE90401484600F0D0F9C4
:1012C00032463B46CDE9000100F018FBCDE90201B2
:1012D000DDE9042300F014FACDE9060100F07CF901
:1012E000824600250CE00A20B9FBF0F100FB1190CA
:1012F000303029466D1C08AA50540A20B9FBF0F979
:10130000B9F1000FEFD11DB9302004F8010B08E04E
:1013100005E0681E08A9085C04F8010B6D1E002D8D
:10132000F7D1B8F1000F2AD02E2004F8010B0025C8
:101330000CE00A20BAFBF0F100FB11A03030294686
:101340006D1C08AA50540A20BAFBF0FABAF1000F3B
:10135000EFD104E0302228466D1C08A90A54454507
:10136000F8D31DB9302004F8010B08E005E0681E31
:1013700008A9085C04F8010B6D1E002DF7D10020B0
:101380002070BBF1000F01D1034800E0584604462D
:1013900013B0BDE8F08F0000130100200000F0BF83
:1013A0004C000020001B000830B50146012300203E
:1013B0000DE00C4601EBD4756D10A1EB450201EB7D
:1013C000D175691002FB030003EB8304630000295D
:1013D000EFD130BD0EB50F48006840F001000D4957
:1013E000086000200090019003460122014602900F
:1013F0000A20FEF763FF0848008B40F00100064911
:101400000883FFF731FEFFF7CDFAFFF7EBFC00BFD3
:10141000FEE700001C380240000002400146D9B13E
:101420001148008800F0010010B10F48406A704771
:101430000E48006840F010000C4A106047F6FF406C
:10144000094A10854FF0FF30D0621046008840F006
:10145000010010800020EAE70348008820F0010026
:10146000014A10800120E2E70010014020380240CC
:1014700010B591EA030F48BF83F0004300F1528298
:10148000841A71EB030C05D2121943EB0C03001BF9
:1014900061EB0C01DFF824E14FEA1154A4EB135C7B
:1014A0001EEA430F18BF9EEA445F73D023EA0E037F
:1014B000DCF1200E21EA045143F4801332D322FAE6
:1014C0000CFE10EB0E0023FA0CFE41EB0E01CCF1EA
:1014D000200E03FA0EFE10EB0E0051F10001B1F5E3
:1014E000801FCCF1200E32D201EB045112FA0EF221
:1014F000BDE8104058BF7047401C38BF5FEA420249
:1015000018BF7047002814BF20F0010041F100010E
:101510004FEA410313F5001F38BF7047A1F1C041E6
:1015200000F0E6B9012A43EB0302ACF1200CDCF138
:101530001F0E32BF4FF0000E23FA0CF310EB030026
:1015400041EB0451B4EB115FD0D0A1EB045101F594
:10155000801149085FEA300001EB04510ED350F1CD
:10156000000038BF12FA0EFE08D1BDE81040C9E7EE
:10157000401C38BF5FEA4202CAD1C3E7BDE8104051
:101580004FEA410313F5001F38BF7047A1F1C04176
:1015900000F0AEB99EEA445F08D011EA5E0FBDE8E4
:1015A000104004BF01F0004100207047BDE810402A
:1015B00070B500F04FF900BF64FBBE3E0000E0FFD5
:1015C000491058BFC1F140415B1058BFC3F14043BF
:1015D0008B42EFF3008070474FEA1153A3F580630D
:1015E000D3F11E03A8BFD3F1200C08DB4FF000425B
:1015F00042EAC12252EA505232FA03F070470942DD
:101600000BD4102BC4BF0020704703F5787CBCF1CD
:10161000FF3F05D04FF0FF3070474FF0000070479C
:1016200070B500F017F900BF499224800020704780
:10163000F0E710F0004248BF4042B0FA80F310FAE1
:1016400003F10AD0C3F11D0303F580634FEA415053
:1016500002EB035202EBD12170474FF000007047BC
:10166000B0FA80F310FA03F10AD0C3F11D0303F5B9
:1016700080634FEA41504FEA035202EBD121704799
:101680004FF000007047000051EA030C17D41CF51E
:10169000801F58BFBCF5801F00F10680994218BF1B
:1016A000704708BF9042704707D711F5801F58BF99
:1016B00013F5801F19D499427047894270471CF571
:1016C000801F08D5BCF5801FF7D58B4218BF704727
:1016D00008BF824270474FF4001C1CEB410F38BF1B
:1016E0001CEB430F01D28B42704770B500F0B2F88B
:1016F000922449004FF000514FF08053FFF760BF34
:10170000DFF848C170B51CEA111E1EBF1CEA131594
:101710009EEA0C0F95EA0C0F00F06F8081EA03043B
:1017200023EA4C134EEAD47E21EA4C1141F4801195
:1017300043F48013AE44A1FB024CA0FB0365AEF161
:101740007F7E361955EB0C05A1FB034C4CF10003D1
:10175000A0FB021C16EB0C06654153F10003094285
:1017600018BF46F0010613F4007F0BD14FEA033196
:101770004FEA0530340341EA155140EA16506FF044
:1017800003020AE04FEAC3214FEAC520F40241EA0E
:10179000555140EA56506FF0020202EB2E4201EB27
:1017A000025585EACE710AD05FEA440C18BF24F0D6
:1017B000004450F1000041F1000120EAD47040F2F1
:1017C000FE7C624500D270BDA84214BF4FF0804439
:1017D0004FF04044002E08BF0024BEF1806FA8BF28
:1017E000A1F1C041BDE8704080F282804FF000005E
:1017F00001F1C04101F0004170479EEA0C0F0CEA74
:10180000131518BF95EA0C0F06D04FF0000081EABF
:10181000030E0EF0004170BD00F01CF88900013E7F
:1018200000F007B800F009B84FEA430C5FEA5C5CCF
:1018300008D081EA030100F05BB84FEA410C5FEA8F
:101840005C5CF6D14FF00000014970470000FF07D3
:101850000000F87F0EF1020E2EF0030E5EF8046B0E
:10186000364205D4012A43EB030515F5001F12D8B3
:10187000012841EB010C1CF5001F0CD80ED14FEADA
:10188000D17C15F5001F0CEB4C0C0CF1020C08BFC1
:101890004CEBD37C04E04FF0080C01E04FEAD37C22
:1018A0000CEB4C0526FA05F606F00706B6F1040C1B
:1018B00006D20EEB860CBDE870404CF0010C604780
:1018C000DFE80CF0090B02024FF000414FF000007E
:1018D000A1F5002170BD19461046012851EB010405
:1018E00018BFD4F5001484BF002001F0004170BD82
:1018F0000808A0F500114FEA3101704791EA030F83
:1019000010B581F000413FF5BBAD83F0004300F01E
:1019100009B8000010B591EA030F48BF83F00043F7
:101920003FF5AEAD841A71EB030C07D212198CF09F
:10193000004C43EB0C03001B61EB0C01DFF8A4E14E
:101940004FEA1154A4EB135C1EEA430F18BF9EEA42
:10195000445F00F0B08023EA6E03524221EA045152
:10196000C3EB6E0338BF5B1EDCF1200E25D322FAD9
:101970000CFE10EB0E0043FA0CFE41EB0E01CCF115
:10198000200E03FA0EFE10EB0E0051F10001CCF117
:10199000200E29D412FA0EF201EB0451BDE81040DA
:1019A00058BF7047401C1CBFB2F1004F7047002861
:1019B0000CBF491C20F00100704712EB020E43EBF4
:1019C000030218BF4FF0010E4EEA4202ACF1200CA8
:1019D000DCF11E0E54D943FA0CFE10EB0E0051F14F
:1019E000FF31CCF11E0ED5D50EF1010E12FA0EFE0E
:1019F000404141EB010101EB445C5FEA5C5C10D9C2
:101A000010EBDE7001EB045138BFBEF1004FBDE8B2
:101A1000104018BF704700280CBF491C20F001007F
:101A2000704730D24FEAD42C11F5001124F4006431
:101A30001BD0B1FA81F20B3AA41AA41ED2F12003F2
:101A4000914030FA03F31943904001EBCC71002C24
:101A500001EB0451BDE81040A8BF704701F1C0413F
:101A60004FF0000001F000417047B0FA80F310FA27
:101A700003F100D110BDE41A173C4805C90AE4E798
:101A800001EB045110BD491001EB0451BDE81040B9
:101A90004FEA300002E04FF0000170474A0008BFF3
:101AA0000042F8D0B2F5001F28BF704701F0004196
:101AB0004FF0000070479EEA445F07D011EA5E0FC6
:101AC000BDE8104004BF002100207047BDE8104071
:101AD00070B5FFF7BFFE00BF40DFF63E83F0004168
:101AE000104670470000E0FF03006400320032003F
:101AF0000A000A000A000A000A00030000000000B1
:101B0000000000000000E03F9A9999999999A93F37
:101B10007B14AE47E17A743FFCA9F1D24D62403F9D
:101B20002D431CEBE2360A3FF168E388B5F8D43E5A
:101B30008DEDB5A0F7C6A03E48AFBC9AF2D76A3E7D
:101B4000601B000800000020500000003001000869
:101B5000B01B000850000020A80700004C0100083E
:101B60000048E801030406080C10182030000000AB
:101B7000000000000001020304060708090000003D
:101B8000000000000000000000001F000000000036
:101B90000000000000000000000000000000000045
:101BA00000000000E81A0008E81A00080000000021
:04000005080001915D
:00000001FF
