:020000040800F2
:100000007007002091010008990100089B01000879
:100010009D0100089F010008A101000800000000E8
:10002000000000000000000000000000A301000824
:10003000A501000800000000A7010008610E0008EB
:10004000AB010008AB010008AB010008AB010008E0
:10005000AB010008AB010008AB010008AB010008D0
:10006000AB010008AB010008AB010008AB010008C0
:10007000AB010008AB010008AB010008AB010008B0
:10008000AB010008AB010008AB010008AB010008A0
:10009000AB010008AB010008AB010008AB01000890
:1000A000AB010008AB010008AB010008AB01000880
:1000B000AB010008AB010008AB010008AB01000870
:1000C000AB010008AB010008AB010008910C00086F
:1000D000AB010008F10E0008AB010008AB010008FD
:1000E00099020008AB010008AB010008CD0E000822
:1000F000AB01000800F002F800F03AF80AA090E81E
:10010000000C82448344AAF10107DA4501D100F0D2
:100110002FF8AFF2090EBAE80F0013F0010F18BF65
:10012000FB1A43F001031847600F0000800F000026
:10013000103A24BF78C878C1FAD8520724BF30C813
:1001400030C144BF04680C607047000000230024E5
:1001500000250026103A28BF78C1FBD8520728BFD7
:1001600030C148BF0B6070471FB51FBD10B510BD33
:1001700000F037F81146FFF7F7FF00F057FF00F0E7
:1001800055F803B4FFF7F2FF03BC00F055F8000088
:100190000948804709480047FEE7FEE7FEE7FEE71B
:1001A000FEE7FEE7FEE7FEE7FEE7FEE70448054957
:1001B000054A064B70470000650E0008F500000870
:1001C00070010020700700207003002070030020E1
:1001D00070477047704700000048704710010020CA
:1001E00070477546FFF7F8FFAE460500694653466F
:1001F00020F00700854618B020B5FFF7D7FFBDE80F
:1002000020404FF000064FF000074FF000084FF07D
:10021000000B21F00701AC46ACE8C009ACE8C0090E
:10022000ACE8C009ACE8C0098D4670470446AFF39E
:1002300000802046FFF7A5FF01491820ABBEFEE76E
:100240002600020000B5024600F0EAF80A490860FC
:1002500000200A4908600A4908600A4908600A49FA
:1002600008700A48006800880949086012B1012036
:100270000849087000BD0000380000202C00002054
:100280003400002030000020400000204400002006
:100290003C0000204100002000B50748006800F441
:1002A000806038B100F068FB0348006840F480606B
:1002B0000149086000BD0000140401402DE9F0432D
:1002C0000546DDE90767099C0A2D04D00B2D04D0F3
:1002D0000C2D06D103E04F4803E04F4801E04F48A2
:1002E00000BF00BFD0F800C04FEA41094FF003083B
:1002F00008FA09F82CEA080CC0F800C0D0F80CC0C5
:100300004FEA41094FF0030808FA09F82CEA080CF3
:10031000C0F80CC0D0F800C04FEA410802FA08F853
:100320004CEA080CC0F800C0012A03D0022A01D010
:10033000002A6CD1D0F80CC04FEA410803FA08F843
:100340004CEA080CC0F80CC0012A01D0022A5ED188
:10035000B0F804C04FEA41094FF0010808FA09F863
:100360002CEA080CA0F804C0D0F808C04FEA4109F4
:100370004FF0030808FA09F82CEA080CC0F808C086
:10038000B0F804C006FA01F84CEA080CA0F804C062
:10039000D0F808C04FEA410807FA08F84CEA080C00
:1003A000C0F808C0022A32D1082916DAD0F820C0D5
:1003B0004FEA81094FF00F0808FA09F82CEA080CF7
:1003C000C0F820C0D0F820C04FEA810804FA08F82D
:1003D0004CEA080CC0F820C019E0D0F824C0A1F104
:1003E00008084FEA88094FF00F0808FA09F82CEAC4
:1003F000080CC0F824C0D0F824C0A1F108084FEAC6
:10040000880804FA08F84CEA080CC0F824C0BDE8D3
:10041000F083000000000240000402400008024097
:100420000648008AC0F340000449098A01F004012B
:1004300040EA510106208843704700000000024056
:1004400000B5FFF7EDFF034620480068984203D04F
:100450000020FFF7F7FE00BD13B11D48007820B162
:1004600013B900201A490870F5E71A480068401CC3
:100470001849086018480360084600681749096869
:10048000884220D316480068401C1549086015486A
:100490000068154908600846016814480078401C47
:1004A00031F8100020B111480078401C0F49087045
:1004B0000D4800680D49097830F8110007490968AE
:1004C00008440649086000BFC5E700003800002066
:1004D00041000020340000202C0000203C000020BF
:1004E0003000002048000020440000204000002090
:1004F00000F01F02012191404209920002F1E02226
:10050000C2F80011704700000EB52348006840F0A3
:100510000300214908600020009001900346012259
:10052000092102900A20FFF7C9FE052001210022BF
:100530001346CDE900210290022203210B20FFF790
:10054000BDFE0520012100221346CDE900210290C5
:10055000022201460B20FFF7B1FE052001210022F7
:100560001346CDE900210290022204210B20FFF75F
:10057000A5FE002000900190034601220F21029069
:100580000A20FFF79BFE62B60448808A40F40040D0
:10059000024988820EBD00001C3802400000024063
:1005A000FEB504460D46164600BFAA222F210120A3
:1005B00000F01EF900222F21104600F019F9AA2898
:1005C000F3D100BF55222F21012000F011F90022A4
:1005D0002F21104600F00CF95528F3D104220121F7
:1005E000084600F005F900220221012000F000F980
:1005F00002220321012000F0FBF840220421012007
:1006000000F0F6F803220521012000F0F1F8332272
:100610000621012000F0ECF856220721012000F00D
:10062000E7F856220821012000F0E2F856220921BD
:10063000012000F0DDF842221921012000F0D8F855
:1006400040222521012000F0D3F807222621012095
:1006500000F0CEF810222821012000F0C9F8DC2299
:100660002921012000F0C4F888222E21012000F069
:10067000BFF82D222F21012000F0BAF8642230218A
:10068000012000F0B5F890223721012000F0B0F8E9
:1006900042223821012000F0ABF88F223C210120BA
:1006A00000F0A6F812223D21012000F0A1F830222E
:1006B0006F21012000F09CF8002000F02BF90020B1
:1006C00000F056FA012000F079FA00BF002227213D
:1006D000104600F08DF800F080000028F6D00020D1
:1006E00000900190034602460A2102900846FFF757
:1006F000E5FD15480069144908611448006840F494
:1007000080601249086011480830006840F4806039
:100710000E490831086028200021002807DA0A075E
:10072000170E0B4A00F00F031B1FD75403E00A07F4
:10073000130E084A135400BF2820FFF7D9FE852066
:10074000054908700120FEBD000001400004014081
:1007500018ED00E000E400E01F00002010B508489C
:10076000006840F48050064908600648008840F65A
:1007700024310843034908802320FFF7B9FE10BD48
:1007800020380240003001401849098821F40061F6
:10079000164A11801146098861F04001118000BF9E
:1007A0001249098901F002010029F9D00F49888115
:1007B00000BF0E49098901F001010029F9D00B4958
:1007C0008989C8B200BF0949098901F0800100295F
:1007D000F9D10649098821F04001044A11801146E7
:1007E000098841F400611180704700000030014029
:1007F00010B5034613B1012B7ED145E04348008874
:1008000040F04000414C208072B64148808A20F47C
:1008100000403F4CA08200BF3C48008900F002002D
:100820000028F9D000BF3948008900F08000002876
:10083000F9D140EA0120354CA08100BF334800893E
:1008400000F002000028F9D000BF3048008900F015
:1008500001000028F9D02D488089C2B200BF2B4882
:10086000008900F080000028F9D162B62848808A0B
:1008700040F40040264CA0822448008820F040002C
:10088000224C2080104610BD2048008840F04000D7
:100890001E4C208072B61E48808A20F400401C4CFA
:1008A000A08200BF1948008900F002000028F9D09A
:1008B00000BF1648008900F080000028F9D141F0FF
:1008C000800042EA0020114CA08100BF0F4800893F
:1008D00000F002000028F9D000BF0C48008900F0A9
:1008E00080000028F9D162B60948808A40F40040AF
:1008F000074CA082054800E005E0008820F0400099
:10090000024C208000BF00BF0020BCE70030014047
:100910000000024070B50546012000F04FF965B1B6
:10092000002408E02A5D04F13E00C1B20120FFF777
:100930005FFF601CC4B2102CF4DB00223D21104686
:10094000FFF756FF00F0FE000DB1012100E000218D
:1009500040EA010632463D210120FFF749FF70BD04
:1009600010B5FFF7D1FDFFF7F9FE6422852156206F
:10097000FFF716FE10BD000030B54448007803288C
:100980007DD1002228211046FFF732FF00F004003D
:10099000002874D0012000F011F972B63C48808A1A
:1009A00020F400403A4988820020FFF7EDFE002045
:1009B000FFF7EAFE3749087008460078422801DD53
:1009C000422001E033480078324908700020FFF7E8
:1009D000DBFE314908703148007848B90846007894
:1009E0002F490978884203D02B480078FF2803D18B
:1009F0002848007803280CDA00202649087062B6DF
:100A00002348808A40F400402149888200F074F82D
:100A100030BD20480078C01E224908700020FFF732
:100A2000B3FE214908700020FFF7AEFE054605F031
:100A300080001E49087005F040001D490870002420
:100A400006E00020FFF7A0FE1A490855601CC4B25A
:100A5000144800788442F4DB124800783D2804DA18
:100A6000002014490F4A1278885462B60848808AD8
:100A700040F4004006498882032000F09FF80020DF
:100A800000F01CF80C49088000BFC1E71E000020E0
:100A9000000002402400002023000020200000204D
:100AA0001F0000202100002022000020260000203E
:100AB000250000209E0000202800002030B50446BC
:100AC000002574B1012223211046FFF791FE00BFDB
:100AD000002223211046FFF78BFE00F002000028C1
:100AE000F6D0002224211046FFF782FE404205B2D4
:100AF0006D10284630BD000010B500201549087063
:100B0000154908701549087015490870154908708D
:100B10001549087015490880002228211046FFF762
:100B200067FE00F0040060B100223D211046FFF78F
:100B30005FFE00F0FB00041D22463D210120FFF76F
:100B400057FE402225210120FFF752FE032000F02E
:100B500035F810BD210000202200002023000020D5
:100B6000240000202500002026000020280000206E
:100B700030B504460CB10F2000E01A2002461321C4
:100B80000120FFF735FE74B1002211211046FFF756
:100B90002FFE00F01F0040F060052A4611210120C1
:100BA000FFF726FE07E00448007840F0800211219C
:100BB0000120FFF71DFE30BD2A00002030B504469D
:100BC00032480078844200D130BD052C4CD2DFE899
:100BD00004F03E3021120300002201211046FFF7ED
:100BE00007FE00F0E30040F00C052A46012108460C
:100BF000FFF7FEFD38E0002201211046FFF7F8FD67
:100C000000F0E30040F010052A4601210846FFF7F6
:100C1000EFFD29E0002201211046FFF7E9FD00F079
:100C2000E30040F008052A4601210846FFF7E0FDF1
:100C30001AE0002201211046FFF7DAFD00F0E30080
:100C4000051D2A4601210846FFF7D2FD0CE00022CF
:100C500001211046FFF7CCFD00F0E3052A460121F3
:100C60000846FFF7C5FD00BF00BF00BF074800787A
:100C700040B9002227211046FFF7BAFD00F080009E
:100C80000028F3D00148047000BF9DE71E0000203B
:100C90002C49098901F00101002951D0294988898D
:100CA00062B62949898A41F40041274A918227493D
:100CB00091F85010254A02EB81018978114691F88C
:100CC0005010491C142903D1002182F8501006E06D
:100CD0001E4991F85010491C1C4A82F850101B49BB
:100CE00091F85010194A92F85120914219D100BF41
:100CF0001449098901F080010029F9D162B612492D
:100D0000898A41F40041104A91820E49098821F0F4
:100D100040010C4A11801146898821F040019180E0
:100D20000EE072B60849898A21F40041064A918290
:100D3000064991F85010054A32F82110014A918174
:100D40007047000000300140000002404C000020CD
:100D50000CB50020019000903E48006840F48030BF
:100D60003C49086000BF3B48006800F40030009038
:100D70000198401C0190009818B90198B0F5A06F37
:100D8000F1D13448006800F4003010B10120009027
:100D900001E0002000900098012859D12E480068F9
:100DA00040F004002C4908600846006840F002004A
:100DB00008600846006840F00100086025482430BB
:100DC000006840F08050234924310860C81423494A
:100DD000086000BF2148406800F010000028F9D1E9
:100DE0001C48083000681B49083108600846006844
:100DF00008600846006808600846006820F47D0026
:100E000008600846006840F49A00086011480068CD
:100E100040F080700F49086000BF0E48006800F085
:100E200000700028F9D00B480830006820F003005B
:100E30000849083108600846006840F0030008606F
:100E400000BF04480830006800F00C000C28F8D1FE
:100E50000CBD000000380240003C02400070004021
:100E60007047000010B51548006840F480701349C1
:100E70000860124808300068114908400F490831DD
:100E800008600E4800680F4908400C490860084691
:100E9000006820F48020086008480830006820F4CA
:100EA0007D000649083108600020091D0860FFF731
:100EB0004FFF4FF000600449086010BD0038024049
:100EC0000CC0FF88FEFFFEEE08ED00E000B507480D
:100ED000008A00F0010038B1FFF7B2FA0348008A37
:100EE00020F001000149088200BD00000010004010
:100EF0001C48008800F0400038B31B4890F83200CE
:100F0000401C322804D10020174981F8320006E045
:100F1000154890F83200401C134981F832001248FD
:100F200090F83200104991F83310884207D00E48EB
:100F300090F832000C49085C0A49091D08800948EC
:100F4000008820F04000074908800648008800F02B
:100F5000200028B10348008820F0200001490880C3
:100F60007047000000380140DB0000203EB52948F2
:100F7000006840F0020027490860081D006840F43E
:100F80008040091D08600720002100910B460222C5
:100F9000CDE9011006210B20FFF790F90720002171
:100FA00000910B460222CDE9011001460B20FFF70C
:100FB00085F9194800684FF49641B0FBF1F01749E4
:100FC0000880081D008842F26C0108431349091D7E
:100FD0000880252000F01F02012191404209920063
:100FE00002F1E022C2F8001100BF0121002807DA57
:100FF0000A07140E0A4A00F00F031B1FD45403E023
:101000000A07130E074A135400BF0020064981F84F
:1010100032003EBD1C38024000000020083801406C
:1010200018ED00E000E400E0DB0000200EB50E4803
:10103000006840F001000C49086000200090019019
:1010400003460122014602900A20FFF737F90748BC
:10105000008B40F0010005490883FFF787FFFFF789
:101060007FFC00BFFEE700001C3802400000024089
:1010700003006400320032000A000A000A000A007D
:101080000A00030000000000A81000080000002073
:101090004C00000030010008F41000084C00002053
:1010A000240700004C0100080048E801030406087A
:1010B0000C101820300000000000000000010203A6
:1010C00004060708090000000000000000000000FE
:1010D00000001F00000000000000000000000000F1
:1010E0000000000000000000000000007010000878
:0410F0007010000874
:04000005080001915D
:00000001FF
