:020000040800F2
:100000009806002091010008990100089B01000852
:100010009D0100089F010008A101000800000000E8
:10002000000000000000000000000000A301000824
:10003000A501000800000000A7010008A9010008B0
:10004000AB010008AB010008AB010008AB010008E0
:10005000AB010008AB010008AB010008AB010008D0
:10006000AB010008AB010008AB010008AB010008C0
:10007000AB010008AB010008AB010008AB010008B0
:10008000AB010008AB010008AB010008AB010008A0
:10009000AB010008AB010008AB010008AB01000890
:1000A000AB010008AB010008AB010008AB01000880
:1000B000AB010008AB010008AB010008AB01000870
:1000C000AB010008AB010008AB01000861030008A8
:1000D000AB010008AB010008AB010008AB01000850
:1000E000AB010008AB010008AB010008AB01000840
:1000F000AB01000800F002F800F03AF80AA090E81E
:10010000000C82448344AAF10107DA4501D100F0D2
:100110002FF8AFF2090EBAE80F0013F0010F18BF65
:10012000FB1A43F0010318470005000020050000FA
:10013000103A24BF78C878C1FAD8520724BF30C813
:1001400030C144BF04680C607047000000230024E5
:1001500000250026103A28BF78C1FBD8520728BFD7
:1001600030C148BF0B6070471FB51FBD10B510BD33
:1001700000F031F81146FFF7F7FF00F02FFA00F01A
:100180004FF803B4FFF7F2FF03BC00F053F8000090
:100190000948804709480047FEE7FEE7FEE7FEE71B
:1001A000FEE7FEE7FEE7FEE7FEE7FEE70448054957
:1001B000054A064B70470000E9040008F5000008F6
:1001C0009800002098060020980200209802002045
:1001D000704770477047754600F028F8AE46050036
:1001E0006946534620F00700854618B020B5FFF752
:1001F000DDFFBDE820404FF000064FF000074FF054
:1002000000084FF0000B21F00701AC46ACE8C00934
:10021000ACE8C009ACE8C009ACE8C0098D4670473D
:100220000446AFF300802046FFF7ABFF004870475D
:100230003400002001491820ABBEFEE72600020072
:10024000704700002948006840F002002749086014
:100250002748006840F408602549086024480830B1
:10026000006840F48860224908310860081F00884F
:1002700020F02800091F08801D480C30006820F479
:100280004C601B490C31086019482030006819493E
:1002900008431749203108601548006820F4407071
:1002A0001349086012480C30006840F4807010490F
:1002B0000C3108601048006840F080400E4908602A
:1002C0000846806820F0404088600846808820F416
:1002D000004088800846C06820F04040C86008465A
:1002E000408B40F400404883704700001C380240B7
:1002F0000004024000F0F0000000024070470000DF
:100300001148006840F480500F4908600F48008889
:1003100040F409700D4908800846808840F0C40008
:100320008880232000F01F020121914042099200A1
:1003300002F1E022C2F8001100BF0448008840F03A
:1003400040000249088070472038024000300140D8
:1003500000B5FFF777FFFFF7D3FFFFF7CFFF00BD33
:100360001B48008900F0010058B11A48407C194927
:1003700001EB800080781648008920F001001449C4
:1003800008811348008900F0020000B31148407C46
:10039000401C042803D100200E49487404E00D4895
:1003A000407C401C0B4948740A48407C0949897CC0
:1003B000884206D10748407C064911F820000449CC
:1003C00088810348008920F00200014908817047B4
:1003D00000300140200000200CB50020019000906A
:1003E0003E48006840F480303C49086000BF3B480C
:1003F000006800F4003000900198401C01900098C3
:1004000018B90198B0F5A06FF1D13448006800F434
:10041000003010B10120009001E000200090009811
:10042000012859D12E48006840F004002C4908608A
:100430000846006840F0020008600846006840F086
:100440000100086025482430006840F080502349AE
:1004500024310860C8142349086000BF214840685F
:1004600000F010000028F9D11C48083000681B4932
:10047000083108600846006808600846006808609F
:100480000846006820F47D0008600846006840F4D3
:100490009A0008601148006840F080700F490860B9
:1004A00000BF0E48006800F000700028F9D00B482B
:1004B0000830006820F00300084908310860084649
:1004C000006840F00300086000BF0448083000687E
:1004D00000F00C000C28F8D10CBD000000380240E0
:1004E000003C02400070004010B51548006840F420
:1004F00080701349086012480830006811490840AC
:100500000F49083108600E4800680F4908400C493F
:1005100008600846006820F4802008600848083019
:10052000006820F47D000649083108600020091D9C
:100530000860FFF751FF4FF000600449086010BDEC
:10054000003802400CC0FF88FEFFFEEE08ED00E020
:100550001E48006840F002001C490860081D006841
:1005600040F48040091D08601948006840F42040AC
:1005700017490860081D008820F0C000091D088088
:10058000081D006820F47040091D0860081D0068FF
:1005900020F47040091D08600D482030006840F0CC
:1005A000EE400B49203108600A4800684FF496413C
:1005B000B0FBF1F008490880081D008842F20C01E8
:1005C00008430549091D0880704700001C38024097
:1005D0000004024000000020083801401048006874
:1005E00040F001000E4908600E48006840F001002C
:1005F0000C4908600846806820F0030088600846BF
:10060000C06820F00300C8600846008B40F001007D
:100610000883FFF79DFFFFF79BFE00BFFEE700008A
:100620001C3802400000024048060008000000207C
:1006300020000000300100086806000820000020AB
:10064000780600004C0100080048E8010304060891
:100650000C10182030000000000000000001020310
:08066000040607080900000070
:04000005080001915D
:00000001FF
