:020000040800F2
:10000000E80C002099010008A1010008A3010008E4
:10001000A5010008A7010008A901000800000000D0
:10002000000000000000000000000000AB0100081C
:10003000AD01000800000000AF010008A513000892
:10004000B3010008B3010008B3010008B3010008C0
:10005000B3010008B3010008B3010008B3010008B0
:10006000B3010008B3010008B3010008B3010008A0
:1000700049060008B3010008B3010008B3010008F5
:10008000B3010008B3010008B3010008B301000880
:10009000B3010008B3010008B3010008E506000839
:1000A000B3010008B30100081D140008B3010008E3
:1000B000B301000845140008B3010008B3010008AB
:1000C000B3010008B3010008B301000835110008AE
:1000D000B3010008AD160008B3010008B301000821
:1000E00089060008B3010008B3010008891600085A
:1000F000B301000800F002F800F03EF80AA090E812
:10010000000C82448344AAF10107DA4501D100F0D2
:1001100033F8AFF2090EBAE80F0013F0010F18BF61
:10012000FB1A43F0010318474C1800006C1800003C
:10013000103A24BF78C878C1FAD8520724BF30C813
:1001400030C144BF04680C607047000000230024E5
:1001500000250026103A28BF78C1FBD8520728BFD7
:1001600030C148BF0B6070471FB59DE8030000F029
:1001700081F81FBD10B510BD00F000F91146FFF762
:10018000F3FF01F04BFB00F01EF903B4FFF7F2FFA1
:1001900003BC00F04BF900000948804709480047BC
:1001A000FEE7FEE7FEE7FEE7FEE7FEE7FEE7FEE727
:1001B000FEE7FEE704480549054A064B7047000084
:1001C000B5130008F5000008E8060020E80C002040
:1001D000E8080020E808002070B5064600F02EF878
:1001E000056806F10B0020F00704B4429CBF002014
:1001F00070BD2B466A68BAB11068A04210D304F1F2
:10020000080188423CBF5068586007D351681019F4
:1002100041601168091B016058601460101D70BDB9
:1002200013465268002AE7D12146284600F00EF80E
:100230000028DED170BD7047704770470048704796
:1002400090060020704770477047704738B50446E5
:100250000A4600206946AFF30080002808BF38BD79
:1002600002460099204600F067F8012038BD0120C1
:1002700000F07CB8F8B5AFF30080054600200C46CE
:10028000102000BF0646A819A0420DD93246694683
:100290000020AFF30080070008BF00F067F8009867
:1002A000A04218BF0546C419FFF7C8FF05600746FE
:1002B000F01D20F007004619284600F00AF8B44265
:1002C00008BFF8BDA21B31463868BDE8F84000F011
:1002D00033B800210160C0E9011070471020704759
:1002E00070B50446051FFFF7A9FF0068002C14BF76
:1002F000446870BD002C18BFAC423CBF2046646807
:10030000F8D301680A18AA4218BF456003D12A68C9
:1003100005461144016028684119A1421CBF6C6068
:1003200070BD6168696021680844286070BD000084
:100330000048704788060020034640688C46002825
:1003400018BF88423CBF03464068F8D31868184479
:10035000884207D00CF1030020F00700001D411A6D
:10036000521A0146081D0A60FFF7BABF10B500F027
:1003700035F8BDE8104000F02CB870477546FFF71F
:10038000D7FFAE4605006946534620F00700854674
:1003900018B020B5FFF70EFFBDE820404FF0000673
:1003A0004FF000074FF000084FF0000B21F007015D
:1003B000AC46ACE8C009ACE8C009ACE8C009ACE8A0
:1003C000C0098D4670470446AFF300802046FFF712
:1003D000DCFE002801D000F029B8704710B50128D4
:1003E00005D0002103A000F027F8012010BD09A1CD
:1003F000F8E7000053494752544D454D3A204F7598
:1004000074206F662068656170206D656D6F72790C
:10041000000000003A2048656170206D656D6F72C4
:100420007920636F727275707465640001491820D9
:10043000ABBEFEE72600020070B505460C460A205A
:1004400000E06D1C00F011F835B128780028F8D1D3
:1004500002E0641C00F009F814B120780028F8D1FB
:10046000BDE870400A20AFF3008008B569468DF8FA
:1004700000000320ABBE08BD0F48006840F002003A
:100480000D4908600D48006840F000600B490860A5
:10049000081D008820F40050091D0880081D006810
:1004A00040F04060091D08600448406A40F4401173
:1004B00002484162704700001C38024000040240BC
:1004C0001E48006840F004001C4908601C48008871
:1004D00040F2F23188431A4908800846008840F00B
:1004E0004400088016481830008840F07000144915
:1004F0001831088012482030008840F0030010496D
:100500002031088063200E49283108800020091D11
:1005100008600B49343108600949243108600848F3
:100520001430008840F00100054914310880081F8C
:10053000008820F00100091F088070472038024021
:100540000008014000200F4908700F4908600E495B
:10055000083108600C491031086001200B4908601F
:1005600009482438008820F0010007492439088010
:1005700006482C38008820F0010004492C390880F6
:100580007047000050000020240801402C04004067
:1005900000B5024600F0B6F90A49086000200A4991
:1005A00008600A4908600A4908600A4908700A4850
:1005B000006800880949086012B1012008490870E4
:1005C00000BD00000C0000200000002008000020FA
:1005D000040000201400002018000020100000205B
:1005E000150000200848006840F001000649086036
:1005F0000648006840F44070044908600846806876
:1006000040F44070886070471C380240000002408F
:100610000B48006840F0005009490860094800682C
:1006200020F00600074908600020064910310860E4
:100630000448006840F0010002490860704700006B
:1006400024380240007400400D48006800F020008B
:10065000A8B10B48406840F01000094948600020EC
:10066000084908704FF08040008A20F001004FF0E8
:10067000804108820846008820F001000880704709
:10068000006002405400002010B51448006800F4D7
:10069000005010B300220121104600F087FAC4B2C6
:1006A00004F01C00102812D100F08AFB00F0CAFBF5
:1006B00000F01EFB0A4890F8410018B100210846DE
:1006C00000F0E0FB064890F8420000F094FB03487D
:1006D000006840F400500149086010BD1404014056
:1006E000AE00002010B51C48006800F0400088B340
:1006F0001A480079E8B119480168012000F0B0FDFE
:10070000B0F57A7F11D215480079401C1349087161
:1007100008460079052801DD0520087100210846FA
:1007200000F09EFD0D4908600EE000200B490871A5
:100730000AE00A480079401C08490871002108466F
:1007400000F08EFD054908600348006840F0400055
:100750000149086010BD0000140401403800002069
:100760002DE9F0430546DDE90767099C0A2D04D011
:100770000B2D0ED00C2D24D117E0DFF878C1DCF85A
:1007800000C04CF0010CDFF86C81C8F800C05A487A
:1007900017E0DFF860C1DCF800C04CF0020CDFF8B5
:1007A0005481C8F800C055480BE0DFF848C1DCF8B8
:1007B00000C04CF0040CDFF83C81C8F800C0504881
:1007C00000BF00BFD0F800C04FEA41094FF0030856
:1007D00008FA09F82CEA080CC0F800C0D0F80CC0E0
:1007E0004FEA41094FF0030808FA09F82CEA080C0F
:1007F000C0F80CC0D0F800C04FEA410802FA08F86F
:100800004CEA080CC0F800C0012A03D0022A01D02B
:10081000002A6CD1D0F80CC04FEA410803FA08F85E
:100820004CEA080CC0F80CC0012A01D0022A5ED1A3
:10083000B0F804C04FEA41094FF0010808FA09F87E
:100840002CEA080CA0F804C0D0F808C04FEA41090F
:100850004FF0030808FA09F82CEA080CC0F808C0A1
:10086000B0F804C006FA01F84CEA080CA0F804C07D
:10087000D0F808C04FEA410807FA08F84CEA080C1B
:10088000C0F808C0022A32D1082916DAD0F820C0F0
:100890004FEA81094FF00F0808FA09F82CEA080C12
:1008A000C0F820C0D0F820C04FEA810804FA08F848
:1008B0004CEA080CC0F820C019E0D0F824C0A1F11F
:1008C00008084FEA88094FF00F0808FA09F82CEADF
:1008D000080CC0F824C0D0F824C0A1F108084FEAE1
:1008E000880804FA08F84CEA080CC0F824C0BDE8EF
:1008F000F08300001C380240000002400004024067
:10090000000802400548008AC0F340000349098AF4
:1009100001F0040140EA510070470000000002406D
:100920000648006838B105480068401E0349086061
:100930000348006870470020FCE700000400002026
:10094000000000200EB52048006840F010001E494D
:1009500008601D480838006840F001001A4908394D
:100960000860002000900190034602460121029099
:100970000A20FFF7F5FE0020009001900346024692
:10098000022102900A20FFF7EBFE42F210700F499D
:10099000C862202008850846808940F001008881CF
:1009A0002B2000F01F02012191404209920002F128
:1009B000E022C2F8001100BF0448008840F00100A6
:1009C000024908800EBD000024380240001000409B
:1009D00000B5FFF797FF034620480068984203D010
:1009E0000020FFF7D5FD00BD13B11D48007820B1F0
:1009F00013B900201A490870F5E71A480068401C2E
:100A000018490860184803600846006817490968D3
:100A1000884220D316480068401C154908601548D4
:100A20000068154908600846016814480078401CB1
:100A300031F8100020B111480078401C0F490870AF
:100A40000D4800680D49097830F811000749096818
:100A500008440649086000BFC5E700000C000020FC
:100A600015000020080000200000002010000020D9
:100A7000040000201C0000201800002014000020AA
:100A800010B51020FFF7A8FB2A4908601020FFF7D7
:100A9000A3FB294908601020FFF79EFB2749086047
:100AA0001020FFF799FB2649086023480068214978
:100AB0000968086000201F49096888601D490968A5
:100AC000486020481B490968C8601C4800681A49EA
:100AD0000968086000201849096888601649096893
:100AE0004860194814490968C860154800681349E6
:100AF0000968086000201149096888600F49096881
:100B0000486012480D490968C8600A4800680C49E5
:100B10000968086000200A4909688860084909686E
:100B200048600B4806490968C860024800680949DE
:100B3000086010BD200000202400002028000020B4
:100B40002C0000207D180008B5180008ED180008DA
:100B500025190008300000201349098821F400619C
:100B6000114A118000BF1049098901F08001002954
:100B7000F9D10D49888100BF0B49098901F00101B4
:100B80000029F9D008498989C8B200BF06490989F6
:100B900001F080010029F9D10349098841F400617D
:100BA000014A1180704700000030014010B5034633
:100BB00013B1012B7ED146E04348008840F040004D
:100BC000414C20804148808A20F400403F4CA08264
:100BD0003D488089C2B200BF3B48008900F0020056
:100BE0000028F9D000BF3848008900F080000028B4
:100BF000F9D140EA0120344CA08100BF324800897D
:100C000000F002000028F9D000BF2F48008900F052
:100C100001000028F9D02C488089C2B200BF2A48C0
:100C2000008900F080000028F9D12848808A40F42B
:100C30000040264CA0822448008820F04000224C2E
:100C40002080104610BD2048008840F040001E4C17
:100C500020801E48808A20F400401C4CA08200BFE7
:100C60001948008900F002000028F9D000BF16489A
:100C7000008900F080000028F9D141F0800042EAAC
:100C80000020114CA08100BF0F48008900F0020035
:100C90000028F9D000BF0C48008900F0800000282F
:100CA000F9D10A48808A40F40040084CA0820648E6
:100CB000008800E004E020F04000034C208000BFEA
:100CC00000BF00BFBEE7000000300140000002404E
:100CD00070B504460D46002221461046FFF766FF18
:100CE0002843C6B2324621460120FFF75FFF70BDA0
:100CF00030B53048008840F040002E4908802E482A
:100D0000808A20F400402C4988820020FFF724FFCD
:100D10000020FFF721FF294981F840000020FFF75C
:100D20001BFF264981F83F00084690F84000C01E8E
:100D300081F83D000020FFF70FFF204981F83E00B9
:100D40000020FFF709FF054605F080001B4981F8E8
:100D5000420005F0400081F84100002406E0002038
:100D6000FFF7FAFE15490855601CC4B2134890F805
:100D70003D00A042F3DC114890F83D003D2805DA23
:100D800000200E4991F83D100C4A50540A48808AC0
:100D900040F40040084988820648008820F040005E
:100DA00004490880002000F030F80449A1F844000C
:100DB00030BD00000030014000000240AE000020C5
:100DC00000B5242201210846FFF7F0FE042201218C
:100DD0000846FFF7EBFE04E0042201210846FFF776
:100DE000E5FE002201211046FFF7E0FE00F01C00A6
:100DF0000428F1D100BD00B5012000F03DF94022EA
:100E000001210846FFF7D2FE00BD30B5044600259B
:100E10006CB101212320FFF75BFF00BF00222321DB
:100E20001046FFF7C3FE00F002000028F6D00022B3
:100E300024211046FFF7BAFE404205B26D10284645
:100E400030BD000000B500200D4981F83D0081F85B
:100E50003E0081F83F0081F8400081F8410081F8B0
:100E60004200A1F84400002228211046FFF79EFE10
:100E700000F0040018B104213D20FFF729FF00BD58
:100E8000AE000020F8B504460D460A4890F83E60D2
:100E9000B0F9447004213D20FFF71AFF0120002320
:100EA0002A4621460090304600F006F80148A0F896
:100EB0004470F8BDAE0000202DE9F84F8246884608
:100EC00014469946DDF828B0012000F0D5F800213D
:100ED000084600F06BF83D2C00DD3D24BBF1000F0F
:100EE00001D0802603E0B9F1000F00D040262B4846
:100EF000008840F04000294908802948808A20F471
:100F00000040274988828020FFF726FEE11CC8B2F6
:100F1000FFF722FE5046FFF71FFE224991F84600D8
:100F2000FFF71AFE3046FFF717FE002505E018F818
:100F30000500FFF711FE681CC5B2A542F7DB184893
:100F4000808A40F40040164988821448008820F0C6
:100F5000400012490880042000F08EF80021084665
:100F600000F07EF9009000BF0F48008800F40050A8
:100F700030B90120009900F073F9B0F57A7FF3D30E
:100F80000948008800F4005008B1012700E000275C
:100F9000012000F071F83846BDE8F88F00300140BC
:100FA00000000240AE0000201008024070B5054667
:100FB0000C46062D5ED2DFE805F0031221303F4ECD
:100FC000002225211046FFF7F1FD20F0C00020434C
:100FD000C6B2324625210120FFF7E8FD4AE0002293
:100FE00025211046FFF7E2FD20F030002043C6B275
:100FF000324625210120FFF7D9FD3BE000222521C3
:101000001046FFF7D3FD20F00C002043C6B2324655
:1010100025210120FFF7CAFD2CE0002225211046E2
:10102000FFF7C4FD20F003002043C6B2324625215D
:101030000120FFF7BBFD1DE0002226211046FFF72F
:10104000B5FD20F0C0002043C6B232462621012063
:10105000FFF7ACFD0EE0002226211046FFF7A6FDAB
:1010600020F030002043C6B2324626210120FFF78F
:101070009DFD00BF00BF70BD30B50446052C4DD2AC
:10108000DFE804F03F302112030000220121104666
:10109000FFF78CFD00F0E30040F00C052A4601212B
:1010A0000846FFF783FD39E0002201211046FFF7D3
:1010B0007DFD00F0E30040F010052A4601210846BE
:1010C000FFF774FD2AE0002201211046FFF76EFDB4
:1010D00000F0E30040F008052A4601210846FFF72A
:1010E00065FD1BE0002201211046FFF75FFD20F0A7
:1010F0001C00001DC5B22A4601210846FFF756FD17
:101100000CE0002201211046FFF750FD00F0E3053E
:101110002A4601210846FFF749FD00BF00BF00BF76
:101120002CB90348008A00F480700028F8D030BD44
:10113000000002403349098901F0010100295FD014
:10114000304988893049898A41F400412E4A918288
:101150002C49098821F040012A4A11802B4991F835
:1011600050102A4A02EB81018978114691F85010FB
:10117000491C142903D1002182F8501006E02349AC
:1011800091F85010491C214A82F850101F4991F8DB
:1011900050101E4A92F8512091421DD100BF1949AA
:1011A000098901F080010029F9D11749898A41F4A0
:1011B0000041154A91821349098821F04001114AE2
:1011C00011801146098821F040011180114689885B
:1011D00021F04001918013E00A49098841F0400163
:1011E000084A11800849898A21F40041064A9182FF
:1011F000064991F85010054A32F82110014A9181B0
:101200007047000000300140000002405C000020F8
:1012100010B54FF0E020006940F002004FF0E021EF
:10122000086141F2941048610846006940F00100ED
:10123000086148170121002807DA0A07140E064A38
:1012400000F00F031B1FD45403E00A07130E034AD8
:10125000135400BF10BD000018ED00E000E400E0F2
:10126000024612B90A4800687047012A0DD10848A1
:101270000068884203D306480068401AF4E7C1F1C9
:10128000FF30034B1B681844EEE700BFECE700009B
:10129000340000200CB50020019000903E4800680A
:1012A00040F480303C49086000BF3B48006800F4CF
:1012B000003000900198401C0190009818B90198E6
:1012C000B0F5A06FF1D13448006800F4003010B1DF
:1012D0000120009001E0002000900098012859D1E1
:1012E0002E48006840F004002C4908600846006859
:1012F00040F0020008600846006840F00100086005
:1013000025482430006840F080502349243108608B
:10131000C8142349086000BF2148406800F010004D
:101320000028F9D11C48083000681B4908310860C2
:1013300008460068086008460068086008460068BB
:1013400020F47D0008600846006840F49A000860B8
:101350001148006840F080700F49086000BF0E48D7
:10136000006800F000700028F9D00B4808300068D1
:1013700020F003000849083108600846006840F082
:101380000300086000BF04480830006800F00C004B
:101390000C28F8D10CBD000000380240003C02408F
:1013A0000070004002480068401C01490860704716
:1013B0003400002010B51548006840F480701349CF
:1013C0000860124808300068114908400F49083188
:1013D00008600E4800680F4908400C49086008463C
:1013E000006820F48020086008480830006820F475
:1013F0007D000649083108600020091D0860FFF7DC
:1014000049FF4FF000600449086010BD00380240F9
:101410000CC0FF88FEFFFEEE08ED00E007480088E4
:1014200000F0010040B10548008820F001000349A8
:10143000088001200249087070470000100C01402C
:101440005500002000B58A48008800F001000028FF
:101450007ED08748008820F00100854908808548B3
:101460000078142875D1844890F8A401C0EBC0001E
:1014700000EB4000804901EB400090F828000A286A
:1014800077DC00207D4908607B4890F8A401C0EB20
:10149000C00000EB4000784901EB4000143091F8A7
:1014A000A411C1EBC10101EB4101734A02EB4101FF
:1014B00091F8281030F81100704908310860114681
:1014C00091F8A411C1EBC10101EB410102EB410113
:1014D000143192F8A421C2EBC20202EB4202664B25
:1014E00003EB420292F8282031F8120000EBD07191
:1014F0004910624A10321160194691F8A411C1EBEB
:10150000C10101EB41011A4602EB410101F1280042
:101510000178491C0170104690F8A401C0EBC0008E
:1015200000EB4000114601EB400091F8A411C1EB23
:10153000C10101EB410102EB410191F8281030F8A3
:1015400011004B491C31086049481038008802E0FE
:101550002BE02BE00DE040F00100454910390880F8
:1015600046482438008840F0010044492439088066
:101570007DE0414890F8A401C0EBC00000EB4000C2
:101580003D4901EB400090F828000A286FDD00205B
:1015900091F8A411C1EBC10101EB4101364A02EB04
:1015A000410181F82800FEF7CDFF60E03148007866
:1015B0000A2824D100203149086031488179801CF3
:1015C00030F811002D49083108602D498A79891CAD
:1015D00031F8120000EBD0714910284A1032116026
:1015E00027488079C0F101002549887120481038CA
:1015F000008840F001001E491039088037E01D487E
:1016000000781E2833D11F48807940B300201B4941
:1016100008601C4800881949083108601949088881
:1016200000EBD0714910154A1032116015488088BE
:101630000F491C31086011482438008840F001002F
:101640000E49243908800A481038008840F001000B
:1016500007491039088000200A49887107E00948C5
:10166000807920B9012007498871FEF76BFF00BD22
:101670001004004050000020E00400202408014035
:10168000480000204000002000B50748008A00F014
:10169000010038B1FFF79CF90348008A20F00100EF
:1016A0000149088200BD0000001000401748008872
:1016B00000F0400040B3164890F8E803401CB0F535
:1016C0007A7F04D10020124981F8E80306E010482F
:1016D00090F8E803401C0E4981F8E8030C4890F8A4
:1016E000E8030B4991F8E913884207D0084890F8BD
:1016F000E8030749085C0549091D0880034800887C
:1017000020F0400001490880704700000038014087
:10171000F600002000B5FEF765FFFEF779FFFEF743
:10172000ABFEFEF7CDFE2D48006840F002002B49CD
:1017300008602B48008840F2F2318843284908802D
:101740000846008840F00800088047F6FF4024491A
:10175000283108800120091D08600020204924311B
:10176000086020498871204991F8A411C1EBC1019A
:1017700001EB41011C4A02EB410181F828004F2096
:101780001A4908802F201A490860184948806420A7
:1017900088801D20012181404209920002F1E0224F
:1017A000C2F8001100BF0E480C30008840F0010064
:1017B0000B490C3108800A481430008840F00100C1
:1017C000074914310880081F008820F00100091F14
:1017D00008802F200649086000BD00002438024020
:1017E0000004004048000020E004002040000020E9
:1017F000107400400120064988711E2005490870B8
:101800000548008840F00100034908807047000047
:101810004000002050000020000400400EB500BF32
:101820001348006840F00100114908600020009052
:10183000019003460122014602900A20FEF790FF24
:101840000C48008B40F001000A490883FFF7E0FCD8
:10185000FFF778F8FFF714F9FFF75CFF00BFFFF719
:101860005FF8044604480068C16820468847F6E7E8
:101870001C380240000002403000002010B5044631
:10188000012C0CD0022C10D1FFF7B4FF0120FEF781
:101890007FFE0748006800680549086005E0FFF71B
:1018A000A9FF0120FEF774FE00BF00BF10BD0000BD
:1018B0003000002010B50446012C0CD0022C10D1B1
:1018C000FFF798FF0120FEF763FE074800680068F5
:1018D0000549086005E0FFF78DFF0120FEF758FE7F
:1018E00000BF00BF10BD00003000002010B504464E
:1018F000012C0CD0022C10D1FFF77CFF0120FEF749
:1019000047FE0748006800680549086005E0FFF7E2
:1019100071FF0120FEF73CFE00BF00BF10BD0000BC
:101920003000002010B50446012C0CD0022C10D140
:10193000FFF760FF0120FEF72BFE074800680068F4
:101940000549086005E0FFF755FF0120FEF720FE7E
:1019500000BF00BF10BD0000300000200300640085
:10196000320032000A000A000A000A000A000300DE
:101970000000000094190008000000205C00000036
:1019800030010008F01900085C0000208C0C0000F9
:101990004C010008000000000000000000000000F2
:1019A0000000000000000000000000005C190008BA
:1019B0005C190008000000000000000000000000AA
:1019C0000000000000000000000000000000000017
:1019D0000000000000000000000000000000000007
:1019E00000000000000000000000000000010000F6
:040000050800019955
:00000001FF
