:020000040800F2
:100000001807002099010008A1010008A3010008B9
:10001000A5010008A7010008A901000800000000D0
:10002000000000000000000000000000AB0100081C
:10003000AD01000800000000AF010008F10A00084F
:10004000B3010008B3010008B3010008B3010008C0
:10005000B3010008B3010008B3010008B3010008B0
:10006000B3010008B3010008B3010008B3010008A0
:10007000B3010008B3010008B3010008B301000890
:10008000B3010008B3010008B3010008B301000880
:10009000B3010008B3010008B3010008B301000870
:1000A000B3010008B3010008B3010008B301000860
:1000B000B3010008B30100085D0B0008B30100089C
:1000C000B3010008B3010008B301000831090008BA
:1000D000B3010008810B0008B3010008B301000858
:1000E000CD040008B3010008B3010008B301000803
:1000F000B301000800F002F800F03EF80AA090E812
:10010000000C82448344AAF10107DA4501D100F0D2
:1001100033F8AFF2090EBAE80F0013F0010F18BF61
:10012000FB1A43F001031847380E0000580E000078
:10013000103A24BF78C878C1FAD8520724BF30C813
:1001400030C144BF04680C607047000000230024E5
:1001500000250026103A28BF78C1FBD8520728BFD7
:1001600030C148BF0B6070471FB59DE8030000F029
:1001700081F81FBD10B510BD00F000F91146FFF762
:10018000F3FF00F0B3FE00F01EF903B4FFF7F2FF37
:1001900003BC00F04BF900000948804709480047BC
:1001A000FEE7FEE7FEE7FEE7FEE7FEE7FEE7FEE727
:1001B000FEE7FEE704480549054A064B7047000084
:1001C000F50A0008F50000081801002018070020B3
:1001D000180300201803002070B5064600F02EF822
:1001E000056806F10B0020F00704B4429CBF002014
:1001F00070BD2B466A68BAB11068A04210D304F1F2
:10020000080188423CBF5068586007D351681019F4
:1002100041601168091B016058601460101D70BDB9
:1002200013465268002AE7D12146284600F00EF80E
:100230000028DED170BD7047704770470048704796
:10024000BC000020704770477047704738B50446BF
:100250000A4600206946AFF30080002808BF38BD79
:1002600002460099204600F067F8012038BD0120C1
:1002700000F07CB8F8B5AFF30080054600200C46CE
:10028000102000BF0646A819A0420DD93246694683
:100290000020AFF30080070008BF00F067F8009867
:1002A000A04218BF0546C419FFF7C8FF05600746FE
:1002B000F01D20F007004619284600F00AF8B44265
:1002C00008BFF8BDA21B31463868BDE8F84000F011
:1002D00033B800210160C0E9011070471020704759
:1002E00070B50446051FFFF7A9FF0068002C14BF76
:1002F000446870BD002C18BFAC423CBF2046646807
:10030000F8D301680A18AA4218BF456003D12A68C9
:1003100005461144016028684119A1421CBF6C6068
:1003200070BD6168696021680844286070BD000084
:1003300000487047B4000020034640688C460028FF
:1003400018BF88423CBF03464068F8D31868184479
:10035000884207D00CF1030020F00700001D411A6D
:10036000521A0146081D0A60FFF7BABF10B500F027
:1003700035F8BDE8104000F02CB870477546FFF71F
:10038000D7FFAE4605006946534620F00700854674
:1003900018B020B5FFF70EFFBDE820404FF0000673
:1003A0004FF000074FF000084FF0000B21F007015D
:1003B000AC46ACE8C009ACE8C009ACE8C009ACE8A0
:1003C000C0098D4670470446AFF300802046FFF712
:1003D000DCFE002801D000F029B8704710B50128D4
:1003E00005D0002103A000F027F8012010BD09A1CD
:1003F000F8E7000053494752544D454D3A204F7598
:1004000074206F662068656170206D656D6F72790C
:10041000000000003A2048656170206D656D6F72C4
:100420007920636F727275707465640001491820D9
:10043000ABBEFEE72600020070B505460C460A205A
:1004400000E06D1C00F011F835B128780028F8D1D3
:1004500002E0641C00F009F814B120780028F8D1FB
:10046000BDE870400A20AFF3008008B569468DF8FA
:1004700000000320ABBE08BD00B5024600F0E6F860
:100480000A49086000200A4908600A4908600A49C8
:1004900008600A4908700A4800680088094908602D
:1004A00012B101200849087000BD00002C00002096
:1004B000200000202800002024000020340000201C
:1004C000380000203000002035000020054800687A
:1004D00000F4806028B10348006840F4806001495E
:1004E00008607047140401402DE9F0430546DDE93A
:1004F0000767099C0A2D04D00B2D04D00C2D06D1C2
:1005000003E04F4803E04F4801E04F4800BF00BF01
:10051000D0F800C04FEA41094FF0030808FA09F883
:100520002CEA080CC0F800C0D0F80CC04FEA410912
:100530004FF0030808FA09F82CEA080CC0F80CC0C0
:10054000D0F800C04FEA410802FA08F84CEA080C5B
:10055000C0F800C0012A03D0022A01D0002A6CD1C1
:10056000D0F80CC04FEA410803FA08F84CEA080C2E
:10057000C0F80CC0012A01D0022A5ED1B0F804C034
:100580004FEA41094FF0010808FA09F82CEA080C73
:10059000A0F804C0D0F808C04FEA41094FF00308A2
:1005A00008FA09F82CEA080CC0F808C0B0F804C032
:1005B00006FA01F84CEA080CA0F804C0D0F808C00C
:1005C0004FEA410807FA08F84CEA080CC0F808C0DE
:1005D000022A32D1082916DAD0F820C04FEA810960
:1005E0004FF00F0808FA09F82CEA080CC0F820C0F0
:1005F000D0F820C04FEA810804FA08F84CEA080C49
:10060000C0F820C019E0D0F824C0A1F108084FEAD2
:1006100088094FF00F0808FA09F82CEA080CC0F80E
:1006200024C0D0F824C0A1F108084FEA880804FAD1
:1006300008F84CEA080CC0F824C0BDE8F0830000BC
:100640000000024000040240000802400648008A00
:10065000C0F340000449098A01F0040140EA510155
:1006600006208843704700000000024000B5FFF7F5
:10067000EDFF034620480068984203D00020FFF7B2
:10068000FBFE00BD13B11D48007820B113B9002056
:100690001A490870F5E71A480068401C18490860B4
:1006A000184803600846006817490968884220D343
:1006B00016480068401C154908601548006815492F
:1006C00008600846016814480078401C31F81000A2
:1006D00020B111480078401C0F4908700D4800688F
:1006E0000D49097830F8110007490968084406499E
:1006F000086000BFC5E700002C0000203500002086
:1007000028000020200000203000002024000020CD
:100710003C000020380000203400002000F01F02C0
:10072000012191404209920002F1E022C2F8001139
:100730007047000030B501240F4D05EB8005EC70CB
:1007400069B1012916D10C4D05EB8005AC7042F062
:10075000800443EA0424084D25F820400AE00024E0
:10076000054D05EB8005AC7043EA0224024D25F8E7
:10077000204000BF00BF30BD540000203EB53A48C5
:10078000006840F0030038490860002000900190A4
:10079000034602460A2102900846FFF7A5FE3348A9
:1007A0000069324908613248006840F4806030498D
:1007B00008602F480830006840F480602C490831F8
:1007C000086028200021002807DA0A07140E294AA9
:1007D00000F00F031B1FD45403E00A07130E264A30
:1007E000135400BF2820FFF799FF002000900190CC
:1007F00003460122092102900A20FFF775FE052019
:10080000012100221346CDE900210290022203219A
:100810000B20FFF769FE0520012100221346CDE9D8
:1008200000210290022201460B20FFF75DFE052009
:10083000012100221346CDE9002102900222042169
:100840000B20FFF751FE002000900190034601228B
:100850000F2102900A20FFF747FE0848808A40F4E3
:100860000040064988823EBD1C380240000001401D
:100870000004014018ED00E000E400E00000024048
:100880007047000010B50B48006840F480500949DB
:1008900008600948008840F624310843064908806A
:1008A0000846808840F0400088802320FFF736FF0C
:1008B00010BD0000203802400030014070B50446F1
:1008C0000D46164672B6194890F82900092805D138
:1008D000164890F8280058B9002070BD134890F8C9
:1008E000281090F82900401C814201D10020F4E733
:1008F0000E4991F8290033462A462146FFF71AFF90
:100900000A4890F82900401C0A2804D10020074911
:1009100081F8290006E0054890F82900401C0349A9
:1009200081F8290062B60120D7E7000054000020BA
:100930002849098901F00101002949D02649898AFD
:1009400041F40041244A918222498889234991F83F
:100950002810224A02EB81018978114691F828106B
:10096000491C0A2903D1002182F8281006E01B49FE
:1009700091F82810491C194A82F82810174991F853
:100980002810164A92F82920914213D100BF11492C
:10099000098901F080010029F9D10F49898A41F4C0
:1009A00000410D4A91820B49098821F04001094A12
:1009B00011800DE00849898A21F40041064A91829C
:1009C000064991F82810054A32F82110014A918110
:1009D0007047000000300140000002405400002039
:1009E0000CB50020019000903E48006840F4803033
:1009F0003C49086000BF3B48006800F400300090AC
:100A00000198401C0190009818B90198B0F5A06FAA
:100A1000F1D13448006800F4003010B1012000909A
:100A200001E0002000900098012859D12E4800686C
:100A300040F004002C4908600846006840F00200BD
:100A400008600846006840F001000860254824302E
:100A5000006840F08050234924310860C8142349BD
:100A6000086000BF2148406800F010000028F9D15C
:100A70001C48083000681B490831086008460068B7
:100A800008600846006808600846006820F47D0099
:100A900008600846006840F49A0008601148006841
:100AA00040F080700F49086000BF0E48006800F0F9
:100AB00000700028F9D00B480830006820F00300CF
:100AC0000849083108600846006840F003000860E3
:100AD00000BF04480830006800F00C000C28F8D172
:100AE0000CBD000000380240003C02400070004095
:100AF0007047000010B51548006840F48070134935
:100B00000860124808300068114908400F49083150
:100B100008600E4800680F4908400C490860084604
:100B2000006820F48020086008480830006820F43D
:100B30007D000649083108600020091D0860FFF7A4
:100B40004FFF4FF000600449086010BD00380240BC
:100B50000CC0FF88FEFFFEEE08ED00E000B5074880
:100B6000008800F0010038B1FFF780FD03480088DD
:100B700020F001000149088000BD0000100800407D
:100B80001C48008800F0400038B31B4890F8320041
:100B9000401C322804D10020174981F8320006E0B9
:100BA000154890F83200401C134981F83200124871
:100BB00090F83200104991F83310884207D00E485F
:100BC00090F832000C49085C0A49091D0880094860
:100BD000008820F04000074908800648008800F09F
:100BE000200028B10348008820F020000149088037
:100BF00070470000003801407E00002010B5102032
:100C0000FFF7EAFA2A4908601020FFF7E5FA2949B8
:100C100008601020FFF7E0FA274908601020FFF76E
:100C2000DBFA264908602348006821490968086002
:100C300000201F49096888601D49096848602048EC
:100C40001B490968C8601C4800681A49096808609F
:100C500000201849096888601649096848601948E1
:100C600014490968C8601548006813490968086094
:100C700000201149096888600F49096848601248D6
:100C80000D490968C8600A4800680C49096808608D
:100C900000200A49096888600849096848600B48CB
:100CA00006490968C860024800680949086010BD23
:100CB0004000002044000020480000204C0000209C
:100CC0002D0E00085D0E00088D0E0008BD0E0008F8
:100CD0005000002010B5FFF751FDFFF7D3FDFFF7DF
:100CE000CFFD10BD70B504460D461646012C08D147
:100CF00000BF324629460120FFF7E0FD0028F8D06A
:100D000007E000BF324629460020FFF7D7FD002844
:100D1000F8D0134890F8291090F82800401C814220
:100D200008D00F4890F82900C0B90D4890F8280065
:100D30000A2813D10B48008840F040000949088078
:100D40000948808A20F4004007498882044890F8C6
:100D50002800034931F820000249888170BD000055
:100D60005400002000300140000002403EB52948F8
:100D7000006840F0020027490860081D006840F440
:100D80008040091D08600720002100910B460222C7
:100D9000CDE9011006210B20FFF7A6FB072000215B
:100DA00000910B460222CDE9011001460B20FFF70E
:100DB0009BFB194800684FF49641B0FBF1F01749CE
:100DC0000880081D008842F26C0108431349091D80
:100DD0000880252000F01F02012191404209920065
:100DE00002F1E022C2F8001100BF0121002807DA59
:100DF0000A07140E0A4A00F00F031B1FD45403E025
:100E00000A07130E074A135400BF0020064981F851
:100E100032003EBD1C38024000000020083801406E
:100E200018ED00E000E400E07E00002010B504466C
:100E3000022C02D0042C0DD108E00120FFF71CFB8E
:100E40000548006800680449086003E00120FFF7D6
:100E500013FB00BF00BF10BD5000002010B50446BA
:100E6000022C02D0042C0DD108E00120FFF704FB76
:100E70000548006800680449086003E00120FFF7A6
:100E8000FBFA00BF00BF10BD5000002010B50446A3
:100E9000022C02D0042C0DD108E00120FFF7ECFA5F
:100EA0000548006800680449086003E00120FFF776
:100EB000E3FA00BF00BF10BD5000002010B504468B
:100EC000022C02D0042C0DD108E00120FFF7D4FA47
:100ED0000548006800680449086003E00120FFF746
:100EE000CBFA00BF00BF10BD500000200EB5144863
:100EF000006840F001001249086000200090019055
:100F000003460122014602900A20FFF7EDFA0D4840
:100F1000008B40F001000B490883FFF76FFEFFF7DD
:100F200025FFFFF7D7FE002218211046FFF7DAFE53
:100F3000002219211046FFF7D5FE00BFFEE7000092
:100F40001C380240000002400300640032003200FE
:100F50000A000A000A000A000A000300000000005C
:100F6000800F00080000002054000000300100083D
:100F7000D40F000854000020C40600004C010008F3
:100F80000048E801030406080C1018203000000097
:100F90000000000000010203040607080900000029
:100FA0000000000000000000000000000000000041
:100FB0000000000000000000480F0008480F000873
:100FC0000000000000000000000000000000000021
:040FD000000000001D
:040000050800019955
:00000001FF
