:020000040800F2
:10000000C80B002099010008A1010008A301000805
:10001000A5010008A7010008A901000800000000D0
:10002000000000000000000000000000AB0100081C
:10003000AD01000800000000AF010008F514000841
:10004000B3010008B3010008B3010008B3010008C0
:10005000B3010008B3010008B3010008B3010008B0
:10006000B3010008B3010008B3010008B3010008A0
:10007000B3010008B3010008B3010008B301000890
:10008000B3010008B3010008B3010008B301000880
:10009000B3010008B3010008B301000865050008BA
:1000A000B3010008B3010008B3010008B301000860
:1000B000B3010008B3010008B3010008B301000850
:1000C000B3010008B3010008B3010008851200085D
:1000D000B3010008A1150008B3010008B30100082E
:1000E000CD040008B3010008B30100087D15000825
:1000F000B301000800F002F800F03EF80AA090E812
:10010000000C82448344AAF10107DA4501D100F0D2
:1001100033F8AFF2090EBAE80F0013F0010F18BF61
:10012000FB1A43F001031847D01F0000F01F000026
:10013000103A24BF78C878C1FAD8520724BF30C813
:1001400030C144BF04680C607047000000230024E5
:1001500000250026103A28BF78C1FBD8520728BFD7
:1001600030C148BF0B6070471FB59DE8030000F029
:1001700081F81FBD10B510BD00F000F91146FFF762
:10018000F3FF01F09BFB00F01EF903B4FFF7F2FF51
:1001900003BC00F04BF900000948804709480047BC
:1001A000FEE7FEE7FEE7FEE7FEE7FEE7FEE7FEE727
:1001B000FEE7FEE704480549054A064B7047000084
:1001C00015150008F5000008C8050020C80B002020
:1001D000C8070020C807002070B5064600F02EF8BA
:1001E000056806F10B0020F00704B4429CBF002014
:1001F00070BD2B466A68BAB11068A04210D304F1F2
:10020000080188423CBF5068586007D351681019F4
:1002100041601168091B016058601460101D70BDB9
:1002200013465268002AE7D12146284600F00EF80E
:100230000028DED170BD7047704770470048704796
:1002400070050020704770477047704738B5044606
:100250000A4600206946AFF30080002808BF38BD79
:1002600002460099204600F067F8012038BD0120C1
:1002700000F07CB8F8B5AFF30080054600200C46CE
:10028000102000BF0646A819A0420DD93246694683
:100290000020AFF30080070008BF00F067F8009867
:1002A000A04218BF0546C419FFF7C8FF05600746FE
:1002B000F01D20F007004619284600F00AF8B44265
:1002C00008BFF8BDA21B31463868BDE8F84000F011
:1002D00033B800210160C0E9011070471020704759
:1002E00070B50446051FFFF7A9FF0068002C14BF76
:1002F000446870BD002C18BFAC423CBF2046646807
:10030000F8D301680A18AA4218BF456003D12A68C9
:1003100005461144016028684119A1421CBF6C6068
:1003200070BD6168696021680844286070BD000084
:100330000048704768050020034640688C46002846
:1003400018BF88423CBF03464068F8D31868184479
:10035000884207D00CF1030020F00700001D411A6D
:10036000521A0146081D0A60FFF7BABF10B500F027
:1003700035F8BDE8104000F02CB870477546FFF71F
:10038000D7FFAE4605006946534620F00700854674
:1003900018B020B5FFF70EFFBDE820404FF0000673
:1003A0004FF000074FF000084FF0000B21F007015D
:1003B000AC46ACE8C009ACE8C009ACE8C009ACE8A0
:1003C000C0098D4670470446AFF300802046FFF712
:1003D000DCFE002801D000F029B8704710B50128D4
:1003E00005D0002103A000F027F8012010BD09A1CD
:1003F000F8E7000053494752544D454D3A204F7598
:1004000074206F662068656170206D656D6F72790C
:10041000000000003A2048656170206D656D6F72C4
:100420007920636F727275707465640001491820D9
:10043000ABBEFEE72600020070B505460C460A205A
:1004400000E06D1C00F011F835B128780028F8D1D3
:1004500002E0641C00F009F814B120780028F8D1FB
:10046000BDE870400A20AFF3008008B569468DF8FA
:1004700000000320ABBE08BD00B5024600F0AEF997
:100480000A49086000200A4908600A4908600A49C8
:1004900008600A4908700A4800680088094908602D
:1004A00012B101200849087000BD00002C00002096
:1004B000200000202800002024000020340000201C
:1004C00038000020300000203500002010B51A4808
:1004D000006800F4005000282DD0002201211046B1
:1004E00000F01AFBC4B204F01C000C2802D113A0C7
:1004F00001F0D2F804F01C00102816D100F07AFCAC
:1005000000F0D4FC00F0AAFB104890F8410018B1AC
:100510000021084600F0EAFC0C4890F8420010B9AF
:100520000BA001F0B9F800F08DFC0348006840F41E
:1005300000500149086010BD140401405061636B14
:1005400065742073656E742E0A000000B6000020EA
:10055000496E7465727072617465732061733A0AD2
:100560000000000010B52648006800F04000002898
:1005700044D024480079E8B122480168012000F005
:1005800017FFB0F57A7F11D21E480079401C1D4933
:10059000087108460079052801DD05200871002151
:1005A000084600F005FF174908600EE000201549D5
:1005B00008710AE013480079401C124908710021B3
:1005C000084600F0F5FE0F4908600E48007905283E
:1005D00003D10DA001F060F80AE00FA001F05CF873
:1005E00008490879002101F062F810A001F054F8E0
:1005F0000348006840F040000149086010BD000059
:10060000140401405C000020466973682063617532
:10061000676874210A000000526F6C6C6572206D6F
:100620006F76656420776974682023002073657194
:1006300075656E63652E0A002DE9F0430546DDE918
:100640000767099C0A2D04D00B2D0ED00C2D24D148
:1006500017E0DFF878C1DCF800C04CF0010CDFF8DF
:100660006C81C8F800C05A4817E0DFF860C1DCF8B8
:1006700000C04CF0020CDFF85481C8F800C05548A7
:100680000BE0DFF848C1DCF800C04CF0040CDFF8E8
:100690003C81C8F800C0504800BF00BFD0F800C07F
:1006A0004FEA41094FF0030808FA09F82CEA080C50
:1006B000C0F800C0D0F80CC04FEA41094FF0030861
:1006C00008FA09F82CEA080CC0F80CC0D0F800C0F1
:1006D0004FEA410802FA08F84CEA080CC0F800C0DA
:1006E000012A03D0022A01D0002A6CD1D0F80CC014
:1006F0004FEA410803FA08F84CEA080CC0F80CC0AD
:10070000012A01D0022A5ED1B0F804C04FEA4109A3
:100710004FF0010808FA09F82CEA080CA0F804C008
:10072000D0F808C04FEA41094FF0030808FA09F869
:100730002CEA080CC0F808C0B0F804C006FA01F8AA
:100740004CEA080CA0F804C0D0F808C04FEA4108F1
:1007500007FA08F84CEA080CC0F808C0022A32D19F
:10076000082916DAD0F820C04FEA81094FF00F08A7
:1007700008FA09F82CEA080CC0F820C0D0F820C00C
:100780004FEA810804FA08F84CEA080CC0F820C0C7
:1007900019E0D0F824C0A1F108084FEA88094FF009
:1007A0000F0808FA09F82CEA080CC0F824C0D0F8A1
:1007B00024C0A1F108084FEA880804FA08F84CEAB6
:1007C000080CC0F824C0BDE8F08300001C380240CB
:1007D0000000024000040240000802400548008A70
:1007E000C0F340000349098A01F0040140EA5100C6
:1007F00070470000000002400648006838B1054814
:100800000068401E034908600348006870470020E4
:10081000FCE7000024000020200000203EB500205E
:100820000090019001230246062102900A20FFF762
:1008300003FF1A48006840F0010018490860184892
:10084000C0681749C8601748006840F04000154963
:10085000086014480C30006840F0400011490C3129
:10086000086017200121002807DA0A07140E0E4A33
:1008700000F00F031B1FD45403E00A07130E0B4AAA
:10088000135400BF1720012181404209920002F158
:10089000E022C2F8001100BF3EBD00002038024037
:1008A000000001400004014018ED00E000E400E019
:1008B0000EB52048006840F010001E4908601D4831
:1008C0000838006840F001001A4908390860002023
:1008D0000090019003460246012102900A20FFF792
:1008E000ABFE0020009001900346024602210290D8
:1008F0000A20FFF7A1FE42F210700F49C8622020C3
:1009000008850846808940F0010088812B2000F08E
:100910001F02012191404209920002F1E022C2F837
:10092000001100BF0448008840F00100024908801F
:100930000EBD0000243802400010004000B5FFF753
:100940004DFF034620480068984203D00020FFF77F
:1009500093FD00BD13B11D48007820B113B90020EC
:100960001A490870F5E71A480068401C18490860E1
:10097000184803600846006817490968884220D370
:1009800016480068401C154908601548006815495C
:1009900008600846016814480078401C31F81000CF
:1009A00020B111480078401C0F4908700D480068BC
:1009B0000D49097830F811000749096808440649CB
:1009C000086000BFC5E700002C00002035000020B3
:1009D00028000020200000203000002024000020FB
:1009E0003C000020380000203400002010B510200A
:1009F000FFF7F2FB2A4908601020FFF7EDFB2949B9
:100A000008601020FFF7E8FB274908601020FFF777
:100A1000E3FB26490860234800682149096808600B
:100A200000201F49096888601D49096848602048FE
:100A30001B490968C8601C4800681A4909680860B1
:100A400000201849096888601649096848601948F3
:100A500014490968C86015480068134909680860A6
:100A600000201149096888600F49096848601248E8
:100A70000D490968C8600A4800680C49096808609F
:100A800000200A49096888600849096848600B48DD
:100A900006490968C860024800680949086010BD35
:100AA0004000002044000020480000204C000020AE
:100AB0006919000899190008C9190008F9190008EE
:100AC000500000201349098821F40061114A118067
:100AD00000BF1049098901F080010029F9D10D49B1
:100AE000888100BF0B49098901F001010029F9D073
:100AF00008498989C8B200BF0649098901F0800107
:100B00000029F9D10349098841F40061014A1180A3
:100B1000704700000030014010B5034613B1012BAF
:100B20007ED146E04348008840F04000414C2080A0
:100B30004148808A20F400403F4CA0823D48808993
:100B4000C2B200BF3B48008900F002000028F9D083
:100B500000BF3848008900F080000028F9D140EA41
:100B60000120344CA08100BF3248008900F002000F
:100B70000028F9D000BF2F48008900F001000028AC
:100B8000F9D02C488089C2B200BF2A48008900F001
:100B900080000028F9D12848808A40F40040264C83
:100BA000A0822448008820F04000224C208010467B
:100BB00010BD2048008840F040001E4C20801E4898
:100BC000808A20F400401C4CA08200BF1948008994
:100BD00000F002000028F9D000BF1648008900F09C
:100BE00080000028F9D141F0800042EA0020114C39
:100BF000A08100BF0F48008900F002000028F9D052
:100C000000BF0C48008900F080000028F9D10A4894
:100C1000808A40F40040084CA0820648008800E02A
:100C200004E020F04000034C208000BF00BF00BF64
:100C3000BEE70000003001400000024070B50446ED
:100C40000D46002221461046FFF766FF2843C6B234
:100C5000324621460120FFF75FFF70BD70B54A485C
:100C6000008840F04000484908804848808A20F4C5
:100C70000040464988820020FFF724FF0020FFF74C
:100C800021FF434981F840000020FFF71BFF404946
:100C900081F83F00084690F84000C01E81F83D00F2
:100CA0000020FFF70FFF3A4981F83E000020FFF7D0
:100CB00009FF054605F08000354981F8420005F03E
:100CC000400081F84100002406E00020FFF7FAFE12
:100CD0002F490855601CC4B22D4890F83D00A04231
:100CE000F3DC2B4890F83D003D2805DA0020284928
:100CF00091F83D10264A50542448808A40F4004020
:100D0000224988822048008820F040001E4908803F
:100D1000002000F0AFF81E49A1F844001DA000F02B
:100D2000BBFC1B4991F83E00002100F0C0FC1FA055
:100D300000F0B2FC164991F83F00002100F0B7FC2A
:100D40001CA000F0A9FC124991F83D00002100F020
:100D5000AEFC1AA000F0A0FC0D49B1F9440000213E
:100D600000F0A5FC18A000F097FC094890F842009C
:100D700010B117A000F090FC054890F8410010B1A8
:100D800017A000F089FC70BD003001400000024057
:100D9000B60000205061636B6574207265636569FD
:100DA0007665642066726F6D3A20000020746F3A99
:100DB00020000000207769746820000020627974A8
:100DC000657320616E64200020525353492E200029
:100DD00041434B2072656365697665642E0A0000A5
:100DE00049742072657175657374732041434B2E8D
:100DF0000A00000010B5242201210846FFF78CFEEE
:100E0000042201210846FFF787FE04E004220121A5
:100E10000846FFF781FE002201211046FFF77CFE05
:100E200000F01C000428F1D101A000F035FC10BD39
:100E30004C697374656E206D6F6465204F46462E55
:100E40000A00000010B5012000F0BEF94022012187
:100E50000846FFF761FE02A000F01EFC10BD000076
:100E60004C697374656E206D6F6465204F4E2E0A59
:100E70000000000030B5044600256CB1012123209C
:100E8000FFF7DCFE00BF002223211046FFF744FEDF
:100E900000F002000028F6D0002224211046FFF7BF
:100EA0003BFE404205B26D10284630BD00B5002023
:100EB0000D4981F83D0081F83E0081F83F0081F83E
:100EC000400081F8410081F84200A1F8440000226E
:100ED00028211046FFF720FE00F0040018B104217D
:100EE0003D20FFF7ABFE00BDB6000020F8B504467C
:100EF0000D460F4890F83E60B0F9447004213D2043
:100F0000FFF79CFE012000232A4621460090304630
:100F100000F01AF807A000F0BFFB0021304600F0F7
:100F2000C6FB08A000F0B8FB0148A0F84470F8BD6B
:100F3000B600002041434B5F73656E7420746F3AB6
:100F4000200000000A0000002DE9F84F8346894682
:100F500014461E46DDF828A0012000F035F90021D6
:100F6000084600F0CBF83D2C00DD3D24BAF1000F1F
:100F700001D0802701E006B140274048008840F0BA
:100F800040003E4908803E48808A20F400403C49A9
:100F900088828020FFF796FDE11CC8B2FFF792FD22
:100FA0005846FFF78FFD374991F84600FFF78AFD55
:100FB0003846FFF787FD002505E019F80500FFF723
:100FC00081FD681CC5B2A542F7DB2D48808A40F43C
:100FD00000402B4988822948008820F0400027499A
:100FE0000880042000F0F0F80021084600F0E0F945
:100FF000009000BF2448008800F4005030B9012060
:10100000009900F0D5F9B0F57A7FF3D31E48008837
:1010100000F40050002826D01CA000F03DFB002169
:10102000584600F044FB1EA000F036FB154991F82D
:101030004600002100F03BFB1BA000F02DFB00212F
:10104000204600F034FB1AA000F026FBBAF1000F96
:1010500002D01AA000F020FB16B11CA000F01CFB6F
:101060004FF0010804E01EA000F016FB4FF000084E
:10107000012000F0A9F84046BDE8F88F003001409B
:1010800000000240B6000020100802405061636B6F
:1010900065742073656E7420746F3A200000000040
:1010A0002066726F6D3A2000207769746820000016
:1010B0002062797465732E2000000000497420734B
:1010C000656E64732041434B2E0A00004974207200
:1010D000657175657374732041434B2E0A000000DF
:1010E0005061636B65742073656E64696E6720740C
:1010F000696D6564206F75742E0A000070B5054631
:101100000C46062D5ED2DFE805F0031221303F4E7B
:10111000002225211046FFF7FFFC20F0C0002043ED
:10112000C6B2324625210120FFF7F6FC4AE0002234
:1011300025211046FFF7F0FC20F030002043C6B216
:10114000324625210120FFF7E7FC3BE00022252164
:101150001046FFF7E1FC20F00C002043C6B23246F7
:1011600025210120FFF7D8FC2CE000222521104684
:10117000FFF7D2FC20F003002043C6B232462521FF
:101180000120FFF7C9FC1DE0002226211046FFF7D1
:10119000C3FC20F0C0002043C6B232462621012005
:1011A000FFF7BAFC0EE0002226211046FFF7B4FC40
:1011B00020F030002043C6B2324626210120FFF73E
:1011C000ABFC00BF00BF70BD30B50446052C4DD24E
:1011D000DFE804F03F302112030000220121104615
:1011E000FFF79AFC00F0E30040F00C052A460121CD
:1011F0000846FFF791FC39E0002201211046FFF775
:101200008BFC00F0E30040F010052A46012108465F
:10121000FFF782FC2AE0002201211046FFF77CFC48
:1012200000F0E30040F008052A4601210846FFF7D8
:1012300073FC1BE0002201211046FFF76DFC20F03B
:101240001C00001DC5B22A4601210846FFF764FCB8
:101250000CE0002201211046FFF75EFC00F0E305E0
:101260002A4601210846FFF757FC00BF00BF00BF18
:101270002CB90348008A00F480700028F8D030BDF3
:10128000000002403349098901F0010100295FD0C3
:10129000304988893049898A41F400412E4A918237
:1012A0002C49098821F040012A4A11802B4991F8E4
:1012B00050102A4A02EB81018978114691F85010AA
:1012C000491C142903D1002182F8501006E023495B
:1012D00091F85010491C214A82F850101F4991F88A
:1012E00050101E4A92F8512091421DD100BF194959
:1012F000098901F080010029F9D11749898A41F44F
:101300000041154A91821349098821F04001114A90
:1013100011801146098821F0400111801146898809
:1013200021F04001918013E00A49098841F0400111
:10133000084A11800849898A21F40041064A9182AD
:10134000064991F85010054A32F82110014A91815E
:10135000704700000030014000000240640000209F
:1013600010B54FF0E020006940F002004FF0E0219E
:10137000086141F2941048610846006940F001009C
:10138000086148170121002807DA0A07140E064AE7
:1013900000F00F031B1FD45403E00A07130E034A87
:1013A000135400BF10BD000018ED00E000E400E0A1
:1013B000024612B90A4800687047012A0DD1084850
:1013C0000068884203D306480068401AF4E7C1F178
:1013D000FF30034B1B681844EEE700BFECE700004A
:1013E000580000200CB50020019000903E48006895
:1013F00040F480303C49086000BF3B48006800F47E
:10140000003000900198401C0190009818B9019894
:10141000B0F5A06FF1D13448006800F4003010B18D
:101420000120009001E0002000900098012859D18F
:101430002E48006840F004002C4908600846006807
:1014400040F0020008600846006840F001000860B3
:1014500025482430006840F080502349243108603A
:10146000C8142349086000BF2148406800F01000FC
:101470000028F9D11C48083000681B490831086071
:10148000084600680860084600680860084600686A
:1014900020F47D0008600846006840F49A00086067
:1014A0001148006840F080700F49086000BF0E4886
:1014B000006800F000700028F9D00B480830006880
:1014C00020F003000849083108600846006840F031
:1014D0000300086000BF04480830006800F00C00FA
:1014E0000C28F8D10CBD000000380240003C02403E
:1014F0000070004006480068401C18B900200449EC
:10150000086004E002480068401C01490860704718
:101510005800002010B51548006840F48070134949
:101520000860124808300068114908400F49083126
:1015300008600E4800680F4908400C4908600846DA
:10154000006820F48020086008480830006820F413
:101550007D000649083108600020091D0860FFF77A
:1015600041FF4FF000600449086010BD00380240A0
:101570000CC0FF88FEFFFEEE08ED00E000B5074856
:10158000008A00F0010038B1FFF7D8F90348008A5B
:1015900020F001000149088200BD00000010004059
:1015A0001748008800F0400040B3164890F8E80360
:1015B000401CB0F57A7F04D10020124981F8E8037D
:1015C00006E0104890F8E803401C0E4981F8E80353
:1015D0000C4890F8E8030B4991F8E913884207D0CA
:1015E000084890F8E8030749085C0549091D088088
:1015F0000348008820F0400001490880704700003F
:1016000000380140FE0000200EB51948006840F087
:10161000020017490860081D006840F48040091D59
:1016200008600720002100910B460222CDE901103D
:1016300006210B20FFF700F80720002100910B4640
:101640000222CDE9011001460B20FEF7F5FF094803
:1016500000684FF4E131B0FBF1F007490880081D44
:10166000008842F20C0108430349091D08800EBDA1
:101670001C380240000000200838014000BF054926
:10168000098801F080010029F9D00249091D08806C
:10169000704700000038014000B5024603E01078B2
:1016A000FFF7ECFF521C10780028F8D100BD2DE99F
:1016B000F04188B005460C4684B9284600F0ACFAE3
:1016C0000646002032460B46009001A800F01CF8A8
:1016D00001A8FFF7E1FF08B0BDE8F081022C10D1AE
:1016E000284600F0D5F8804600F07FFA0646002034
:1016F00032460B46009001A800F006F801A8FFF75B
:10170000CBFF00BFE7E700002DE9F04F93B0834621
:1017100016461F46DDF87080BBF1000F01D1584816
:1017200000E058460446012012900022134630463D
:10173000394600F085FA0BD22D2004F8010B002267
:10174000504B3046394600F0B7FA06460F4605E0E2
:101750004D48006810B12B2004F8010BB8F1080FB8
:101760000BD24A4800EBC80003C832463B46CDE9DD
:10177000060100F059F906460F46002505E01298CB
:1017800000EB8000400012906D1C4545F7D33046B9
:10179000394600F0FDF98146129800F03DFACDE996
:1017A0000401484600F038FA32463B46CDE90001D4
:1017B00000F080FBCDE90201DDE9042300F07CFAB2
:1017C000CDE9060100F0E4F9824600250CE00A208C
:1017D000B9FBF0F100FB1190303029466D1C08AACE
:1017E00050540A20B9FBF0F9B9F1000FEFD11DB93F
:1017F000302004F8010B08E005E0681E08A9085C29
:1018000004F8010B6D1E002DF7D1B8F1000F2AD09E
:101810002E2004F8010B00250CE00A20BAFBF0F1A1
:1018200000FB11A0303029466D1C08AA50540A2034
:10183000BAFBF0FABAF1000FEFD104E030222846EB
:101840006D1C08A90A544545F8D31DB9302004F889
:10185000010B08E005E0681E08A9085C04F8010B0C
:101860006D1E002DF7D100202070BBF1000F01D1BB
:10187000034800E05846044613B0BDE8F08F00006E
:10188000E80400200000F0BF54000020B820000849
:1018900030B50146012300200DE00C4601EBD47564
:1018A0006D10A1EB450201EBD175691002FB03003D
:1018B00003EB830463000029EFD130BD0EB5184857
:1018C000006840F001001649086000200090019077
:1018D00003460122014602900A20FEF7ADFE1148A0
:1018E000008B40F001000F490883FFF739FDFEF738
:1018F000DFFFFFF77BF8FFF787FEFEF78FFF0AA0F9
:10190000FFF7CAFE0FA0FFF7C7FE00BFFEF774FF88
:10191000044614480068C16820468847F6E700007E
:101920001C380240000002405065726970686572A0
:10193000616C7320696E697469616C697A65642E83
:101940000A00000045787465726E616C20646576EB
:101950006963657320696E697469616C697A65642D
:101960002E0A00005000002010B50446012C0AD0B9
:10197000022C0CD10120FEF77FFD064800680068AC
:101980000449086003E00120FEF776FD00BF00BFB8
:1019900010BD00005000002010B50446012C0AD0F4
:1019A000022C0CD10120FEF767FD06480068006894
:1019B0000449086003E00120FEF75EFD00BF00BFA0
:1019C00010BD00005000002010B50446012C0AD0C4
:1019D000022C0CD10120FEF74FFD0648006800687C
:1019E0000449086003E00120FEF746FD00BF00BF88
:1019F00010BD00005000002010B50446012C0AD094
:101A0000022C0CD10120FEF737FD06480068006863
:101A10000449086003E00120FEF72EFD00BF00BF6F
:101A200010BD00005000002010B591EA030F48BF20
:101A300083F0004300F15282841A71EB030C05D24B
:101A4000121943EB0C03001B61EB0C01DFF824E1DE
:101A50004FEA1154A4EB135C1EEA430F18BF9EEA31
:101A6000445F73D023EA0E03DCF1200E21EA045117
:101A700043F4801332D322FA0CFE10EB0E0023FA4B
:101A80000CFE41EB0E01CCF1200E03FA0EFE10EB22
:101A90000E0051F10001B1F5801FCCF1200E32D2C1
:101AA00001EB045112FA0EF2BDE8104058BF704726
:101AB000401C38BF5FEA420218BF7047002814BFBD
:101AC00020F0010041F100014FEA410313F5001F2E
:101AD00038BF7047A1F1C04100F0E6B9012A43EBDD
:101AE0000302ACF1200CDCF11F0E32BF4FF0000EF0
:101AF00023FA0CF310EB030041EB0451B4EB115F3C
:101B0000D0D0A1EB045101F5801149085FEA300003
:101B100001EB04510ED350F1000038BF12FA0EFE53
:101B200008D1BDE81040C9E7401C38BF5FEA420257
:101B3000CAD1C3E7BDE810404FEA410313F5001FC7
:101B400038BF7047A1F1C04100F0AEB99EEA445FD2
:101B500008D011EA5E0FBDE8104004BF01F000415B
:101B600000207047BDE8104070B500F04FF900BF8D
:101B700064FBBE3E0000E0FF491058BFC1F1404188
:101B80005B1058BFC3F140438B42EFF300807047B6
:101B90004FEA1153A3F58063D3F11E03A8BFD3F11D
:101BA000200C08DB4FF0004242EAC12252EA5052B8
:101BB00032FA03F0704709420BD4102BC4BF002047
:101BC000704703F5787CBCF1FF3F05D04FF0FF3044
:101BD00070474FF00000704770B500F017F900BF74
:101BE0004992248000207047F0E710F0004248BF7F
:101BF0004042B0FA80F310FA03F10AD0C3F11D039A
:101C000003F580634FEA415002EB035202EBD1210E
:101C100070474FF000007047B0FA80F310FA03F1FC
:101C20000AD0C3F11D0303F580634FEA41504FEA28
:101C3000035202EBD12170474FF0000070470000C3
:101C400051EA030C17D41CF5801F58BFBCF5801F48
:101C500000F10680994218BF704708BF9042704754
:101C600007D711F5801F58BF13F5801F19D499426B
:101C70007047894270471CF5801F08D5BCF5801F4E
:101C8000F7D58B4218BF704708BF824270474FF4A8
:101C9000001C1CEB410F38BF1CEB430F01D28B42E1
:101CA000704770B500F0B2F8922449004FF000512F
:101CB0004FF08053FFF760BFDFF848C170B51CEAF2
:101CC000111E1EBF1CEA13159EEA0C0F95EA0C0F9D
:101CD00000F06F8081EA030423EA4C134EEAD47EBD
:101CE00021EA4C1141F4801143F48013AE44A1FB6E
:101CF000024CA0FB0365AEF17F7E361955EB0C0557
:101D0000A1FB034C4CF10003A0FB021C16EB0C06DC
:101D1000654153F10003094218BF46F0010613F470
:101D2000007F0BD14FEA03314FEA0530340341EA1B
:101D3000155140EA16506FF003020AE04FEAC32142
:101D40004FEAC520F40241EA555140EA56506FF07F
:101D5000020202EB2E4201EB025585EACE710AD057
:101D60005FEA440C18BF24F0004450F1000041F138
:101D7000000120EAD47040F2FE7C624500D270BDC2
:101D8000A84214BF4FF080444FF04044002E08BFDB
:101D90000024BEF1806FA8BFA1F1C041BDE8704032
:101DA00080F282804FF0000001F1C04101F000415B
:101DB00070479EEA0C0F0CEA131518BF95EA0C0F3A
:101DC00006D04FF0000081EA030E0EF0004170BD16
:101DD00000F01CF88900013E00F007B800F009B8D7
:101DE0004FEA430C5FEA5C5C08D081EA030100F033
:101DF0005BB84FEA410C5FEA5C5CF6D14FF0000043
:101E0000014970470000FF070000F87F0EF1020E45
:101E10002EF0030E5EF8046B364205D4012A43EB24
:101E2000030515F5001F12D8012841EB010C1CF524
:101E3000001F0CD80ED14FEAD17C15F5001F0CEB1A
:101E40004C0C0CF1020C08BF4CEBD37C04E04FF0BF
:101E5000080C01E04FEAD37C0CEB4C0526FA05F6A2
:101E600006F00706B6F1040C06D20EEB860CBDE8B0
:101E700070404CF0010C6047DFE80CF0090B0202E7
:101E80004FF000414FF00000A1F5002170BD194650
:101E90001046012851EB010418BFD4F5001484BF8B
:101EA000002001F0004170BD0808A0F500114FEAC4
:101EB0003101704791EA030F10B581F000413FF501
:101EC000BBAD83F0004300F009B8000010B591EA03
:101ED000030F48BF83F000433FF5AEAD841A71EBAA
:101EE000030C07D212198CF0004C43EB0C03001BBF
:101EF00061EB0C01DFF8A4E14FEA1154A4EB135C91
:101F00001EEA430F18BF9EEA445F00F0B08023EA48
:101F10006E03524221EA0451C3EB6E0338BF5B1ECD
:101F2000DCF1200E25D322FA0CFE10EB0E0043FA52
:101F30000CFE41EB0E01CCF1200E03FA0EFE10EB6D
:101F40000E0051F10001CCF1200E29D412FA0EF24C
:101F500001EB0451BDE8104058BF7047401C1CBF46
:101F6000B2F1004F704700280CBF491C20F001005F
:101F7000704712EB020E43EB030218BF4FF0010E45
:101F80004EEA4202ACF1200CDCF11E0E54D943FAA9
:101F90000CFE10EB0E0051F1FF31CCF11E0ED5D529
:101FA0000EF1010E12FA0EFE404141EB010101EB70
:101FB000445C5FEA5C5C10D910EBDE7001EB04510D
:101FC00038BFBEF1004FBDE8104018BF7047002871
:101FD0000CBF491C20F00100704730D24FEAD42CCE
:101FE00011F5001124F400641BD0B1FA81F20B3A10
:101FF000A41AA41ED2F12003914030FA03F319432E
:10200000904001EBCC71002C01EB0451BDE8104075
:10201000A8BF704701F1C0414FF0000001F000413E
:102020007047B0FA80F310FA03F100D110BDE41A42
:10203000173C4805C90AE4E701EB045110BD4910FB
:1020400001EB0451BDE810404FEA300002E04FF0D0
:10205000000170474A0008BF0042F8D0B2F5001FE7
:1020600028BF704701F000414FF0000070479EEA22
:10207000445F07D011EA5E0FBDE8104004BF0021A5
:1020800000207047BDE8104070B5FFF7BFFE00BFED
:1020900040DFF63E83F00041104670470000E0FF4D
:1020A00003006400320032000A000A000A000A003D
:1020B0000A00030000000000000000000000E03FF4
:1020C0009A9999999999A93F7B14AE47E17A743FFF
:1020D000FCA9F1D24D62403F2D431CEBE2360A3F92
:1020E000F168E388B5F8D43E8DEDB5A0F7C6A03E03
:1020F00048AFBC9AF2D76A3E1821000800000020C1
:1021000064000000300100087C2100086400002009
:10211000640B00004C0100080048E80103040608B5
:102120000C10182030000000000000000001020325
:10213000040607080900000000000000000000007D
:10214000000000000000000000000000000000008F
:10215000A0200008A02000080000000000000000EF
:10216000000000000000000000000000000000006F
:0C21700000000000000000000000000063
:040000050800019955
:00000001FF
