:020000040800F2
:10000000B00B002091010008990100089B01000835
:100010009D0100089F010008A101000800000000E8
:10002000000000000000000000000000A301000824
:10003000A501000800000000A7010008D91200086F
:10004000AB010008AB010008AB010008AB010008E0
:10005000AB010008AB010008AB010008AB010008D0
:10006000AB010008AB010008AB010008AB010008C0
:10007000AB010008AB010008AB010008AB010008B0
:10008000AB010008AB010008AB010008AB010008A0
:10009000AB010008AB010008AB010008AB01000890
:1000A000AB010008AB010008AB010008AB01000880
:1000B000AB010008AB010008AB010008AB01000870
:1000C000AB010008AB010008AB0100086910000893
:1000D000AB01000885130008AB010008AB01000864
:1000E00099020008AB010008AB0100086113000889
:1000F000AB01000800F002F800F03AF80AA090E81E
:10010000000C82448344AAF10107DA4501D100F0D2
:100110002FF8AFF2090EBAE80F0013F0010F18BF65
:10012000FB1A43F001031847501D0000701D00002A
:10013000103A24BF78C878C1FAD8520724BF30C813
:1001400030C144BF04680C607047000000230024E5
:1001500000250026103A28BF78C1FBD8520728BFD7
:1001600030C148BF0B6070471FB51FBD10B510BD33
:1001700000F037F81146FFF7F7FF01F0EFFA00F053
:1001800055F803B4FFF7F2FF03BC00F055F8000088
:100190000948804709480047FEE7FEE7FEE7FEE71B
:1001A000FEE7FEE7FEE7FEE7FEE7FEE70448054957
:1001B000054A064B70470000F9120008F5000008D8
:1001C000B0050020B00B0020B0070020B0070020D1
:1001D0007047704770470000004870474C0500208A
:1001E00070477546FFF7F8FFAE460500694653466F
:1001F00020F00700854618B020B5FFF7D7FFBDE80F
:1002000020404FF000064FF000074FF000084FF07D
:10021000000B21F00701AC46ACE8C009ACE8C0090E
:10022000ACE8C009ACE8C0098D4670470446AFF39E
:1002300000802046FFF7A5FF01491820ABBEFEE76E
:100240002600020000B5024600F012F90A490860D3
:1002500000200A4908600A4908600A4908600A49FA
:1002600008700A48006800880949086012B1012036
:100270000849087000BD000034000020280000205C
:10028000300000202C0000203C0000204000002016
:10029000380000203D00002010B51548006800F42B
:1002A000806020B300220121104600F0F9FAC4B2A8
:1002B00004F01C00102814D100F090FC00F000FDA8
:1002C00000F0CEFB0B48007818B10021084600F082
:1002D0005DFD0948007810B908A001F0E7F800F0CA
:1002E000B1FC0348006840F480600149086010BD1B
:1002F00014040140230000202400002041434B5FF0
:1003000072656365697665642E0A00002DE9F04325
:100310000546DDE90767099C0A2D04D00B2D04D0A2
:100320000C2D06D103E04F4803E04F4801E04F4851
:1003300000BF00BFD0F800C04FEA41094FF00308EA
:1003400008FA09F82CEA080CC0F800C0D0F80CC074
:100350004FEA41094FF0030808FA09F82CEA080CA3
:10036000C0F80CC0D0F800C04FEA410802FA08F803
:100370004CEA080CC0F800C0012A03D0022A01D0C0
:10038000002A6CD1D0F80CC04FEA410803FA08F8F3
:100390004CEA080CC0F80CC0012A01D0022A5ED138
:1003A000B0F804C04FEA41094FF0010808FA09F813
:1003B0002CEA080CA0F804C0D0F808C04FEA4109A4
:1003C0004FF0030808FA09F82CEA080CC0F808C036
:1003D000B0F804C006FA01F84CEA080CA0F804C012
:1003E000D0F808C04FEA410807FA08F84CEA080CB0
:1003F000C0F808C0022A32D1082916DAD0F820C085
:100400004FEA81094FF00F0808FA09F82CEA080CA6
:10041000C0F820C0D0F820C04FEA810804FA08F8DC
:100420004CEA080CC0F820C019E0D0F824C0A1F1B3
:1004300008084FEA88094FF00F0808FA09F82CEA73
:10044000080CC0F824C0D0F824C0A1F108084FEA75
:10045000880804FA08F84CEA080CC0F824C0BDE883
:10046000F083000000000240000402400008024047
:100470000648008AC0F340000449098A01F00401DB
:1004800040EA510106208843704700000000024006
:1004900000B5FFF7EDFF034620480068984203D0FF
:1004A0000020FFF7CFFE00BD13B11D48007820B13A
:1004B00013B900201A490870F5E71A480068401C73
:1004C0001849086018480360084600681749096819
:1004D000884220D316480068401C1549086015481A
:1004E0000068154908600846016814480078401CF7
:1004F00031F8100020B111480078401C0F490870F5
:100500000D4800680D49097830F81100074909685D
:1005100008440649086000BFC5E700003400002019
:100520003D0000203000002028000020380000207E
:100530002C00002044000020400000203C0000204F
:1005400000F01F02012191404209920002F1E022D5
:10055000C2F80011704700000EB52548006840F051
:100560000300234908600020009001900346012207
:10057000092102900A20FFF7C9FE0520012100226F
:100580001346CDE900210290022203210B20FFF740
:10059000BDFE0520012100221346CDE90021029075
:1005A000022201460B20FFF7B1FE052001210022A7
:1005B0000B46CDE900210290022204210B20FFF717
:1005C000A5FE002000900190034601220F21029019
:1005D0000A20FFF79BFE0748808A40F40040054947
:1005E00088820548008820F04000034908800EBD3D
:1005F0001C38024000000240003001403EB500F0CF
:1006000093FB00BFAA222F21012000F049F900220C
:100610002F21104600F044F9AA28F3D100BF55223B
:100620002F21012000F03CF900222F21104600F07C
:1006300037F95528F3D100220121104600F030F996
:1006400004220121084600F02BF900220121104666
:1006500000F026F900220221012000F021F90222F7
:100660000321012000F01CF940220421012000F0A8
:1006700017F903220521012000F012F93322062187
:10068000012000F00DF9D9220721012000F008F91E
:1006900000220821012000F003F900220921012095
:1006A00000F0FEF842221921012000F0F9F8402262
:1006B0002521012000F0F4F807222621012000F076
:1006C000EFF830222621012000F0EAF8102228213C
:1006D000012000F0E5F8DC222921012000F0E0F8FB
:1006E00088222E21012000F0DBF82D222F2101206D
:1006F00000F0D6F864223021012000F0D1F89022D9
:100700003721012000F0CCF842223821012000F0EE
:10071000C7F88F223C21012000F0C2F812223D21AF
:10072000012000F0BDF830226F21012000F0B8F860
:1007300031A000F047F9002000F016FC012000F085
:1007400034FC00BF00222721104600F0A9F800F079
:1007500080000028F6D098220D21012000F0A0F89A
:1007600018220E21012000F09BF89C220F2101206D
:1007700000F096F8002000900190012302460A2123
:1007800002900846FFF7C2FD204800691F49086132
:100790001F48006840F480601D4908601C4808300C
:1007A000006840F480601A4908310860282001215F
:1007B000002807DA0A07140E164A00F00F031B1F61
:1007C000D45403E00A07130E134A135400BF282021
:1007D000FFF7B6FE00200090019001230246082199
:1007E00002900A20FFF792FD12200C49087000F0D9
:1007F00029FA01203EBD000046697368696E674DA5
:100800006F6E737465727321000000000000014078
:100810000004014018ED00E000E400E01E000020AC
:1008200010B50848006840F4805006490860064842
:10083000008840F624310843034908802320FFF74D
:100840007FFE10BD20380240003001401349098866
:1008500021F40061114A118000BF1049098901F09B
:1008600080010029F9D10D49888100BF0B49098910
:1008700001F001010029F9D008498989C8B200BFF7
:100880000649098901F080010029F9D10349098845
:1008900041F40061014A11807047000000300140BE
:1008A00010B5034613B1012B7ED146E043480088C2
:1008B00040F04000414C20804148808A20F40040B4
:1008C0003F4CA0823D488089C2B200BF3B480089AE
:1008D00000F002000028F9D000BF3848008900F07D
:1008E00080000028F9D140EA0120344CA08100BFEB
:1008F0003248008900F002000028F9D000BF2F48DC
:10090000008900F001000028F9D02C488089C2B28B
:1009100000BF2A48008900F080000028F9D128484B
:10092000808A40F40040264CA0822448008820F0B1
:100930004000224C2080104610BD2048008840F026
:1009400040001E4C20801E48808A20F400401C4C31
:10095000A08200BF1948008900F002000028F9D0E9
:1009600000BF1648008900F080000028F9D141F04E
:10097000800042EA0020114CA08100BF0F4800898E
:1009800000F002000028F9D000BF0C48008900F0F8
:1009900080000028F9D10A48808A40F40040084CC1
:1009A000A0820648008800E004E020F04000034CEC
:1009B000208000BF00BF00BFBEE700000030014044
:1009C0000000024070B50446012000F0EEFA44B386
:1009D0001D48008840F040001B4908801B48808A61
:1009E00020F4004019498882BE20FFF72FFF002520
:1009F00004E0605DFFF72AFF681CC5B2102DF8DB2C
:100A00001248808A40F40040104988820E480088CD
:100A100020F040000C4908800846008820F0400083
:100A2000088000223D211046FFF73AFF00F0FE004B
:100A30000CB1012100E0002140EA010632463D21CF
:100A40000120FFF72DFF70BD003001400000024083
:100A500010B5FFF781FDFFF7E3FEFFF7CFFD10BDF7
:100A600070B54148008840F040003F4908803F4849
:100A7000808A20F400403D4988820020FFF7E6FE8E
:100A80000020FFF7E3FE3A4908700020FFF7DEFE82
:100A90003849087036480078C01E37490870002071
:100AA000FFF7D4FE354908700020FFF7CFFE04465B
:100AB00004F080003249087004F0400031490870A9
:100AC000002506E00020FFF7C1FE2F494855681CAD
:100AD000C5B2294800788542F4DB274800783D28D4
:100AE00004DA00202849244A127888541F48808A52
:100AF00040F400401D4988821B48008820F04000D7
:100B000019490880002000F0BDF82049088020A085
:100B100000F0CCFC00211948007800F019FD22A05B
:100B200000F0C4FC00211348007800F011FD20A063
:100B300000F0BCFC00211048007800F009FD1EA068
:100B400000F0B4FC0221204600F002FD1CA000F0E1
:100B5000ADFC00210D48B0F9000000F0F9FC1DA02B
:100B600000F0A4FC70BD0000003001400000024015
:100B700022000020210000201F0000202000002073
:100B80002400002023000020A200002026000020D6
:100B90005061636B65742072656365697665642076
:100BA00066726F6D3A20000020746F3A20000000DA
:100BB00020776974682000002062797465732000D2
:100BC00020636F6E74726F6C206279746520616E41
:100BD0006420000020525353492E0A0010B5002211
:100BE00001211046FFF75CFE00F0830040F0240472
:100BF000224601210846FFF753FE0022012110463C
:100C0000FFF74EFE00F0E300041D224601210846D6
:100C1000FFF746FE00BF002227211046FFF740FEE7
:100C200000F080000028F6D001A000F03FFC10BDCD
:100C30004C697374656E206D6F6465204F46462E57
:100C40000A0A000010B5012000F0AFF900220121CE
:100C50001046FFF725FE00F0BF0040F0400422469A
:100C600001210846FFF71CFE01A000F01FFC10BD8B
:100C70004C697374656E206D6F6465204F4E2E0A4B
:100C80000A00000030B50446002574B1012223217A
:100C90001046FFF705FE00BF002223211046FFF794
:100CA000FFFD00F002000028F6D0002224211046AB
:100CB000FFF7F6FD404205B26D10284630BD00003A
:100CC00010B50020114908701149087011490870C9
:100CD00011490870114908701149087011490880BC
:100CE000002228211046FFF7DBFD00F0040060B170
:100CF00000223D211046FFF7D3FD00F0FB00041D4C
:100D000022463D210120FFF7CBFD10BD1F00002032
:100D100020000020210000202200002023000020CD
:100D200024000020260000203EB500200090019005
:100D300003460122092102900A20FFF7E7FA124830
:100D4000808A40F40070104988820021084600F033
:100D500021FA044600BF2146012000F01BFA0028BA
:100D6000F9D00948808A20F4007007498882002160
:100D7000084600F00FFA044600BF2146012000F0AB
:100D800009FA0528F9D33EBD000002402DE9F843D9
:100D900004460D46144806781448B0F90070002245
:100DA0003D211046FFF77CFD00F0FB0000F1040838
:100DB00042463D210120FFF773FD012000232A4612
:100DC00021460090304600F01DF809A000F06EFBAF
:100DD0000021304600F0BCFB09A000F067FB03488F
:100DE0000780BDE8F88300002000002026000020D6
:100DF00041434B5F73656E7420746F3A20000000AE
:100E00000A0000002DE9F05F80460E4614461F469A
:100E1000DDF828904FF0000AFFF7E0FE00222521C0
:100E20000120FFF73DFD3D2C00DD3D24B9F1000F11
:100E300002D04FF0800A02E00FB14FF0400A37486D
:100E4000008840F04000354908803548808A20F409
:100E50000040334988828020FFF7F8FCE11CC8B2CB
:100E6000FFF7F4FC4046FFF7F1FC2E480078FFF74F
:100E7000EDFC5046FFF7EAFC002504E0705DFFF74B
:100E8000E5FC681CC5B2A542F8DB2548808A40F421
:100E90000040234988822148008820F040001F49F3
:100EA0000880042000F081F80021084600F072F963
:100EB000834600BF002228211046FFF7F1FC00F016
:100EC000080030B95946012000F064F9B0F57A7F86
:100ED000F0D3012000F069F813A000F0E7FA002138
:100EE000404600F035FB15A000F0E0FA00210D4867
:100EF000007800F02DFB13A000F0D8FA0021204666
:100F000000F026FB11A000F0D1FA0221504600F0BB
:100F10001FFB11A000F0CAFABDE8F09F00300140AD
:100F2000000002401E0000205061636B6574207356
:100F3000656E7420746F3A20000000002066726FA6
:100F40006D3A20002077697468200000206279746F
:100F5000657320616E64200020636F6E74726F6C25
:100F600020627974652E0A0030B504460CB10F205A
:100F700000E01A20024613210120FFF791FC74B112
:100F8000002211211046FFF78BFC00F01F0040F0FB
:100F900060052A4611210120FFF782FC04E09F2210
:100FA00011210120FFF77CFC30BD30B50446052C33
:100FB0004CD2DFE804F03E30211203000022012170
:100FC0001046FFF76DFC00F0E30040F00C052A46E8
:100FD00001210846FFF764FC38E000220121104699
:100FE000FFF75EFC00F0E30040F010052A46012107
:100FF0000846FFF755FC29E0002201211046FFF7C3
:101000004FFC00F0E30040F008052A4601210846A5
:10101000FFF746FC1AE0002201211046FFF740FCD2
:1010200000F0E300051D2A4601210846FFF738FCC1
:101030000CE0002201211046FFF732FC00F0E3052E
:101040002A4601210846FFF72BFC00BF00BF00BF66
:1010500044B9002227211046FFF722FC00F080004F
:101060000028F5D030BD00003349098901F00101A5
:1010700000295FD0304988893049898A41F400418C
:101080002E4A91822C49098821F040012A4A118078
:101090002B4991F850102A4A02EB810189781146B8
:1010A00091F85010491C142903D1002182F85010E6
:1010B00006E0234991F85010491C214A82F850104B
:1010C0001F4991F850101E4A92F8512091421DD1AB
:1010D00000BF1949098901F080010029F9D1174998
:1010E000898A41F40041154A91821349098821F007
:1010F0004001114A11801146098821F040011180F8
:101100001146898821F04001918013E00A4909883D
:1011100041F04001084A11800849898A21F40041C0
:10112000064A9182064991F85010054A32F821107A
:10113000014A9181704700000030014000000240E8
:101140005000002010B54FF0E020006940F0020090
:101150004FF0E021086141F29410486108460069AF
:1011600040F00100086148170121002807DA0A074A
:10117000140E064A00F00F031B1FD45403E00A07A5
:10118000130E034A135400BF10BD000018ED00E019
:1011900000E400E0024612B90A4800687047012ADC
:1011A0000DD108480068884203D306480068401AF9
:1011B000F4E7C1F1FF30034B1B681844EEE700BFB2
:1011C000ECE700004C0000200CB5002001900090DE
:1011D0003E48006840F480303C49086000BF3B480E
:1011E000006800F4003000900198401C01900098C5
:1011F00018B90198B0F5A06FF1D13448006800F437
:10120000003010B10120009001E000200090009813
:10121000012859D12E48006840F004002C4908608C
:101220000846006840F0020008600846006840F088
:101230000100086025482430006840F080502349B0
:1012400024310860C8142349086000BF2148406861
:1012500000F010000028F9D11C48083000681B4934
:1012600008310860084600680860084600680860A1
:101270000846006820F47D0008600846006840F4D5
:101280009A0008601148006840F080700F490860BB
:1012900000BF0E48006800F000700028F9D00B482D
:1012A0000830006820F0030008490831086008464B
:1012B000006840F00300086000BF04480830006880
:1012C00000F00C000C28F8D10CBD000000380240E2
:1012D000003C02400070004006480068401C18B9FD
:1012E00000200449086004E002480068401C0149ED
:1012F000086070474C00002010B51548006840F4A5
:10130000807013490860124808300068114908408D
:101310000F49083108600E4800680F4908400C4921
:1013200008600846006820F48020086008480830FB
:10133000006820F47D000649083108600020091D7E
:101340000860FFF741FF4FF000600449086010BDDE
:10135000003802400CC0FF88FEFFFEEE08ED00E002
:1013600000B50748008A00F0010038B1FFF790F897
:101370000348008A20F001000149088200BD0000F6
:10138000001000401748008800F0400040B31648A5
:1013900090F8E803401CB0F57A7F04D10020124990
:1013A00081F8E80306E0104890F8E803401C0E4975
:1013B00081F8E8030C4890F8E8030B4991F8E91329
:1013C000884207D0084890F8E8030749085C0549B7
:1013D000091D08800348008820F04000014908806A
:1013E0007047000000380140DF0000203EB529486A
:1013F000006840F0020027490860081D006840F4BA
:101400008040091D08600720002100910B46022240
:10141000CDE9011006210B20FEF778FF07200021FF
:1014200000910B460222CDE9011001460B20FEF788
:101430006DFF194800684FF4E131B0FBF1F0174936
:101440000880081D008842F24C0108431349091D19
:101450000880252000F01F020121914042099200DE
:1014600002F1E022C2F8001100BF0021002807DAD3
:101470000A07140E0A4A00F00F031B1FD45403E09E
:101480000A07130E074A135400BF0020064981F8CB
:10149000E8033EBD1C38024000000020083801402F
:1014A00018ED00E000E400E0DF00002000B5034696
:1014B00006E000BF187800F007F80028FAD05B1C9F
:1014C00018780028F5D100BD01461F4890F8E903BF
:1014D00040F2E732904205D11B4890F8E80358B932
:1014E00000207047184890F8E82390F8E903401C62
:1014F000824201D10020F4E7134890F8E903124A30
:101500001154104690F8E90392F8E823904206D16E
:101510000D4890F8E8030C4A105C0C4A10800A4809
:1015200090F8E903401CB0F57A7F04D10020064A08
:1015300082F8E90306E0044890F8E903401C024AF7
:1015400082F8E9030120CCE7DF00002004380140E5
:101550002DE9F04188B005460C4684B9284600F0D4
:1015600019FA0646002032460B46009001A800F00A
:101570001BF801A8FFF79AFF08B0BDE8F081022C24
:1015800010D1284600F0D4F8804600F0ECF9064669
:10159000002032460B46009001A800F005F801A893
:1015A000FFF784FF00BFE7E72DE9F04F93B08346D4
:1015B00016461F46DDF87080BBF1000F01D1584878
:1015C00000E058460446012012900022134630469F
:1015D000394600F0F3F90BD22D2004F8010B00225C
:1015E000504B3046394600F025FA06460F4605E0D6
:1015F0004D48006810B12B2004F8010BB8F1080F1A
:101600000BD24A4800EBC80003C832463B46CDE93E
:10161000060100F0C7F806460F46002505E01298BF
:1016200000EB8000400012906D1C4545F7D330461A
:10163000394600F06BF98146129800F0ABF9CDE91C
:101640000401484600F0A6F932463B46CDE90001C8
:1016500000F0EEFACDE90201DDE9042300F0EAF939
:10166000CDE9060100F052F9824600250CE00A207F
:10167000B9FBF0F100FB1190303029466D1C08AA2F
:1016800050540A20B9FBF0F9B9F1000FEFD11DB9A0
:10169000302004F8010B08E005E0681E08A9085C8A
:1016A00004F8010B6D1E002DF7D1B8F1000F2AD000
:1016B0002E2004F8010B00250CE00A20BAFBF0F103
:1016C00000FB11A0303029466D1C08AA50540A2096
:1016D000BAFBF0FABAF1000FEFD104E0302228464D
:1016E0006D1C08A90A544545F8D31DB9302004F8EB
:1016F000010B08E005E0681E08A9085C04F8010B6E
:101700006D1E002DF7D100202070BBF1000F01D11C
:10171000034800E05846044613B0BDE8F08F0000CF
:10172000C90400200000F0BF48000020381E000857
:1017300030B50146012300200DE00C4601EBD475C5
:101740006D10A1EB450201EBD175691002FB03009E
:1017500003EB830463000029EFD130BD0EB50F48C1
:10176000006840F001000D490860002000900190E1
:1017700003460122014602900A20FEF7C7FD0848F1
:10178000008B40F0010006490883FFF7DBFCFFF700
:101790002DFEFFF75DF900BFFEE700001C38024098
:1017A0000000024010B591EA030F48BF83F00043E8
:1017B00000F15282841A71EB030C05D2121943EB2B
:1017C0000C03001B61EB0C01DFF824E14FEA11541C
:1017D000A4EB135C1EEA430F18BF9EEA445F73D06C
:1017E00023EA0E03DCF1200E21EA045143F48013B6
:1017F00032D322FA0CFE10EB0E0023FA0CFE41EB62
:101800000E01CCF1200E03FA0EFE10EB0E0051F18A
:101810000001B1F5801FCCF1200E32D201EB045152
:1018200012FA0EF2BDE8104058BF7047401C38BF96
:101830005FEA420218BF7047002814BF20F0010081
:1018400041F100014FEA410313F5001F38BF704713
:10185000A1F1C04100F0E6B9012A43EB0302ACF16B
:10186000200CDCF11F0E32BF4FF0000E23FA0CF3F8
:1018700010EB030041EB0451B4EB115FD0D0A1EBAE
:10188000045101F5801149085FEA300001EB045171
:101890000ED350F1000038BF12FA0EFE08D1BDE899
:1018A0001040C9E7401C38BF5FEA4202CAD1C3E713
:1018B000BDE810404FEA410313F5001F38BF7047E1
:1018C000A1F1C04100F0AEB99EEA445F08D011EA30
:1018D0005E0FBDE8104004BF01F0004100207047DA
:1018E000BDE8104070B500F04FF900BF64FBBE3E8C
:1018F0000000E0FF491058BFC1F140415B1058BFE4
:10190000C3F140438B42EFF3008070474FEA11531D
:10191000A3F58063D3F11E03A8BFD3F1200C08DB2D
:101920004FF0004242EAC12252EA505232FA03F02A
:10193000704709420BD4102BC4BF0020704703F539
:10194000787CBCF1FF3F05D04FF0FF3070474FF07F
:101950000000704770B500F017F900BF499224806D
:1019600000207047F0E710F0004248BF4042B0FA54
:1019700080F310FA03F10AD0C3F11D0303F580636D
:101980004FEA415002EB035202EBD12170474FF076
:1019900000007047B0FA80F310FA03F10AD0C3F1E7
:1019A0001D0303F580634FEA41504FEA035202EBF7
:1019B000D12170474FF000007047000051EA030C3E
:1019C00017D41CF5801F58BFBCF5801F00F106809E
:1019D000994218BF704708BF9042704707D711F56A
:1019E000801F58BF13F5801F19D499427047894250
:1019F00070471CF5801F08D5BCF5801FF7D58B42BA
:101A000018BF704708BF824270474FF4001C1CEBA0
:101A1000410F38BF1CEB430F01D28B42704770B5AA
:101A200000F0B2F8922449004FF000514FF080537B
:101A3000FFF760BFDFF848C170B51CEA111E1EBF7A
:101A40001CEA13159EEA0C0F95EA0C0F00F06F804C
:101A500081EA030423EA4C134EEAD47E21EA4C11B6
:101A600041F4801143F48013AE44A1FB024CA0FB6F
:101A70000365AEF17F7E361955EB0C05A1FB034CD7
:101A80004CF10003A0FB021C16EB0C06654153F160
:101A90000003094218BF46F0010613F4007F0BD182
:101AA0004FEA03314FEA0530340341EA155140EA69
:101AB00016506FF003020AE04FEAC3214FEAC52037
:101AC000F40241EA555140EA56506FF0020202EB2F
:101AD0002E4201EB025585EACE710AD05FEA440C32
:101AE00018BF24F0004450F1000041F1000120EA49
:101AF000D47040F2FE7C624500D270BDA84214BF93
:101B00004FF080444FF04044002E08BF0024BEF147
:101B1000806FA8BFA1F1C041BDE8704080F2828013
:101B20004FF0000001F1C04101F0004170479EEA12
:101B30000C0F0CEA131518BF95EA0C0F06D04FF0E6
:101B4000000081EA030E0EF0004170BD00F01CF8A9
:101B50008900013E00F007B800F009B84FEA430CD5
:101B60005FEA5C5C08D081EA030100F05BB84FEAF1
:101B7000410C5FEA5C5CF6D14FF000000149704710
:101B80000000FF070000F87F0EF1020E2EF0030E9A
:101B90005EF8046B364205D4012A43EB030515F5C4
:101BA000001F12D8012841EB010C1CF5001F0CD8B6
:101BB0000ED14FEAD17C15F5001F0CEB4C0C0CF14B
:101BC000020C08BF4CEBD37C04E04FF0080C01E0A2
:101BD0004FEAD37C0CEB4C0526FA05F606F0070617
:101BE000B6F1040C06D20EEB860CBDE870404CF04A
:101BF000010C6047DFE80CF0090B02024FF00041D6
:101C00004FF00000A1F5002170BD194610460128D3
:101C100051EB010418BFD4F5001484BF002001F07B
:101C2000004170BD0808A0F500114FEA310170476E
:101C300091EA030F10B581F000413FF5BBAD83F091
:101C4000004300F009B8000010B591EA030F48BF47
:101C500083F000433FF5AEAD841A71EB030C07D25D
:101C600012198CF0004C43EB0C03001B61EB0C01D0
:101C7000DFF8A4E14FEA1154A4EB135C1EEA430F12
:101C800018BF9EEA445F00F0B08023EA6E03524220
:101C900021EA0451C3EB6E0338BF5B1EDCF1200E5A
:101CA00025D322FA0CFE10EB0E0043FA0CFE41EB9A
:101CB0000E01CCF1200E03FA0EFE10EB0E0051F1D6
:101CC0000001CCF1200E29D412FA0EF201EB0451DE
:101CD000BDE8104058BF7047401C1CBFB2F1004F18
:101CE000704700280CBF491C20F00100704712EB20
:101CF000020E43EB030218BF4FF0010E4EEA420200
:101D0000ACF1200CDCF11E0E54D943FA0CFE10EBA2
:101D10000E0051F1FF31CCF11E0ED5D50EF1010EA2
:101D200012FA0EFE404141EB010101EB445C5FEA17
:101D30005C5C10D910EBDE7001EB045138BFBEF1D2
:101D4000004FBDE8104018BF704700280CBF491C69
:101D500020F00100704730D24FEAD42C11F5001169
:101D600024F400641BD0B1FA81F20B3AA41AA41E29
:101D7000D2F12003914030FA03F31943904001EB74
:101D8000CC71002C01EB0451BDE81040A8BF704796
:101D900001F1C0414FF0000001F000417047B0FA7E
:101DA00080F310FA03F100D110BDE41A173C480586
:101DB000C90AE4E701EB045110BD491001EB0451DD
:101DC000BDE810404FEA300002E04FF000017047DC
:101DD0004A0008BF0042F8D0B2F5001F28BF704784
:101DE00001F000414FF0000070479EEA445F07D0C9
:101DF00011EA5E0FBDE8104004BF002100207047CB
:101E0000BDE8104070B5FFF7BFFE00BF40DFF63EF3
:101E100083F00041104670470000E0FF03006400BB
:101E2000320032000A000A000A000A000A00030019
:101E30000000000000000000000000000000E03F83
:101E40009A9999999999A93F7B14AE47E17A743F81
:101E5000FCA9F1D24D62403F2D431CEBE2360A3F14
:101E6000F168E388B5F8D43E8DEDB5A0F7C6A03E85
:101E700048AFBC9AF2D76A3E981E000800000020C6
:101E80005000000030010008E81E0008500000204B
:101E9000600B00004C0100080048E801030406083C
:101EA0000C101820300000000000000000010203A8
:101EB0000406070809000000000000000000000000
:101EC0000000000000000000000000000000000012
:101ED00000000000000000001C1E00081C1E00087E
:081EE0000000000000000000FA
:04000005080001915D
:00000001FF
