:020000040800F2
:10000000C006002091010008990100089B0100082A
:100010009D0100089F010008A101000800000000E8
:10002000000000000000000000000000A301000824
:10003000A501000800000000A7010008CD06000887
:10004000AB010008AB010008AB010008AB010008E0
:10005000AB010008AB010008AB010008AB010008D0
:10006000AB010008AB010008AB010008AB010008C0
:10007000AB010008AB010008AB010008AB010008B0
:10008000AB010008AB010008AB010008AB010008A0
:10009000AB010008AB010008AB010008AB01000890
:1000A000AB010008AB010008AB010008AB01000880
:1000B000AB010008AB01000839070008AB010008DC
:1000C000AB010008AB010008AB01000845050008C2
:1000D000AB0100085D070008AB010008AB01000898
:1000E00099020008AB010008AB010008AB01000851
:1000F000AB01000800F002F800F03AF80AA090E81E
:10010000000C82448344AAF10107DA4501D100F0D2
:100110002FF8AFF2090EBAE80F0013F0010F18BF65
:10012000FB1A43F001031847D4070000F40700004E
:10013000103A24BF78C878C1FAD8520724BF30C813
:1001400030C144BF04680C607047000000230024E5
:1001500000250026103A28BF78C1FBD8520728BFD7
:1001600030C148BF0B6070471FB51FBD10B510BD33
:1001700000F037F81146FFF7F7FF00F08DFB00F0B5
:1001800055F803B4FFF7F2FF03BC00F055F8000088
:100190000948804709480047FEE7FEE7FEE7FEE71B
:1001A000FEE7FEE7FEE7FEE7FEE7FEE70448054957
:1001B000054A064B70470000D1060008F50000080C
:1001C000C0000020C0060020C0020020C0020020A5
:1001D000704770477047000000487047600000207B
:1001E00070477546FFF7F8FFAE460500694653466F
:1001F00020F00700854618B020B5FFF7D7FFBDE80F
:1002000020404FF000064FF000074FF000084FF07D
:10021000000B21F00701AC46ACE8C009ACE8C0090E
:10022000ACE8C009ACE8C0098D4670470446AFF39E
:1002300000802046FFF7A5FF01491820ABBEFEE76E
:100240002600020000B5024600F034F80A490860B2
:1002500000200A4908600A4908600A4908600A49FA
:1002600008700A48006800880949086012B1012036
:100270000849087000BD00002C000020200000206C
:100280002800002024000020340000203800002036
:1002900030000020350000200548006800F4806030
:1002A00028B10348006840F4806001490860704745
:1002B000140401400648008AC0F340000449098A3A
:1002C00001F0040140EA5101062088437047000014
:1002D0000000024000B5FFF7EDFF0346204800682C
:1002E000984203D00020FFF7ADFF00BD13B11D48B9
:1002F000007820B113B900201A490870F5E71A48B0
:100300000068401C184908601848036008460068E7
:1003100017490968884220D316480068401C1549CF
:1003200008601548006815490860084601681448C7
:100330000078401C31F8100020B111480078401CB2
:100340000F4908700D4800680D49097830F8110010
:100350000749096808440649086000BFC5E700006E
:100360002C00002035000020280000202000002064
:1003700030000020240000203C0000203800002035
:100380003400002000F01F02012191404209920038
:1003900002F1E022C2F800117047000010B54C488D
:1003A000006840F003004A4908604A48006820F4A9
:1003B0004010484908600846C06820F44010C860F2
:1003C00045480069444908614448006840F4806039
:1003D0004249086041480830006840F480603F4965
:1003E0000831086028200021002807DA0A07140EC7
:1003F0003B4A00F00F031B1FD45403E00A07130EFF
:10040000384A135400BF2820FFF7BCFF314800686A
:1004100040F480202F4908600846806820F440207E
:1004200088600846808820F4007088800846C0688C
:1004300020F44020C8602C48006840F408602A4935
:10044000086029480830006840F48860264908316F
:100450000860081F008820F02800091F0880224833
:100460000C30006820F44C601F490C3108601E48B5
:10047000203000681D4908431B49203108601A4894
:10048000006820F440701849086017480C30006874
:1004900040F4807014490C3108600E48006840F048
:1004A00080400C4908600846806820F04040886021
:1004B0000846808820F4004088800846C06820F004
:1004C0004040C8600846408B40F40040488310BD5F
:1004D0001C380240000002400000014000040140BE
:1004E00018ED00E000E400E00004024000F0F0003D
:1004F0007047000010B50D48006840F480500B496B
:1005000008600B48008840F40970094908800846D3
:10051000808840F0C40088802320FFF733FF044820
:10052000008840F040000249088010BD2038024099
:100530000030014010B5FFF731FFFFF7DBFFFFF799
:10054000D7FF10BD1B48008900F0010058B11A48C0
:10055000407C194901EB800080781648008920F022
:100560000100144908811348008900F0020000B31B
:100570001148407C401C042803D100200E494874D7
:1005800004E00D48407C401C0B4948740A48407CFC
:100590000949897C884206D10748407C064911F800
:1005A0002000044988810348008920F002000149A5
:1005B0000881704700300140400000200CB5002049
:1005C000019000903E48006840F480303C4908604B
:1005D00000BF3B48006800F4003000900198401CC8
:1005E0000190009818B90198B0F5A06FF1D1344886
:1005F000006800F4003010B10120009001E00020FC
:1006000000900098012859D12E48006840F004005D
:100610002C4908600846006840F00200086008465F
:10062000006840F00100086025482430006840F070
:100630008050234924310860C8142349086000BF52
:100640002148406800F010000028F9D11C4808300B
:1006500000681B49083108600846006808600846C1
:10066000006808600846006820F47D0008600846BD
:10067000006840F49A0008601148006840F08070FB
:100680000F49086000BF0E48006800F000700028A5
:10069000F9D00B480830006820F003000849083101
:1006A00008600846006840F00300086000BF044886
:1006B0000830006800F00C000C28F8D10CBD0000D8
:1006C00000380240003C02400070004070470000CB
:1006D00010B51548006840F480701349086012484E
:1006E00008300068114908400F49083108600E4879
:1006F00000680F4908400C4908600846006820F46B
:100700008020086008480830006820F47D00064911
:10071000083108600020091D0860FFF74FFF4FF007
:1007200000600449086010BD003802400CC0FF881A
:10073000FEFFFEEE08ED00E000B50748008800F07F
:10074000010038B1FFF7C6FD0348008820F0010022
:100750000149088000BD00001008004019480088C9
:1007600000F0800010B31849887A411C164A917233
:100770000A2803D100201146887204E01248807ACA
:10078000401C114988721048807A0F49C97A884202
:1007900006D10D48807A0C49085C0A49091D088079
:1007A0000848008820F08000064908800548008835
:1007B00000F0200028B10348008820F02000014903
:1007C00008807047003801405300002010B52C48C5
:1007D000006840F002002A490860081D006840F4E3
:1007E0008040091D08602748006840F420402549E2
:1007F0000860081D008820F0C000091D0880081D41
:10080000006820F47040091D0860081D006820F48D
:100810007040091D08601B482030006840F0EE4021
:10082000184920310860184800684FF49641B0FB21
:10083000F1F016490880081D008842F2AC01084317
:100840001249091D0880252000F01F020121914056
:100850004209920002F1E022C2F8001100BF01211A
:10086000002807DA0A07140E094A00F00F031B1FBD
:10087000D45403E00A07130E064A135400BF10BDF8
:100880001C380240000402400000002008380140EB
:1008900018ED00E000E400E01048006840F00100BE
:1008A0000E4908600E48006840F001000C490860DD
:1008B0000846806820F0030088600846C06820F081
:1008C0000300C8600846008B40F001000883FFF772
:1008D0007DFFFFF72FFE00BFFEE700001C3802403F
:1008E0000000024003006400320032000A000A00E7
:1008F0000A000A000A000300000000001C090008AA
:100900000000002040000000300100085C090008E1
:1009100040000020800600004C0100080048E8016B
:10092000030406080C10182030000000000000002E
:10093000000102030406070809000000000000008F
:1009400000000000000000000000000000000000A7
:0C09500000000000E4080008E4080008B3
:04000005080001915D
:00000001FF
