:020000040800F2
:10000000980E002099010008A1010008A301000832
:10001000A5010008A7010008A901000800000000D0
:10002000000000000000000000000000AB0100081C
:10003000AD01000800000000AF010008F515000840
:10004000B3010008B3010008B3010008B3010008C0
:10005000B3010008B3010008B3010008B3010008B0
:10006000B3010008B3010008B3010008B3010008A0
:1000700051060008B3010008B3010008B3010008ED
:10008000B3010008B3010008B3010008B301000880
:10009000B3010008B3010008B30100086D070008B0
:1000A000B3010008B301000891160008B30100086D
:1000B000B3010008B9160008B3010008B301000835
:1000C000B3010008B3010008B3010008851300085C
:1000D000B301000819190008B3010008B3010008B2
:1000E00011070008B3010008B3010008FD1800085B
:1000F000B301000800F002F800F03EF80AA090E812
:10010000000C82448344AAF10107DA4501D100F0D2
:1001100033F8AFF2090EBAE80F0013F0010F18BF61
:10012000FB1A43F00103184784230000A4230000B6
:10013000103A24BF78C878C1FAD8520724BF30C813
:1001400030C144BF04680C607047000000230024E5
:1001500000250026103A28BF78C1FBD8520728BFD7
:1001600030C148BF0B6070471FB59DE8030000F029
:1001700081F81FBD10B510BD00F000F91146FFF762
:10018000F3FF01F069FF00F01EF903B4FFF7F2FF7F
:1001900003BC00F04BF900000948804709480047BC
:1001A000FEE7FEE7FEE7FEE7FEE7FEE7FEE7FEE727
:1001B000FEE7FEE704480549054A064B7047000084
:1001C00029160008F500000898080020980E002065
:1001D000980A0020980A002070B5064600F02EF814
:1001E000056806F10B0020F00704B4429CBF002014
:1001F00070BD2B466A68BAB11068A04210D304F1F2
:10020000080188423CBF5068586007D351681019F4
:1002100041601168091B016058601460101D70BDB9
:1002200013465268002AE7D12146284600F00EF80E
:100230000028DED170BD7047704770470048704796
:1002400040080020704770477047704738B5044633
:100250000A4600206946AFF30080002808BF38BD79
:1002600002460099204600F067F8012038BD0120C1
:1002700000F07CB8F8B5AFF30080054600200C46CE
:10028000102000BF0646A819A0420DD93246694683
:100290000020AFF30080070008BF00F067F8009867
:1002A000A04218BF0546C419FFF7C8FF05600746FE
:1002B000F01D20F007004619284600F00AF8B44265
:1002C00008BFF8BDA21B31463868BDE8F84000F011
:1002D00033B800210160C0E9011070471020704759
:1002E00070B50446051FFFF7A9FF0068002C14BF76
:1002F000446870BD002C18BFAC423CBF2046646807
:10030000F8D301680A18AA4218BF456003D12A68C9
:1003100005461144016028684119A1421CBF6C6068
:1003200070BD6168696021680844286070BD000084
:100330000048704738080020034640688C46002873
:1003400018BF88423CBF03464068F8D31868184479
:10035000884207D00CF1030020F00700001D411A6D
:10036000521A0146081D0A60FFF7BABF10B500F027
:1003700035F8BDE8104000F02CB870477546FFF71F
:10038000D7FFAE4605006946534620F00700854674
:1003900018B020B5FFF70EFFBDE820404FF0000673
:1003A0004FF000074FF000084FF0000B21F007015D
:1003B000AC46ACE8C009ACE8C009ACE8C009ACE8A0
:1003C000C0098D4670470446AFF300802046FFF712
:1003D000DCFE002801D000F029B8704710B50128D4
:1003E00005D0002103A000F027F8012010BD09A1CD
:1003F000F8E7000053494752544D454D3A204F7598
:1004000074206F662068656170206D656D6F72790C
:10041000000000003A2048656170206D656D6F72C4
:100420007920636F727275707465640001491820D9
:10043000ABBEFEE72600020070B505460C460A205A
:1004400000E06D1C00F011F835B128780028F8D1D3
:1004500002E0641C00F009F814B120780028F8D1FB
:10046000BDE870400A20AFF3008008B569468DF8FA
:1004700000000320ABBE08BD0F48006840F002003A
:100480000D4908600D48006840F000600B490860A5
:10049000081D008820F40050091D0880081D006810
:1004A00040F04060091D08600448406A40F4401173
:1004B00002484162704700001C38024000040240BC
:1004C0001E48006840F004001C4908601C48008871
:1004D00040F2F23188431A4908800846008840F00B
:1004E0004400088016481830008840F07000144915
:1004F0001831088012482030008840F0030010496D
:100500002031088063200E49283108800020091D11
:1005100008600B49343108600949243108600848F3
:100520001430008840F00100054914310880081F8C
:10053000008820F00100091F088070472038024021
:100540000008014000201149087011490860104955
:10055000083108600E491031086001200D4908601B
:1005600000200C490839086009482438008820F028
:10057000010007492439088006482C38008820F0FB
:10058000010004492C390880704700008C000020CD
:10059000240801402C04004000B5024600F004FA93
:1005A0000A49086000200A4908600A4908600A49A7
:1005B00008600A4908700A4800680088094908600C
:1005C00012B101200849087000BD00003000002071
:1005D000240000202C0000202800002038000020EB
:1005E0003C0000203400002039000020084800684A
:1005F00040F00100064908600648006840F4407079
:10060000044908600846806840F44070886070477C
:100610001C380240000002400B48006840F00050C7
:10062000094908600948006820F006000749086089
:1006300000200649103108600448006840F00100BD
:1006400002490860704700002438024000740040EE
:100650000D48006800F02000A8B10B48406840F049
:100660001000094948600020084908704FF0804098
:10067000008A20F001004FF080410882084600887F
:1006800020F001000880704700600240D000002088
:10069000014602480A181068704700000000080868
:1006A00010B502460B460E48141872B600F01CF83E
:1006B0000C48006840F480700A490860236000BF5D
:1006C00008481430006800F001000028F8D10548FF
:1006D000006840F001000349086062B610BD0000E8
:1006E00000000808043C0240064807490860074823
:1006F000086000BF04480838006800F001000028C6
:10070000F8D17047EFCDAB890C3C024005040302E1
:1007100010B51448006800F4005010B30022012105
:10072000104600F06BFBC4B204F01C00102812D17C
:1007300000F06EFC00F0AEFC00F002FC0A4890F8FD
:10074000410018B10021084600F0C4FC064890F8AA
:10075000420000F078FC0348006840F40050014972
:10076000086010BD140401402A01002010B5224881
:10077000006800F0400000283DD02048407920B3B8
:100780001E48007930B31D480168012000F090FE3A
:10079000B0F57A7F1AD219480079401C17490871C0
:1007A0000846007904280ADD0020154948620846F9
:1007B000008840F0010008800420104908710021E1
:1007C000084600F075FE0D4908600EE000200B4958
:1007D00008710AE009480079401C084908710021A5
:1007E000084600F065FE054908600348006840F0CF
:1007F00040000149086010BD14040140740000204D
:10080000001000402DE9F0430546DDE90767099C2B
:100810000A2D04D00B2D0ED00C2D24D117E0DFF8BB
:1008200078C1DCF800C04CF0010CDFF86C81C8F82E
:1008300000C05A4817E0DFF860C1DCF800C04CF097
:10084000020CDFF85481C8F800C055480BE0DFF80F
:1008500048C1DCF800C04CF0040CDFF83C81C8F85B
:1008600000C0504800BF00BFD0F800C04FEA4109A7
:100870004FF0030808FA09F82CEA080CC0F800C089
:10088000D0F80CC04FEA41094FF0030808FA09F804
:100890002CEA080CC0F80CC0D0F800C04FEA4108A0
:1008A00002FA08F84CEA080CC0F800C0012A03D08C
:1008B000022A01D0002A6CD1D0F80CC04FEA4108BE
:1008C00003FA08F84CEA080CC0F80CC0012A01D061
:1008D000022A5ED1B0F804C04FEA41094FF0010886
:1008E00008FA09F82CEA080CA0F804C0D0F808C0EF
:1008F0004FEA41094FF0030808FA09F82CEA080CFE
:10090000C0F808C0B0F804C006FA01F84CEA080CB8
:10091000A0F804C0D0F808C04FEA410807FA08F868
:100920004CEA080CC0F808C0022A32D1082916DAAD
:10093000D0F820C04FEA81094FF00F0808FA09F8F3
:100940002CEA080CC0F820C0D0F820C04FEA81087B
:1009500004FA08F84CEA080CC0F820C019E0D0F8F6
:1009600024C0A1F108084FEA88094FF00F0808FADF
:1009700009F82CEA080CC0F824C0D0F824C0A1F172
:1009800008084FEA880804FA08F84CEA080CC0F88E
:1009900024C0BDE8F08300001C3802400000024083
:1009A00000040240000802400848008AC0F34000EA
:1009B0000649098A01F0040140EA51000349098A05
:1009C00001F0080140EA51007047000000000240B9
:1009D0000648006838B105480068401E03490860B1
:1009E0000348006870470020FCE700002800002052
:1009F000240000200EB50020009001900123024643
:100A0000062102900A20FFF7FDFE2248006840F010
:100A10000100204908602048C0681F49C8601F487D
:100A2000006840F040001D4908601C480C30006818
:100A300040F0400019490C3108600121172000F0F6
:100A40009FF9172000F086F91248001D006840F059
:100A500010001049091D08601148008840F0080086
:100A60000F49088042F21070C8624FF47A5008852E
:100A70000846808940F0010088810846808A40F05D
:100A80000100888201212B2000F07AF92B2000F050
:100A900061F90EBD20380240000001400004014011
:100AA000001000400EB51248006840F001001049E7
:100AB0000860002000900190034602460121029048
:100AC0000A20FFF79FFE0020009001900346024697
:100AD000022102900A20FFF795FE0020009001906D
:100AE00003460246032102900A20FFF78BFE0EBD4B
:100AF0001C38024000B5FFF757FF03462048006846
:100B0000984203D00020FFF747FD00BD13B11D48F8
:100B1000007820B113B900201A490870F5E71A4887
:100B20000068401C184908601848036008460068BF
:100B300017490968884220D316480068401C1549A7
:100B4000086015480068154908600846016814489F
:100B50000078401C31F8100020B111480078401C8A
:100B60000F4908700D4800680D49097830F81100E8
:100B70000749096808440649086000BFC5E7000046
:100B800030000020390000202C000020240000202C
:100B90003400002028000020400000203C000020FD
:100BA00038000020F0B500241D0245EA024545EA60
:100BB00001040026451E034F47F825603E4646F8CF
:100BC0002540F0BD2408002010B51020FFF704FBDD
:100BD0004F4908601020FFF7FFFA4E4908601020C7
:100BE000FFF7FAFA4C4908601020FFF7F5FA4B4975
:100BF00008601020FFF7F0FA494908601020FFF75D
:100C0000EBFA484908601020FFF7E6FA4649086009
:100C10001020FFF7E1FA454908601020FFF7DCFAE1
:100C2000434908603B48006839490968086000206A
:100C30003749096888603649096848603D48344941
:100C40000968C860344800683249096808600020B3
:100C50003049096888602F490968486036482D493D
:100C60000968C8602D4800682B49096808600020A1
:100C70002949096888602849096848602F48264939
:100C80000968C8602648006824490968086000208F
:100C900022490968886021490968486028481F4935
:100CA0000968C8601F4800681D490968086000207D
:100CB0001B49096888601A49096848602148184931
:100CC0000968C8601848006816490968086000206B
:100CD0001449096888601349096848601A4811492D
:100CE0000968C8600A4800680F4909680860002060
:100CF0000D49096888600C490968486013480A4929
:100D00000968C860024800681149086010BD000009
:100D100044000020480000204C000020500000202B
:100D200054000020580000205C00002060000020DB
:100D3000640000202D21000879210008D921000835
:100D400061220008E522000865230008E523000869
:100D50006800002000F01F0201219140420992002A
:100D600002F1E022C2F80011704700F01F020121D9
:100D700091404209920002F1E022C2F8001170474E
:100D800010B5002807DA0A07140E054A00F00F0311
:100D90001B1FD45403E00A07130E024A135410BD5C
:100DA00018ED00E000E400E01349098821F4006137
:100DB000114A118000BF1049098901F08001002902
:100DC000F9D10D49888100BF0B49098901F0010162
:100DD0000029F9D008498989C8B200BF06490989A4
:100DE00001F080010029F9D10349098841F400612B
:100DF000014A1180704700000030014010B50346E1
:100E000013B1012B7ED146E04348008840F04000FA
:100E1000414C20804148808A20F400403F4CA08211
:100E20003D488089C2B200BF3B48008900F0020003
:100E30000028F9D000BF3848008900F08000002861
:100E4000F9D140EA0120344CA08100BF324800892A
:100E500000F002000028F9D000BF2F48008900F000
:100E600001000028F9D02C488089C2B200BF2A486E
:100E7000008900F080000028F9D12848808A40F4D9
:100E80000040264CA0822448008820F04000224CDC
:100E90002080104610BD2048008840F040001E4CC5
:100EA00020801E48808A20F400401C4CA08200BF95
:100EB0001948008900F002000028F9D000BF164848
:100EC000008900F080000028F9D141F0800042EA5A
:100ED0000020114CA08100BF0F48008900F00200E3
:100EE0000028F9D000BF0C48008900F080000028DD
:100EF000F9D10A48808A40F40040084CA082064894
:100F0000008800E004E020F04000034C208000BF97
:100F100000BF00BFBEE700000030014000000240FB
:100F200070B504460D46002221461046FFF766FFC5
:100F30002843C6B2324621460120FFF75FFF70BD4D
:100F400030B53048008840F040002E4908802E48D7
:100F5000808A20F400402C4988820020FFF724FF7B
:100F60000020FFF721FF294981F840000020FFF70A
:100F70001BFF264981F83F00084690F84000C01E3C
:100F800081F83D000020FFF70FFF204981F83E0067
:100F90000020FFF709FF054605F080001B4981F896
:100FA000420005F0400081F84100002406E00020E6
:100FB000FFF7FAFE15490855601CC4B2134890F8B3
:100FC0003D00A042F3DC114890F83D003D2805DAD1
:100FD00000200E4991F83D100C4A50540A48808A6E
:100FE00040F40040084988820648008820F040000C
:100FF00004490880002000F030F80449A1F84400BA
:1010000030BD000000300140000002402A010020F5
:1010100000B5242201210846FFF7F0FE0422012139
:101020000846FFF7EBFE04E0042201210846FFF723
:10103000E5FE002201211046FFF7E0FE00F01C0053
:101040000428F1D100BD00B5012000F03DF9402297
:1010500001210846FFF7D2FE00BD30B50446002549
:101060006CB101212320FFF75BFF00BF0022232189
:101070001046FFF7C3FE00F002000028F6D0002261
:1010800024211046FFF7BAFE404205B26D102846F3
:1010900030BD000000B500200D4981F83D0081F809
:1010A0003E0081F83F0081F8400081F8410081F85E
:1010B0004200A1F84400002228211046FFF79EFEBE
:1010C00000F0040018B104213D20FFF729FF00BD06
:1010D0002A010020F8B504460D460A4890F83E6003
:1010E000B0F9447004213D20FFF71AFF01200023CE
:1010F0002A4621460090304600F006F80148A0F844
:101100004470F8BD2A0100202DE9F84F8246884638
:1011100014469946DDF828B0012000F0D5F80021EA
:10112000084600F06BF83D2C00DD3D24BBF1000FBC
:1011300001D0802603E0B9F1000F00D040262B48F3
:10114000008840F04000294908802948808A20F41E
:101150000040274988828020FFF726FEE11CC8B2A4
:10116000FFF722FE5046FFF71FFE224991F8460086
:10117000FFF71AFE3046FFF717FE002505E018F8C6
:101180000500FFF711FE681CC5B2A542F7DB184841
:10119000808A40F40040164988821448008820F074
:1011A000400012490880042000F08EF80021084613
:1011B00000F07EF9009000BF0F48008800F4005056
:1011C00030B90120009900F073F9B0F57A7FF3D3BC
:1011D0000948008800F4005008B1012700E000270A
:1011E000012000F071F83846BDE8F88F003001406A
:1011F000000002402A0100201008024070B5054698
:101200000C46062D5ED2DFE805F0031221303F4E7A
:10121000002225211046FFF7F1FD20F0C0002043F9
:10122000C6B2324625210120FFF7E8FD4AE0002240
:1012300025211046FFF7E2FD20F030002043C6B222
:10124000324625210120FFF7D9FD3BE00022252170
:101250001046FFF7D3FD20F00C002043C6B2324603
:1012600025210120FFF7CAFD2CE000222521104690
:10127000FFF7C4FD20F003002043C6B2324625210B
:101280000120FFF7BBFD1DE0002226211046FFF7DD
:10129000B5FD20F0C0002043C6B232462621012011
:1012A000FFF7ACFD0EE0002226211046FFF7A6FD59
:1012B00020F030002043C6B2324626210120FFF73D
:1012C0009DFD00BF00BF70BD30B50446052C4DD25A
:1012D000DFE804F03F302112030000220121104614
:1012E000FFF78CFD00F0E30040F00C052A460121D9
:1012F0000846FFF783FD39E0002201211046FFF781
:101300007DFD00F0E30040F010052A46012108466B
:10131000FFF774FD2AE0002201211046FFF76EFD61
:1013200000F0E30040F008052A4601210846FFF7D7
:1013300065FD1BE0002201211046FFF75FFD20F054
:101340001C00001DC5B22A4601210846FFF756FDC4
:101350000CE0002201211046FFF750FD00F0E305EC
:101360002A4601210846FFF749FD00BF00BF00BF24
:101370002CB90348008A00F480700028F8D030BDF2
:10138000000002403349098901F0010100295FD0C2
:10139000304988893049898A41F400412E4A918236
:1013A0002C49098821F040012A4A11802B4991F8E3
:1013B00050102A4A02EB81018978114691F85010A9
:1013C000491C142903D1002182F8501006E023495A
:1013D00091F85010491C214A82F850101F4991F889
:1013E00050101E4A92F8512091421DD100BF194958
:1013F000098901F080010029F9D11749898A41F44E
:101400000041154A91821349098821F04001114A8F
:1014100011801146098821F0400111801146898808
:1014200021F04001918013E00A49098841F0400110
:10143000084A11800849898A21F40041064A9182AC
:10144000064991F85010054A32F82110014A91815D
:10145000704700000030014000000240D80000202A
:1014600010B54FF0E020006940F002004FF0E0219D
:10147000086141F2941048610846006940F001009B
:10148000086148170121002807DA0A07140E064AE6
:1014900000F00F031B1FD45403E00A07130E034A86
:1014A000135400BF10BD000018ED00E000E400E0A0
:1014B000024612B90A4800687047012A0DD108484F
:1014C0000068884203D306480068401AF4E7C1F177
:1014D000FF30034B1B681844EEE700BFECE7000049
:1014E0006C0000200CB50020019000903E48006880
:1014F00040F480303C49086000BF3B48006800F47D
:10150000003000900198401C0190009818B9019893
:10151000B0F5A06FF1D13448006800F4003010B18C
:101520000120009001E0002000900098012859D18E
:101530002E48006840F004002C4908600846006806
:1015400040F0020008600846006840F001000860B2
:1015500025482430006840F0805023492431086039
:10156000C8142349086000BF2148406800F01000FB
:101570000028F9D11C48083000681B490831086070
:101580000846006808600846006808600846006869
:1015900020F47D0008600846006840F49A00086066
:1015A0001148006840F080700F49086000BF0E4885
:1015B000006800F000700028F9D00B48083000687F
:1015C00020F003000849083108600846006840F030
:1015D0000300086000BF04480830006800F00C00F9
:1015E0000C28F8D10CBD000000380240003C02403D
:1015F0000070004010B50A480068401C08490860A7
:1016000008480078401C07490870084600780A28F6
:1016100004D1FFF76FFA00200249087010BD0000E6
:101620006C0000207000002010B51548006840F4E0
:10163000807013490860124808300068114908405A
:101640000F49083108600E4800680F4908400C49EE
:1016500008600846006820F48020086008480830C8
:10166000006820F47D000649083108600020091D4B
:101670000860FFF737FF4FF000600449086010BDB5
:10168000003802400CC0FF88FEFFFEEE08ED00E0CF
:101690000748008800F0010040B10548008820F0AC
:1016A00001000349088001200249087070470000CA
:1016B000100C0140D100002000B58A48008800F0DD
:1016C000010000287ED08748008820F0010085496D
:1016D000088085480078142875D1844890F8A401C2
:1016E000C0EBC00000EB4000804901EB400090F8E7
:1016F00028000A2877DC00207D4908607B4890F8A4
:10170000A401C0EBC00000EB4000784901EB4000B1
:10171000143091F8A411C1EBC10101EB4101734AEE
:1017200002EB410191F8281030F81100704908319E
:101730000860114691F8A411C1EBC10101EB410110
:1017400002EB4101143192F8A421C2EBC20202EB78
:101750004202664B03EB420292F8282031F8120055
:1017600000EBD0714910624A10321160194691F8AD
:10177000A411C1EBC10101EB41011A4602EB410189
:1017800001F128000178491C0170104690F8A4016D
:10179000C0EBC00000EB4000114601EB400091F8A7
:1017A000A411C1EBC10101EB410102EB410191F830
:1017B000281030F811004B491C3108604948103896
:1017C000008802E02BE02BE00DE040F001004549ED
:1017D0001039088046482438008840F00100444908
:1017E000243908807DE0414890F8A401C0EBC00096
:1017F00000EB40003D4901EB400090F828000A282A
:101800006FDD002091F8A411C1EBC10101EB410192
:10181000364A02EB410181F82800FEF793FE60E0B2
:10182000314800780A2824D1002031490860314825
:101830008179801C30F811002D49083108602D494C
:101840008A79891C31F8120000EBD0714910284ABE
:101850001032116027488079C0F101002549887154
:1018600020481038008840F001001E4910390880D7
:1018700037E01D4800781E2833D11F48807940B3D7
:1018800000201B4908601C4800881949083108607D
:101890001949088800EBD0714910154A10321160BF
:1018A000154880880F491C31086011482438008889
:1018B00040F001000E49243908800A481038008899
:1018C00040F0010007491039088000200A4988715A
:1018D00007E00948807920B9012007498871FEF79F
:1018E00031FE00BD100400408C0000205C0500208B
:1018F00024080140840000207C0000200548008A64
:1019000000F0010028B10348008A20F001000149DD
:1019100008827047001000401748008800F040001F
:1019200040B3164890F8E803401CB0F57A7F04D124
:101930000020124981F8E80306E0104890F8E80317
:10194000401C0E4981F8E8030C4890F8E8030B4965
:1019500091F8E913884207D0084890F8E80307494E
:10196000085C0549091D08800348008820F04000F4
:1019700001490880704700000038014072010020D2
:101980000EB51948006840F0020017490860081DAC
:10199000006840F48040091D086007200021009184
:1019A0000B460222CDE9011006210B20FEF72AFF8B
:1019B0000720002100910B460222CDE901100146CB
:1019C0000B20FEF71FFF094800684FF4E131B0FB20
:1019D000F1F007490880081D008842F20C01084315
:1019E0000349091D08800EBD1C380240000000207C
:1019F0000838014000B50246034830F81200034998
:101A00000880FEF79FFD00BDA0000020840000209C
:101A100000B50246064810F81200064948800448FE
:101A200000EB4200417803488180FEF78BFD00BD4A
:101A30008D000020840000200249095C024A1160E8
:101A40007047000099000020107400400A201049DF
:101A5000087010480088104908601048008800F09D
:101A600001000E49088020B90846008840F00100B6
:101A7000088009482C38008800F0010006492C39FC
:101A8000088020B90846008840F0010008807047AF
:101A90008C000020840000202C040040000801403D
:101AA00000B5FEF74FFD00BD00B5FEF79FFDFEF748
:101AB000B3FDFEF7E1FCFEF703FD2E48006840F0A1
:101AC00002002C4908602C48008840F2F23188431B
:101AD000294908800846008840F00800088047F639
:101AE000FF402549283108800120091D0860002099
:101AF00021492431086021498871214991F8A411B4
:101B0000C1EBC10101EB41011D4A02EB410181F82A
:101B100028004F201B4908802F201B4908601949C5
:101B20004880642088801D20012181404209920064
:101B300002F1E022C2F8001100BF0F480C3000880B
:101B400040F001000C490C3108800B48143000882B
:101B500040F00100084914310880081F008820F077
:101B60000100091F0880FEF7EDFC2F2006490860E0
:101B700000BD000024380240000400408400002022
:101B80005C0500207C000020107400400120064904
:101B900088711E20054908700548008840F0010042
:101BA00003490880704700007C0000208C00002062
:101BB0000004004030B505460024012405E0294614
:101BC000204600F011F8601CC4B2052CF7DD00209F
:101BD00030BD000010B504460249085DFFF7EAFF7A
:101BE00010BD0000C90000202DE9FE4F04460D463F
:101BF0000020029000270190601E174951F8200034
:101C0000C0F30746601E51F8200000F0FF08601E78
:101C100051F82000C0F307200090B946BA46BB46F1
:101C200006FB05F0642190FBF1F000F0FF0908FBD2
:101C300005F090FBF1F000F0FF0A06FB05F090FBC9
:101C4000F1F000F0FF0B5B464A4651462046FEF796
:101C5000A9FF3846BDE8FE8F2408002010B500F02B
:101C60003BF900F0B5F90A2000F0C6F800F014F9CD
:101C700000BF054800780028FBD1142000F0BCF814
:101C800000F054F910BD0000D000002000B5002283
:101C900000BF05E00C20054921F81200501CC2B21B
:101CA000782AF7DB00F0C6F900BD000034070020F9
:101CB00000B500BF064800780028FBD100F00AF804
:101CC00000F0B8F900BF024800780028FBD100BD41
:101CD000D0000020F0B585B00024002300250026A8
:101CE000002700BF214800780028FBD1002339E0FD
:101CF0001F4951F82310C1F3074000F0B7FB054618
:101D00001B4951F82310C8B200F0B0FB0646184931
:101D100051F82310C1F3072000F0A8FB0746380450
:101D200040EA052030434DF82300002416E05DF81A
:101D300023000121A140084038B11E20182101FBD9
:101D400003410C4A22F8110006E00C20182101FB87
:101D50000341084A22F81100601CC4B2182CE6DBCB
:101D6000581CC3B2052BC3DB05B0F0BDD00000206A
:101D700024080020340700202DE9F04707460C46D0
:101D800015461E4600BF00BFC5EBC500C0EBC51021
:101D9000642190FBF1F000F0FF08C4EBC400C0EB3D
:101DA000C41090FBF1F000F0FF09C6EBC600C0EBD9
:101DB000C61090FBF1F000F0FF0A53464246494638
:101DC0003846FEF7EFFEBDE8F087000070B5054627
:101DD0000C4604EB4400074E3044837804EB440087
:101DE0003044427804EB4400315C2846FFF7C4FFDE
:101DF00070BD0000B700002010B504464FF08040D1
:101E0000808840F008004FF0804188801D480068BD
:101E100040F080701B4908601B48C06943F2A05124
:101E200008431949C8610846C06920F04000C861EC
:101E30000846C06940F01000C861144848620A2C86
:101E400009D10846C06920F00300C86110488862C3
:101E5000182008620BE0142C09D10B48C06920F04F
:101E600003000949C8610B48886278200862064867
:101E7000C06940F003000449C8610C20FEF775FFFB
:101E800010BD00001C380240006002403C000040D1
:101E90000407002034070020002000BF05E00021D7
:101EA0000B4A22F81010411CC8B21828F7DB012198
:101EB000084A11708907098841F001014FF08042FA
:101EC000118000BF034909780029FBD17047000049
:101ED00004070020D00000201248006840F00200F3
:101EE000104908601048006840F400100E4908606E
:101EF000081D008820F48060091D0880081D006806
:101F000040F40010091D0860081D006840F48010AE
:101F1000091D08600448406A40F48071024841622B
:101F2000704700001C3802400004024010B52548EC
:101F3000006840F00800234908600020224908702A
:101F40002248008840F2F231884320490880084640
:101F5000008840F00800088047F6FF401B49283100
:101F600008800020091D08601849243108601748BE
:101F70000C30008840F20111884314490C3108806C
:101F80001248001D008820F008001049091D088033
:101F90001A20FEF7EAFE0D480C30008840F00100E0
:101FA0000A490C31088009481430008840F00100CB
:101FB000064914310880081F008820F00100091F1D
:101FC000088010BD20380240D1000020000C0140E4
:101FD0001748006840F001001549086008070088AC
:101FE00040F2F2318843490708800846808840F073
:101FF000080088800846808B40F06000888308468F
:10200000008C40F4807008840846808940F4807019
:102010008881002008852720C8620846808A40F011
:10202000010088820846008A20F00100088270477B
:10203000243802400120074908708007008840F0DA
:1020400001004FF08041088000BF0248007800285E
:10205000FBD17047D00000200EB53048006840F03A
:1020600001002E49086000200090019003460122E3
:10207000014602900A20FEF7C5FB2948008B40F07C
:102080000100274908830020FEF702FB044604F004
:102090000F0024490870C4F303104870C4F30350C0
:1020A0008870C4F30320C870C4F303300871C4F30C
:1020B00003404871FFF7D4F9FEF7F4FCFEF784FD06
:1020C000FFF75EFCFEF796FCFFF7EEFCFFF7C6FDA0
:1020D000FFF7DCFD134841780520FFF777FE114933
:1020E0008878FFF777FDFFF7E3FD0E49C878FFF723
:1020F0008FFC0C490879FFF79FFC0A494879FFF7E4
:1021000079FCFEF71FFA00BFFEF762FC05460648A1
:102110000068C16828468847F6E700001C3802407E
:10212000000002401D0000206800002010B5044699
:1021300001200F494871012C04D0022C16D1FEF762
:102140002BFA13E0FFF722FD0120FEF725FA00210C
:102150000420FFF73BFEFFF7ABFD00200449487168
:102160000448006800680349086000BF00BF10BD54
:10217000740000206800002070B50446012C07D0D0
:10218000022C23D1FFF702FD0120FEF705FA1DE026
:10219000FFF7FCFC0120FEF7FFF90020FEF778FABC
:1021A00020F00F000A49097840EA0105294600207D
:1021B000FEF776FA01210420FFF708FEFFF778FD0D
:1021C0000448006800680349086000BF00BF70BD94
:1021D0001D0000206800002070B50446012C1BD0B3
:1021E000022C37D1FFF7D2FC0120FEF7D5F91A48AF
:1021F0004078052803D100201749487004E01648AC
:102200004078401C14494870134841780520FFF776
:10221000DDFDFFF74DFD1DE0FFF7B8FC0120FEF7E7
:10222000BBF90020FEF734FA20F0F0000A494978A3
:1022300040EA011529460020FEF732FA0221042067
:10224000FFF7C4FDFFF734FD044800680068034948
:10225000086000BF00BF70BD1D00002068000020A6
:1022600070B50446012C1AD0022C34D1FFF78EFC35
:102270000120FEF791F919488078062803D1002043
:102280001649887004E015488078401C134988700E
:1022900012498878FFF79EFCFFF70AFD1BE001203A
:1022A000FEF77AF90020FEF7F3F920F470000B49ED
:1022B000897840EA015529460020FEF7F1F903210B
:1022C0000420FFF783FDFFF7F3FC05480068006872
:1022D0000349086000BF00BF70BD00001D00002062
:1022E0006800002070B50446FFF7B0FB012C16D043
:1022F000022C30D10120FEF74FF91848C07805288C
:1023000003D100201549C87004E01448C078401C6F
:102310001249C8701149C878FFF77AFB1BE0012009
:10232000FEF73AF90020FEF7B3F920F470600B498C
:10233000C97840EA012529460020FEF7B1F90421B9
:102340000846FFF743FDFFF7B3FC05480068006847
:102350000349086000BF00BF70BD00001D000020E1
:102360006800002070B50446FFF770FB012C16D002
:10237000022C30D10120FEF70FF91848007905280A
:1023800003D100201549087104E014480079401C6D
:102390001249087111490879FFF74EFB1BE0012033
:1023A000FEF7FAF80020FEF773F920F470400B49AD
:1023B000097940EA013529460020FEF771F9052127
:1023C0000420FFF703FDFFF773FC05480068006871
:1023D0000349086000BF00BF70BD00001D00002061
:1023E0006800002070B50446FFF730FB012C16D0C2
:1023F000022C34D10120FEF7CFF81A484079092881
:1024000003D100201749487104E016484079401C68
:102410001449487113494879FFF7ECFA1FE001208D
:10242000FEF7BAF80020FEF733F920F470200D49CA
:10243000497940EA014529460020FEF731F9002399
:102440001A4619460420FFF797FCFFF731FCFFF707
:1024500027FB0548006800680349086000BF00BF0B
:1024600070BD00001D00002068000020010900F080
:102470000F0241EA021000F0CC01891000F0330293
:1024800041EA820000F0AA01491000F0550241EA39
:102490004200704703006400320032000A000A0064
:1024A0000A000A000A00030000000000CC24000813
:1024B00000000020D800000030010008A42500081A
:1024C000D8000020C00D00004C0100080048E801C1
:1024D000030406080C101820300000000000000063
:1024E00000010203040607080900000000000000C4
:1024F00000000000000000000000000000000000DC
:10250000000000000000000094240008942400084B
:1025100000000000000000000000000000000000BB
:1025200000000000000000000000000000000000AB
:10253000000000000000000000000000000000009B
:10254000000000000000000000000000000000008B
:10255000000000000000000000404A454F4A544F70
:1025600059545E59630031323435FF006400C800AD
:102570002C019001F4015802BC0220038403E803FB
:1025800000000064000000640000006400646464F3
:10259000370064640000141E283C506400000000F2
:0425A0000001000036
:040000050800019955
:00000001FF
