:020000040800F2
:10000000980D0020D9010008E1010008E301000873
:10001000E5010008E7010008E90100080000000010
:10002000000000000000000000000000EB010008DC
:10003000ED01000800000000EF010008751600083F
:10004000F3010008F3010008F3010008F3010008C0
:10005000F3010008F3010008F3010008F3010008B0
:10006000F3010008F3010008F3010008F3010008A0
:10007000BD060008F3010008F3010008F3010008C1
:10008000F3010008F3010008F3010008F301000880
:10009000F3010008F3010008F3010008D907000884
:1000A000F3010008F301000811170008F30100082C
:1000B000F30100084D170008F3010008F3010008E0
:1000C000F3010008F3010008F3010008051400081B
:1000D000F30100080D190008F3010008F3010008FE
:1000E0007D070008F3010008F3010008F11800087B
:1000F000F301000800F002F800F05EF80AA090E8B2
:10010000000C82448344AAF10107DA4501D100F0D2
:1001100053F8AFF2090EBAE80F0013F0010F18BF41
:10012000FB1A43F001031847482900006829000022
:100130000A444FF0000C10F8013B13F0070408BF0D
:1001400010F8014B1D1108BF10F8015B641E05D0AB
:1001500010F8016B641E01F8016BF9D113F0080F60
:100160001EBF10F8014BAD1C0C1B09D16D1E58BFF2
:1001700001F801CBFAD505E014F8016B01F8016B29
:100180006D1EF9D59142D6D370470000002300249C
:1001900000250026103A28BF78C1FBD8520728BF97
:1001A00030C148BF0B6070471FB59DE8030000F0E9
:1001B00081F81FBD10B510BD00F000F91146FFF722
:1001C000F3FF02F0DBF900F01EF903B4FFF7F2FFD2
:1001D00003BC00F04BF9000009488047094800477C
:1001E000FEE7FEE7FEE7FEE7FEE7FEE7FEE7FEE7E7
:1001F000FEE7FEE704480549054A064B7047000044
:10020000A9160008F500000898070020980D0020A6
:10021000980900209809002070B5064600F02EF8D5
:10022000056806F10B0020F00704B4429CBF0020D3
:1002300070BD2B466A68BAB11068A04210D304F1B1
:10024000080188423CBF5068586007D351681019B4
:1002500041601168091B016058601460101D70BD79
:1002600013465268002AE7D12146284600F00EF8CE
:100270000028DED170BD7047704770470048704756
:100280003C070020704770477047704738B50446F8
:100290000A4600206946AFF30080002808BF38BD39
:1002A00002460099204600F067F8012038BD012081
:1002B00000F07CB8F8B5AFF30080054600200C468E
:1002C000102000BF0646A819A0420DD93246694643
:1002D0000020AFF30080070008BF00F067F8009827
:1002E000A04218BF0546C419FFF7C8FF05600746BE
:1002F000F01D20F007004619284600F00AF8B44225
:1003000008BFF8BDA21B31463868BDE8F84000F0D0
:1003100033B800210160C0E9011070471020704718
:1003200070B50446051FFFF7A9FF0068002C14BF35
:10033000446870BD002C18BFAC423CBF20466468C6
:10034000F8D301680A18AA4218BF456003D12A6889
:1003500005461144016028684119A1421CBF6C6028
:1003600070BD6168696021680844286070BD000044
:100370000048704734070020034640688C46002838
:1003800018BF88423CBF03464068F8D31868184439
:10039000884207D00CF1030020F00700001D411A2D
:1003A000521A0146081D0A60FFF7BABF10B500F0E7
:1003B00035F8BDE8104000F02CB870477546FFF7DF
:1003C000D7FFAE4605006946534620F00700854634
:1003D00018B020B5FFF70EFFBDE820404FF0000633
:1003E0004FF000074FF000084FF0000B21F007011D
:1003F000AC46ACE8C009ACE8C009ACE8C009ACE860
:10040000C0098D4670470446AFF300802046FFF7D1
:10041000DCFE002801D000F029B8704710B5012893
:1004200005D0002103A000F027F8012010BD09A18C
:10043000F8E7000053494752544D454D3A204F7557
:1004400074206F662068656170206D656D6F7279CC
:10045000000000003A2048656170206D656D6F7284
:100460007920636F72727570746564000149182099
:10047000ABBEFEE72600020070B505460C460A201A
:1004800000E06D1C00F011F835B128780028F8D193
:1004900002E0641C00F009F814B120780028F8D1BB
:1004A000BDE870400A20AFF3008008B569468DF8BA
:1004B00000000320ABBE08BD0F48006840F00200FA
:1004C0000D4908600D48006840F000600B49086065
:1004D000081D008820F40050091D0880081D0068D0
:1004E00040F04060091D08600448406A40F4401133
:1004F00002484162704700001C380240000402407C
:100500001E48006840F004001C4908601C48008830
:1005100040F2F23188431A4908800846008840F0CA
:100520004400088016481830008840F070001449D4
:100530001831088012482030008840F0030010492C
:100540002031088063200E49283108800020091DD1
:1005500008600B49343108600949243108600848B3
:100560001430008840F00100054914310880081F4C
:10057000008820F00100091F0880704720380240E1
:1005800000080140054806490860064848600648DA
:10059000886006490248C16070470000A80000203A
:1005A000E0050020B2000020B80000200A01002071
:1005B000002011490870114908601049083108608D
:1005C0000E491031086001200D49086000200C49D7
:1005D0000839086009482438008820F001000749DC
:1005E0002439088006482C38008820F0010004498E
:1005F0002C3908807047000080000020240801404A
:100600002C04004000B5024600F004FA0A490860D4
:1006100000200A4908600A4908600A4908600A4936
:1006200008700A48006800880949086012B1012072
:100630000849087000BD00003000002024000020A0
:100640002C00002028000020380000203C00002062
:1006500034000020390000200848006840F0010004
:10066000064908600648006840F440700449086084
:100670000846806840F44070886070471C3802402B
:10068000000002400B48006840F000500949086033
:100690000948006820F00600074908600020064964
:1006A000103108600448006840F001000249086009
:1006B0007047000024380240007400400D48006874
:1006C00000F02000A8B10B48406840F01000094934
:1006D00048600020084908704FF08040008A20F0F0
:1006E00001004FF0804108820846008820F0010098
:1006F0000880704700600240560100200146024811
:100700000A181068704700000000080810B502467B
:100710000B460E48141872B600F01CF80C4800681E
:1007200040F480700A490860236000BF0848143014
:10073000006800F001000028F8D10548006840F08A
:1007400001000349086062B610BD000000000808FF
:10075000043C02400648074908600748086000BF9B
:1007600004480838006800F001000028F8D17047FC
:10077000EFCDAB890C3C02400504030210B51448D0
:10078000006800F4005010B300220121104600F070
:1007900075FBC4B204F01C00102812D100F078FCE4
:1007A00000F0B8FC00F00CFC0A4890F8410018B1C9
:1007B0000021084600F0CEFC064890F8420000F008
:1007C00082FC0348006840F400500149086010BDF5
:1007D00014040140AE01002010B52248006800F06A
:1007E000400000283DD02048407920B31E480079C1
:1007F00030B31D480168012000F09AFEB0F57A7F01
:100800001AD219480079401C174908710846007926
:1008100004280ADD0020154948620846008840F097
:10082000010008800420104908710021084600F0EA
:100830007FFE0D4908600EE000200B4908710AE0B8
:1008400009480079401C084908710021084600F059
:100850006FFE054908600348006840F04000014908
:10086000086010BD1404014070000020001000401A
:100870002DE9F0430546DDE90767099C0A2D04D000
:100880000B2D0ED00C2D24D117E0DFF878C1DCF849
:1008900000C04CF0010CDFF86C81C8F800C05A4869
:1008A00017E0DFF860C1DCF800C04CF0020CDFF8A4
:1008B0005481C8F800C055480BE0DFF848C1DCF8A7
:1008C00000C04CF0040CDFF83C81C8F800C0504870
:1008D00000BF00BFD0F800C04FEA41094FF0030845
:1008E00008FA09F82CEA080CC0F800C0D0F80CC0CF
:1008F0004FEA41094FF0030808FA09F82CEA080CFE
:10090000C0F80CC0D0F800C04FEA410802FA08F85D
:100910004CEA080CC0F800C0012A03D0022A01D01A
:10092000002A6CD1D0F80CC04FEA410803FA08F84D
:100930004CEA080CC0F80CC0012A01D0022A5ED192
:10094000B0F804C04FEA41094FF0010808FA09F86D
:100950002CEA080CA0F804C0D0F808C04FEA4109FE
:100960004FF0030808FA09F82CEA080CC0F808C090
:10097000B0F804C006FA01F84CEA080CA0F804C06C
:10098000D0F808C04FEA410807FA08F84CEA080C0A
:10099000C0F808C0022A32D1082916DAD0F820C0DF
:1009A0004FEA81094FF00F0808FA09F82CEA080C01
:1009B000C0F820C0D0F820C04FEA810804FA08F837
:1009C0004CEA080CC0F820C019E0D0F824C0A1F10E
:1009D00008084FEA88094FF00F0808FA09F82CEACE
:1009E000080CC0F824C0D0F824C0A1F108084FEAD0
:1009F000880804FA08F84CEA080CC0F824C0BDE8DE
:100A0000F08300001C380240000002400004024055
:100A1000000802400848008AC0F340000649098ADD
:100A200001F0040140EA51000349098A01F008017C
:100A300040EA51007047000000000240064800688C
:100A400038B105480068401E034908600348006843
:100A500070470020FCE70000280000202400002050
:100A60000EB500200090019001230246062102905D
:100A70000A20FFF7FDFE2248006840F001002049EF
:100A800008602048C0681F49C8601F48006840F0DF
:100A900040001D4908601C480C30006840F04000D0
:100AA00019490C3108600121172000F0A9F917201D
:100AB00000F090F91248001D006840F01000104945
:100AC000091D08601148008840F008000F4908809F
:100AD00042F21070C8624FF47A5008850846808947
:100AE00040F0010088810846808A40F00100888239
:100AF00001212B2000F084F92B2000F06BF90EBDB2
:100B00002038024000000140000401400010004075
:100B10000EB51248006840F001001049086000203E
:100B20000090019003460246012102900A20FFF73F
:100B30009FFE002000900190034602460221029091
:100B40000A20FFF795FE0020009001900346024620
:100B5000032102900A20FFF78BFE0EBD1C380240D5
:100B600000B5FFF757FF034620480068984203D0BE
:100B70000020FFF747FD00BD13B11D48007820B1EC
:100B800013B900201A490870F5E71A480068401C9C
:100B90001849086018480360084600681749096842
:100BA000884220D316480068401C15490860154843
:100BB0000068154908600846016814480078401C20
:100BC00031F8100020B111480078401C0F4908701E
:100BD0000D4800680D49097830F811000749096887
:100BE00008440649086000BFC5E700003000002047
:100BF000390000202C0000202400002034000020B8
:100C000028000020400000203C0000203800002088
:100C1000F0B500241D0245EA024545EA010400261C
:100C2000451E034F47F825603E4646F82540F0BD77
:100C30002007002010B51020FFF7EEFA5449086095
:100C40001020FFF7E9FA534908601020FFF7E4FA93
:100C5000514908601020FFF7DFFA50490860102062
:100C6000FFF7DAFA4E4908601020FFF7D5FA4D4930
:100C700008601020FFF7D0FA4B4908601020FFF7FA
:100C8000CBFA4A490860434800684149096808604E
:100C900000203F49096888603D4909684860444828
:100CA0003B490968C8603C4800683A4909680860DF
:100CB00000203849096888603649096848603D481D
:100CC00034490968C86035480068334909680860D4
:100CD00000203149096888602F4909684860364812
:100CE0002D490968C8602E4800682C4909680860C9
:100CF00000202A49096888602849096848602F4807
:100D000026490968C86027480068254909680860BD
:100D100000202349096888602149096848602848FB
:100D20001F490968C860204800681E4909680860B2
:100D300000201C49096888601A49096848602148F0
:100D400018490968C86019480068174909680860A7
:100D500000201549096888601349096848601A48E5
:100D600011490968C8600A480068104909680860A4
:100D700000200E49096888600C49096848601348DA
:100D80000A490968C860024800681149086010BD36
:100D900044000020480000204C00002050000020AB
:100DA00054000020580000205C000020600000205B
:100DB00055260008A126000821270008B5270008AD
:100DC0003D280008BD2800083D290008C929000861
:100DD0006400002000F01F020121914042099200AE
:100DE00002F1E022C2F80011704700F01F02012159
:100DF00091404209920002F1E022C2F800117047CE
:100E000010B5002807DA0A07140E054A00F00F0390
:100E10001B1FD45403E00A07130E024A135410BDDB
:100E200018ED00E000E400E01349098821F40061B6
:100E3000114A118000BF1049098901F08001002981
:100E4000F9D10D49888100BF0B49098901F00101E1
:100E50000029F9D008498989C8B200BF0649098923
:100E600001F080010029F9D10349098841F40061AA
:100E7000014A1180704700000030014010B5034660
:100E800013B1012B7ED146E04348008840F040007A
:100E9000414C20804148808A20F400403F4CA08291
:100EA0003D488089C2B200BF3B48008900F0020083
:100EB0000028F9D000BF3848008900F080000028E1
:100EC000F9D140EA0120344CA08100BF32480089AA
:100ED00000F002000028F9D000BF2F48008900F080
:100EE00001000028F9D02C488089C2B200BF2A48EE
:100EF000008900F080000028F9D12848808A40F459
:100F00000040264CA0822448008820F04000224C5B
:100F10002080104610BD2048008840F040001E4C44
:100F200020801E48808A20F400401C4CA08200BF14
:100F30001948008900F002000028F9D000BF1648C7
:100F4000008900F080000028F9D141F0800042EAD9
:100F50000020114CA08100BF0F48008900F0020062
:100F60000028F9D000BF0C48008900F0800000285C
:100F7000F9D10A48808A40F40040084CA082064813
:100F8000008800E004E020F04000034C208000BF17
:100F900000BF00BFBEE7000000300140000002407B
:100FA00070B504460D46002221461046FFF766FF45
:100FB0002843C6B2324621460120FFF75FFF70BDCD
:100FC00030B53048008840F040002E4908802E4857
:100FD000808A20F400402C4988820020FFF724FFFB
:100FE0000020FFF721FF294981F840000020FFF78A
:100FF0001BFF264981F83F00084690F84000C01EBC
:1010000081F83D000020FFF70FFF204981F83E00E6
:101010000020FFF709FF054605F080001B4981F815
:10102000420005F0400081F84100002406E0002065
:10103000FFF7FAFE15490855601CC4B2134890F832
:101040003D00A042F3DC114890F83D003D2805DA50
:1010500000200E4991F83D100C4A50540A48808AED
:1010600040F40040084988820648008820F040008B
:1010700004490880002000F030F80449A1F8440039
:1010800030BD00000030014000000240AE010020F1
:1010900000B5242201210846FFF7F0FE04220121B9
:1010A0000846FFF7EBFE04E0042201210846FFF7A3
:1010B000E5FE002201211046FFF7E0FE00F01C00D3
:1010C0000428F1D100BD00B5012000F03DF9402217
:1010D00001210846FFF7D2FE00BD30B504460025C9
:1010E0006CB101212320FFF75BFF00BF0022232109
:1010F0001046FFF7C3FE00F002000028F6D00022E1
:1011000024211046FFF7BAFE404205B26D10284672
:1011100030BD000000B500200D4981F83D0081F888
:101120003E0081F83F0081F8400081F8410081F8DD
:101130004200A1F84400002228211046FFF79EFE3D
:1011400000F0040018B104213D20FFF729FF00BD85
:10115000AE010020F8B504460D460A4890F83E60FE
:10116000B0F9447004213D20FFF71AFF012000234D
:101170002A4621460090304600F006F80148A0F8C3
:101180004470F8BDAE0100202DE9F84F8246884634
:1011900014469946DDF828B0012000F0D5F800216A
:1011A000084600F06BF83D2C00DD3D24BBF1000F3C
:1011B00001D0802603E0B9F1000F00D040262B4873
:1011C000008840F04000294908802948808A20F49E
:1011D0000040274988828020FFF726FEE11CC8B224
:1011E000FFF722FE5046FFF71FFE224991F8460006
:1011F000FFF71AFE3046FFF717FE002505E018F846
:101200000500FFF711FE681CC5B2A542F7DB1848C0
:10121000808A40F40040164988821448008820F0F3
:10122000400012490880042000F08EF80021084692
:1012300000F07EF9009000BF0F48008800F40050D5
:1012400030B90120009900F073F9B0F57A7FF3D33B
:101250000948008800F4005008B1012700E0002789
:10126000012000F071F83846BDE8F88F00300140E9
:1012700000000240AE0100201008024070B5054693
:101280000C46062D5ED2DFE805F0031221303F4EFA
:10129000002225211046FFF7F1FD20F0C000204379
:1012A000C6B2324625210120FFF7E8FD4AE00022C0
:1012B00025211046FFF7E2FD20F030002043C6B2A2
:1012C000324625210120FFF7D9FD3BE000222521F0
:1012D0001046FFF7D3FD20F00C002043C6B2324683
:1012E00025210120FFF7CAFD2CE000222521104610
:1012F000FFF7C4FD20F003002043C6B2324625218B
:101300000120FFF7BBFD1DE0002226211046FFF75C
:10131000B5FD20F0C0002043C6B232462621012090
:10132000FFF7ACFD0EE0002226211046FFF7A6FDD8
:1013300020F030002043C6B2324626210120FFF7BC
:101340009DFD00BF00BF70BD30B50446052C4DD2D9
:10135000DFE804F03F302112030000220121104693
:10136000FFF78CFD00F0E30040F00C052A46012158
:101370000846FFF783FD39E0002201211046FFF700
:101380007DFD00F0E30040F010052A4601210846EB
:10139000FFF774FD2AE0002201211046FFF76EFDE1
:1013A00000F0E30040F008052A4601210846FFF757
:1013B00065FD1BE0002201211046FFF75FFD20F0D4
:1013C0001C00001DC5B22A4601210846FFF756FD44
:1013D0000CE0002201211046FFF750FD00F0E3056C
:1013E0002A4601210846FFF749FD00BF00BF00BFA4
:1013F0002CB90348008A00F480700028F8D030BD72
:10140000000002403349098901F0010100295FD041
:10141000304988893049898A41F400412E4A9182B5
:101420002C49098821F040012A4A11802B4991F862
:1014300050102A4A02EB81018978114691F8501028
:10144000491C142903D1002182F8501006E02349D9
:1014500091F85010491C214A82F850101F4991F808
:1014600050101E4A92F8512091421DD100BF1949D7
:10147000098901F080010029F9D11749898A41F4CD
:101480000041154A91821349098821F04001114A0F
:1014900011801146098821F0400111801146898888
:1014A00021F04001918013E00A49098841F0400190
:1014B000084A11800849898A21F40041064A91822C
:1014C000064991F85010054A32F82110014A9181DD
:1014D0007047000000300140000002405C01002025
:1014E00010B54FF0E020006940F002004FF0E0211D
:1014F000086141F2941048610846006940F001001B
:10150000086148170121002807DA0A07140E064A65
:1015100000F00F031B1FD45403E00A07130E034A05
:10152000135400BF10BD000018ED00E000E400E01F
:10153000024612B90A4800687047012A0DD10848CE
:101540000068884203D306480068401AF4E7C1F1F6
:10155000FF30034B1B681844EEE700BFECE70000C8
:10156000680000200CB50020019000903E48006803
:1015700040F480303C49086000BF3B48006800F4FC
:10158000003000900198401C0190009818B9019813
:10159000B0F5A06FF1D13448006800F4003010B10C
:1015A0000120009001E0002000900098012859D10E
:1015B0002E48006840F004002C4908600846006886
:1015C00040F0020008600846006840F00100086032
:1015D00025482430006840F08050234924310860B9
:1015E000C8142349086000BF2148406800F010007B
:1015F0000028F9D11C48083000681B4908310860F0
:1016000008460068086008460068086008460068E8
:1016100020F47D0008600846006840F49A000860E5
:101620001148006840F080700F49086000BF0E4804
:10163000006800F000700028F9D00B4808300068FE
:1016400020F003000849083108600846006840F0AF
:101650000300086000BF04480830006800F00C0078
:101660000C28F8D10CBD000000380240003C0240BC
:101670000070004010B50A480068401C0849086026
:1016800008480078401C07490870084600780A2876
:1016900004D1FFF765FA00200249087010BD000070
:1016A000680000206C00002010B51548006840F468
:1016B00080701349086012480830006811490840DA
:1016C0000F49083108600E4800680F4908400C496E
:1016D00008600846006820F4802008600848083048
:1016E000006820F47D000649083108600020091DCB
:1016F0000860FFF737FF4FF000600449086010BD35
:10170000003802400CC0FF88FEFFFEEE08ED00E04E
:101710000B48008800F0010080B10948008820F0E3
:101720000100074908800120064908700648007832
:1017300008B9012000E0002003490870704700004C
:10174000100C0140570100203401002010B5624800
:10175000008800F0010000284CD05F48008820F08D
:1017600001005D4908805D480078142852D15C482A
:10177000007C5B4951F8300000884FF6FF718842C9
:1017800039D00020574908605548007C544901EB86
:10179000C00040680078534908310860504B1B7CFA
:1017A0004F4C04EBC303191D5868431C0B600278AF
:1017B00002EBD2735B104B4C10342360484A127C0E
:1017C000474B03EBC2010868821C0A600288424B47
:1017D0001C331A6040481038008840F001003E4930
:1017E000103908803F482438008840F001003D4906
:1017F000243908806FE03A48007C394951F83000BC
:1018000000884FF6FF71884265D1FEF7BBFEFEF7F8
:10181000CFFE60E0314800780A2824D10020314909
:10182000086031488179801C30F811002D49083159
:1018300008602D498A79891C31F8120000EBD071BB
:101840004910284A1032116027488079C0F1010000
:101850002549887120481038008840F001001E4951
:101860001039088037E01D4800781E2833D11F4802
:10187000807940B300201B4908601C480088194942
:10188000083108601949088800EBD0714910154AE1
:1018900010321160154880880F491C3108601148CA
:1018A0002438008840F001000E49243908800A4895
:1018B0001038008840F001000749103908800020E6
:1018C0000A49887107E00948807920B90120074951
:1018D0008871FEF76DFE10BD1004004080000020EE
:1018E000E005002024080140F405002078000020D5
:1018F0000548008A00F0010028B10348008A20F062
:101900000100014908827047001000401748008814
:1019100000F0400040B3164890F8E803401CB0F5D2
:101920007A7F04D10020124981F8E80306E01048CC
:1019300090F8E803401C0E4981F8E8030C4890F841
:10194000E8030B4991F8E913884207D0084890F85A
:10195000E8030749085C0549091D08800348008819
:1019600020F0400001490880704700000038014025
:10197000F60100200EB51948006840F00200174932
:101980000860081D006840F48040091D08600720B9
:10199000002100910B460222CDE9011006210B2007
:1019A000FEF766FF0720002100910B460222CDE9D9
:1019B000011001460B20FEF75BFF094800684FF459
:1019C000E131B0FBF1F007490880081D008842F2C0
:1019D0000C0108430349091D08800EBD1C38024054
:1019E000000000200838014000B50246034830F8E6
:1019F000120003490880FEF7DBFD00BD94000020C3
:101A0000F405002000B50246064810F81200064909
:101A10004880044800EB4200417803488180FEF78B
:101A2000C7FD00BD81000020F40500200449095CC9
:101A3000044A118111460989034A11607047000068
:101A40008D000020F4050020107400400A20124987
:101A5000087012480089124908601048008811492E
:101A600008601148008800F001000F49088020B983
:101A70000846008840F0010008800A482C38008899
:101A800000F0010007492C39088020B90846008879
:101A900040F001000880704780000020F40500201D
:101AA000107400402C0400400008014000B5FEF70F
:101AB0007FFD00BD00B5FEF7CFFDFEF7E3FDFEF7AD
:101AC000FBFCFEF71DFD2748006840F00200254999
:101AD00008602548008840F2F23188432249088096
:101AE0000846008840F00800088047F6FF401E497D
:101AF000283108800120091D086000201A4924317E
:101B000008601A4988714F20194908803420194902
:101B1000086017494880642088801D200121814089
:101B20004209920002F1E022C2F8001100BF0E4803
:101B30000C30008840F001000B490C3108800A4845
:101B40001430008840F00100074914310880081F54
:101B5000008820F00100091F0880FEF729FDFEF72C
:101B600011FD00BD2438024000040040F4050020AF
:101B7000780000201074004000B502460B48007841
:101B8000142807D1FEF714FDFEF7FCFC14200749CA
:101B9000087002E0142005490870054802740548E1
:101BA000008840F001000349088000BD800000204B
:101BB000E005002000040040012008498871084623
:101BC0004088074908601E200649087006480088BA
:101BD00040F00100044908807047000078000020B0
:101BE00010740040800000200004004000B5FEF7A3
:101BF000DFFCFEF7C7FC00BD10B500248C48007860
:101C0000002828D08B4800786328FAD089480078CB
:101C10000A2821D10A2201218748007800F04AF9D8
:101C20000A2810D1844801780078401C824A10703C
:101C3000052908DD0520114608707E4800787D4999
:101C40004870FF20087000207949087000F072FA8F
:101C5000052000F081FAEAE076480078142821D1C6
:101C6000142201217448007800F024F9142810D1BE
:101C7000714801780078401E6F4A1070012908D120
:101C80000120114608706B4800786A494870FF20AF
:101C9000087000206649087000F04CFA052000F03A
:101CA0005BFAC4E0634800781E287DD16348007861
:101CB00050B90A220121102000F0DCF90A2803D1D2
:101CC00001205E4908707DE05C48007801280AD157
:101CD0000A220121002000F0CDF90A2872D1022049
:101CE000564908706EE05548007802280AD10A2249
:101CF0000121082000F0BEF90A2863D103204F49D2
:101D000008705FE04D48007803280AD114220121B1
:101D1000102000F0AFF9142854D10420474908706E
:101D200050E04648007804280AD1142201210020FE
:101D300000F0A0F9142845D105204049087041E081
:101D40003E480078052811D10A220121002000F028
:101D500091F90A2836D114220121082000F08AF9CD
:101D600014282FD10620354908702BE0334800781D
:101D700006281AD10A220121102000F07BF90A2836
:101D800020D10A220121082000F074F90A2819D173
:101D900000202A4908702A48007808B107200870F6
:101DA0000120274908700DE015E024480078072835
:101DB00008D10020214908701E4800781D4948704C
:101DC000FF20087000201A49087000F0B3F90520C0
:101DD00000F0C2F92BE017480078282805D100F060
:101DE000A9F963201349087021E012480078FF2800
:101DF0000FD11448007860B901201249087000F032
:101E000099F900200A4908704FF4FA7000F0A4F91B
:101E10000DE00C48007850B100200A4908700548D0
:101E2000407804490870084600780A30087010BDF0
:101E3000570100203B0100205B01002059010020D8
:101E40005A0100205801002010B504461421601EDC
:101E5000034A115400F06EF900200249087010BDC9
:101E6000350100205701002010B50446601E0F49BF
:101E7000085C142807D10A21601E0C4A1154012065
:101E80000B49087010E00A48007868B1601E0749E5
:101E9000085C0A2808D100200549087000F04AF9BA
:101EA0004FF4C87000F058F910BD00003501002053
:101EB000570100202DE9FC4F80468A4691460020BC
:101EC000019083460090A8F101002B4951F82000B1
:101ED000C0F30745A8F1010051F82000C6B2A8F1EF
:101EE000010051F82000C0F307275446B9F10A0F4A
:101EF0001BD12819792803DB79254FF00A0B01E063
:101F00002819C5B23019792803DB79264FF00A0B5E
:101F100001E03019C6B23819792803DB79274FF070
:101F20000A0B20E03819C7B21DE0B9F1140F1AD11D
:101F3000281B002803DC00254FF0140B01E0281BB0
:101F4000C5B2301B002803DC00264FF0140B01E063
:101F5000301BC6B2381B002803DC00274FF0140BDF
:101F600001E0381BC7B23B462A4631464046FEF7E1
:101F70004FFE5846BDE8FC8F2007002070B505468F
:101F80000E460024012406E0324629462046FFF78B
:101F900091FF601CC4B2052CF6DD002070BD00006E
:101FA00010B50446044804700A210020FFF7E6FF3C
:101FB00000F0E8F810BD00003A01002010B504461A
:101FC0000249085DFFF7ECFF10BD00004F01002043
:101FD0002DE9FF4F05460E46914698460020039096
:101FE00002908246681E224951F82000C0F3074B38
:101FF000681E51F82000C0B20190681E51F8200000
:10200000C0F307200090681E51F82000F040C4B2D1
:102010004F46B8F10A0F09D1E019792803DB79247A
:102020004FF00A0A10E0E019C4B20DE0B8F1140F45
:102030000AD1E01BA04201DAE01B03D100244FF0DB
:10204000140A01E0E01BC4B2102E01D1A34605E042
:102050000EB9019402E0082E00D100945A46284699
:10206000DDE90031FEF7D4FD504604B0BDE8F08F45
:10207000200700202DE9F04F06460F4690464FF00E
:10208000000AD1460024A346002500BF09E0611CD8
:10209000C8B243463A463146FFF79AFF0544601CF2
:1020A000C4B2052CF3DB642D02D14FF0140903E018
:1020B000322D01D14FF00A094846BDE8F08F0000EB
:1020C00010B5002400F09AF900F014FA0A2000F08C
:1020D00025F900F073F900BF0A4800780028FBD109
:1020E000142000F01BF900F0B3F9642006490870D1
:1020F000002404E0142005490855601CC4B2052CD6
:10210000F8DB10BD560100203A0100203501002007
:1021100000B5002200BF05E00C20054921F812009F
:10212000501CC2B2782AF7DB00F016FA00BD00009E
:102130003006002000B500BF064800780028FBD11B
:1021400000F020F800F008FA00BF024800780028EC
:10215000FBD100BD560100200849097861B9084942
:1021600008600021054A117005492C39098841F0A1
:102170000101034A2C3A11807047000057010020EA
:102180002C0C01402DE9F04185B0002400230025EE
:102190000026002700BF3B4800780028FBD1002321
:1021A0006BE03948C05C142807D038480078012813
:1021B00036D13548C05C0A2832D1354850F8230062
:1021C000C0F30740334909784843642190FBF1F09C
:1021D00000F0FF08404600F02BFC05462C4850F864
:1021E0002300C0B22B4909784843642190FBF1F0E9
:1021F00000F0FF08404600F01BFC0646244850F85B
:102200002300C0F30720234909784843642190FB49
:10221000F1F000F0FF08404600F00AFC074609E034
:102220001A48007830B91848C05C0A2802D1002545
:1022300000260027380440EA052030434DF82300EB
:10224000002416E05DF823000121A140084038B1C8
:102250001E20182101FB03410F4A22F8110006E05D
:102260000C20182101FB03410B4A22F81100601CCD
:10227000C4B2182CE6DB581CC3B2052B91DB05B0A9
:10228000BDE8F08156010020350100203401002016
:10229000200700203A010020300600202DE9F047F9
:1022A00007460C4615461E4600BF00BFC5EBC500DD
:1022B000C0EBC510642190FBF1F000F0FF08C4EB07
:1022C000C400C0EBC41090FBF1F000F0FF09C6EBB6
:1022D000C600C0EBC61090FBF1F000F0FF0A5346B9
:1022E000424649463846FEF793FCBDE8F0870000B9
:1022F00070B505460C4604EB4400074E3044837825
:1023000004EB44003044427804EB4400315C28463E
:10231000FFF7C4FF70BD00003D01002010B504466A
:102320004FF08040808840F008004FF08041888066
:102330001D48006840F080701B4908601B48C06958
:1023400043F2A05108431949C8610846C06920F00A
:102350004000C8610846C06940F01000C8611448D8
:1023600048620A2C09D10846C06920F00300C86100
:1023700010488862182008620BE0142C09D10B4821
:10238000C06920F003000949C8610B4888627820C1
:1023900008620648C06940F003000449C8610C2087
:1023A000FEF723FD10BD00001C3802400060024013
:1023B0003C0000400006002030060020002000BF46
:1023C00005E000210B4A22F81010411CC8B2182861
:1023D000F7DB0121084A11708907098841F00101E2
:1023E0004FF08042118000BF034909780029FBD1DA
:1023F00070470000000600205601002012480068C7
:1024000040F00200104908601048006840F40010D5
:102410000E490860081D008820F48060091D0880AE
:10242000081D006840F40010091D0860081D0068C0
:1024300040F48010091D08600448406A40F480712F
:1024400002484162704700001C380240000402400C
:1024500010B52548006840F00800234908600020B6
:10246000224908702248008840F2F231884320490E
:1024700008800846008840F00800088047F6FF40C2
:102480001B49283108800020091D086018492431A3
:10249000086017480C30008840F201118843144945
:1024A0000C3108801248001D008820F008001049F7
:1024B000091D08801A20FEF798FC0D480C30008892
:1024C00040F001000A490C310880094814300088A6
:1024D00040F00100064914310880081F008820F0F0
:1024E0000100091F088010BD20380240570100205C
:1024F000000C01401748006840F0010015490860D1
:102500000807008840F2F2318843490708800846EE
:10251000808840F0080088800846808B40F060008A
:1025200088830846008C40F48070088408468089BF
:1025300040F480708881002008852720C862084602
:10254000808A40F0010088820846008A20F001005D
:10255000088270472438024001200749087080072C
:10256000008840F001004FF08041088000BF024821
:1025700000780028FBD17047560100200EB5314885
:10258000006840F001002F49086000200090019091
:1025900003460122014602900A20FEF769F92A4803
:1025A000008B40F00100284908830020FEF7A6F8C0
:1025B000044604F00F0025490870C4F30310487066
:1025C000C4F303508870C4F30320C870C4F303300D
:1025D0000871C4F303404871C4F303608871FEF7C7
:1025E0007FFFFEF795FAFEF725FBFFF7C3F9FEF72D
:1025F00037FAFFF75FFAFFF763FDFFF789FD13482E
:1026000041780520FFF774FE10498878FFF7D6FC63
:10261000FFF790FD0D49C878FFF7F4F90B490879E9
:10262000FFF704FA09494879FFF7DEF9FDF7C0FF23
:1026300000BFFEF703FA054605480068C168284652
:102640008847F6E71C380240000002401D000020C9
:102650006400002010B5044601200F494871012C88
:1026600004D0022C16D1FDF7CDFF13E0FFF7A4FA3A
:102670000120FDF7C7FF00210420FFF739FEFFF717
:1026800059FD002004494871044800680068034966
:10269000086000BF00BF10BD700000206400002073
:1026A00070B50446FFF7A8FA012C14D0022C30D1E3
:1026B000FFF782FA18480078052803D10020164950
:1026C000087004E014480078401C13490870012089
:1026D000FDF798FF1DE0FFF76FFA0120FDF792FF6D
:1026E0000020FEF70BF820F00F000B49097840EAB4
:1026F000010529460020FEF709F801210420FFF713
:10270000F7FDFFF717FD05480068006803490860FA
:1027100000BF00BF70BD00001D000020640000204D
:1027200070B504460520FFF79FFB012C1BD0022C3F
:102730003AD1FFF741FA0120FDF764FF1B484078CA
:10274000052803D100201949487004E01748407853
:10275000401C16494870154841780520FFF7C8FD10
:10276000FFF7E8FC20E0FFF727FA0120FDF74AFF1A
:102770000520FFF769FB0020FDF7C0FF20F0F00007
:102780000A49497840EA011529460020FDF7BEFFB5
:1027900002210420FFF7ACFDFFF7CCFC04480068E1
:1027A00000680349086000BF00BF70BD1D00002025
:1027B0006400002070B50446012C1AD0022C37D1D9
:1027C000FFF7FAF90120FDF71DFF1A488078062867
:1027D00003D100201749887004E016488078401C17
:1027E0001449887013498878FFF7E8FBFFF7A2FCCB
:1027F0001EE00120FDF706FF0420FFF725FB002067
:10280000FDF77CFF20F470000A49897840EA015501
:1028100029460020FDF77AFF03210420FFF768FD19
:10282000FFF788FC0448006800680349086000BF9F
:1028300000BF70BD1D0000206400002070B504467C
:10284000FFF704F9012C16D0022C30D10120FDF73E
:10285000D9FE1848C078052803D100201549C87052
:1028600004E01448C078401C1249C8701149C87867
:10287000FFF7C8F81BE00120FDF7C4FE0020FDF7BC
:102880003DFF20F470600B49C97840EA01252946D4
:102890000020FDF73BFF04210846FFF729FDFFF765
:1028A00049FC0548006800680349086000BF00BF94
:1028B00070BD00001D0000206400002070B50446BB
:1028C000FFF7C4F8012C16D0022C30D10120FDF7FF
:1028D00099FE18480079052803D100201549087190
:1028E00004E014480079401C124908711149087924
:1028F000FFF79CF81BE00120FDF784FE0020FDF7A8
:10290000FDFE20F470400B49097940EA0135294663
:102910000020FDF7FBFE05210420FFF7E9FCFFF78F
:1029200009FC0548006800680349086000BF00BF53
:1029300070BD00001D0000206400002070B504463A
:10294000FFF784F8012C16D0022C36D10120FDF7B8
:1029500059FE1B484079092803D1002018494871C5
:1029600004E017484079401C1549487114494879DA
:10297000FFF73AF821E00120FDF744FE0020FDF7C3
:10298000BDFE20F470200E49497940EA01452946F0
:102990000020FDF7BBFE06210420FFF7A9FCFFF78E
:1029A000C9FBFFF783F806498879FFF7E5F8054882
:1029B000006800680349086000BF00BF70BD0000E8
:1029C0001D0000206400002010B50446012C16D024
:1029D000022C27D10120FDF715FE1348807901282C
:1029E00003D100201049887104E00F488079401C11
:1029F0000D4988710C498879FFF7BEF812E0012073
:102A0000FDF700FE00231A4619460420FFF746FC96
:102A1000FFF790FBFFF7EAF80448006800680349F5
:102A2000086000BF00BF10BD1D0000206400002032
:102A3000010900F00F0241EA021000F0CC018910F8
:102A400000F0330241EA820000F0AA01491000F0D0
:102A5000550241EA42007047030064003200320030
:102A60000A000A000A000A000A0003000000000031
:102A7000902A0008000000205C01000030010008DE
:102A8000282B00085C0100203C0C00008C01000891
:102A900011800D48E801030406080C101820301BB3
:102AA000010213041F07080913582A2A0804013DCC
:102AB000100D404A454F4A544F59545E59631631E0
:102AC000323435FF126412C818122C019001F4013F
:102AD0005802BC0220038403E80364121FF401BC03
:102AE00002FFFF311363FF12FA1CE803FA066902C2
:102AF000CBE2040E1AF42E290609262814FFFF54EF
:102B000012541A590479070C1259636814A2FF7AF7
:102B100064041D6464643705112F050F1923374BB6
:082B2000142102000100000075
:04000005080001D915
:00000001FF
