:020000040800F2
:10000000E806002091010008990100089B01000802
:100010009D0100089F010008A101000800000000E8
:10002000000000000000000000000000A301000824
:10003000A501000800000000A701000871060008E3
:10004000AB010008AB010008AB010008AB010008E0
:10005000AB010008AB010008AB010008AB010008D0
:10006000AB010008AB010008AB010008AB010008C0
:10007000AB010008AB010008AB010008AB010008B0
:10008000AB010008AB010008AB010008AB010008A0
:10009000AB010008AB010008AB010008AB01000890
:1000A000AB010008AB010008AB010008AB01000880
:1000B000AB010008AB010008DD060008AB01000839
:1000C000AB010008AB010008AB010008E90400081F
:1000D000AB01000801070008AB010008AB010008F4
:1000E00099020008AB010008AB010008AB01000851
:1000F000AB01000800F002F800F03AF80AA090E81E
:10010000000C82448344AAF10107DA4501D100F0D2
:100110002FF8AFF2090EBAE80F0013F0010F18BF65
:10012000FB1A43F0010318476C0700008C0700001E
:10013000103A24BF78C878C1FAD8520724BF30C813
:1001400030C144BF04680C607047000000230024E5
:1001500000250026103A28BF78C1FBD8520728BFD7
:1001600030C148BF0B6070471FB51FBD10B510BD33
:1001700000F037F81146FFF7F7FF00F05FFB00F0E3
:1001800055F803B4FFF7F2FF03BC00F055F8000088
:100190000948804709480047FEE7FEE7FEE7FEE71B
:1001A000FEE7FEE7FEE7FEE7FEE7FEE70448054957
:1001B000054A064B7047000075060008F500000868
:1001C000E8000020E8060020E8020020E802002005
:1001D0007047704770470000004870478800002053
:1001E00070477546FFF7F8FFAE460500694653466F
:1001F00020F00700854618B020B5FFF7D7FFBDE80F
:1002000020404FF000064FF000074FF000084FF07D
:10021000000B21F00701AC46ACE8C009ACE8C0090E
:10022000ACE8C009ACE8C0098D4670470446AFF39E
:1002300000802046FFF7A5FF01491820ABBEFEE76E
:100240002600020000B5024600F0E6F80A49086000
:1002500000200A4908600A4908600A4908600A49FA
:1002600008700A48006800880949086012B1012036
:100270000849087000BD00002C000020200000206C
:100280002800002024000020340000203800002036
:1002900030000020350000200548006800F4806030
:1002A00028B10348006840F4806001490860704745
:1002B000140401402DE9F0430546DDE90767099C78
:1002C0000A2D04D00B2D04D00C2D06D103E04F488D
:1002D00003E04F4801E04F4800BF00BFD0F800C026
:1002E0004FEA41094FF0030808FA09F82CEA080C14
:1002F000C0F800C0D0F80CC04FEA41094FF0030825
:1003000008FA09F82CEA080CC0F80CC0D0F800C0B4
:100310004FEA410802FA08F84CEA080CC0F800C09D
:10032000012A03D0022A01D0002A6CD1D0F80CC0D7
:100330004FEA410803FA08F84CEA080CC0F80CC070
:10034000012A01D0022A5ED1B0F804C04FEA410967
:100350004FF0010808FA09F82CEA080CA0F804C0CC
:10036000D0F808C04FEA41094FF0030808FA09F82D
:100370002CEA080CC0F808C0B0F804C006FA01F86E
:100380004CEA080CA0F804C0D0F808C04FEA4108B5
:1003900007FA08F84CEA080CC0F808C0022A32D163
:1003A000082916DAD0F820C04FEA81094FF00F086B
:1003B00008FA09F82CEA080CC0F820C0D0F820C0D0
:1003C0004FEA810804FA08F84CEA080CC0F820C08B
:1003D00019E0D0F824C0A1F108084FEA88094FF0CD
:1003E0000F0808FA09F82CEA080CC0F824C0D0F865
:1003F00024C0A1F108084FEA880804FA08F84CEA7A
:10040000080CC0F824C0BDE8F083000000000240E2
:1004100000040240000802400648008AC0F3400081
:100420000449098A01F0040140EA51010620884389
:10043000704700000000024000B5FFF7EDFF0346E3
:1004400020480068984203D00020FFF7FBFE00BD63
:1004500013B11D48007820B113B900201A49087063
:10046000F5E71A480068401C1849086018480360FE
:100470000846006817490968884220D31648006872
:10048000401C154908601548006815490860084671
:10049000016814480078401C31F8100020B1114860
:1004A0000078401C0F4908700D4800680D49097814
:1004B00030F811000749096808440649086000BF80
:1004C000C5E700002C000020350000202800002097
:1004D0002000002030000020240000203C000020EC
:1004E00038000020340000201B48008900F0010083
:1004F00058B11A48407C194901EB800080781648B1
:10050000008920F00100144908811348008900F097
:10051000020000B31148407C401C042803D1002095
:100520000E49487404E00D48407C401C0B49487457
:100530000A48407C0949897C884206D10748407CAA
:10054000064911F82000044988810348008920F0F9
:10055000020001490881704700300140400000203E
:100560000CB50020019000903E48006840F48030B7
:100570003C49086000BF3B48006800F40030009030
:100580000198401C0190009818B90198B0F5A06F2F
:10059000F1D13448006800F4003010B1012000901F
:1005A00001E0002000900098012859D12E480068F1
:1005B00040F004002C4908600846006840F0020042
:1005C00008600846006840F00100086025482430B3
:1005D000006840F08050234924310860C814234942
:1005E000086000BF2148406800F010000028F9D1E1
:1005F0001C48083000681B4908310860084600683C
:1006000008600846006808600846006820F47D001D
:1006100008600846006840F49A00086011480068C5
:1006200040F080700F49086000BF0E48006800F07D
:1006300000700028F9D00B480830006820F0030053
:100640000849083108600846006840F00300086067
:1006500000BF04480830006800F00C000C28F8D1F6
:100660000CBD000000380240003C02400070004019
:100670007047000010B51548006840F480701349B9
:100680000860124808300068114908400F490831D5
:1006900008600E4800680F4908400C490860084689
:1006A000006820F48020086008480830006820F4C2
:1006B0007D000649083108600020091D0860FFF729
:1006C0004FFF4FF000600449086010BD0038024041
:1006D0000CC0FF88FEFFFEEE08ED00E000B5074805
:1006E000008800F0010038B1FFF7A6FE034800883B
:1006F00020F001000149088000BD00001008004002
:100700001C48008800F0400038B31B4890F83200C5
:10071000401C322804D10020174981F8320006E03D
:10072000154890F83200401C134981F832001248F5
:1007300090F83200104991F83310884207D00E48E3
:1007400090F832000C49085C0A49091D08800948E4
:10075000008820F04000074908800648008800F023
:10076000200028B10348008820F0200001490880BB
:100770007047000000380140530000203EB5294872
:10078000006840F0020027490860081D006840F436
:100790008040091D08600720002100910B460222BD
:1007A000CDE9011006210B20FFF784FD0720002171
:1007B00000910B460222CDE9011001460B20FFF704
:1007C00079FD194800684FF49641B0FBF1F01749E4
:1007D0000880081D008842F26C0108431349091D76
:1007E0000880252000F01F0201219140420992005B
:1007F00002F1E022C2F8001100BF0121002807DA4F
:100800000A07140E0A4A00F00F031B1FD45403E01A
:100810000A07130E074A135400BF0020064981F847
:1008200032003EBD1C380240000000200838014064
:1008300018ED00E000E400E0530000200EB50D4884
:10084000006840F001000B49086000200090019012
:1008500003460122014602900A20FFF72BFD0648BD
:10086000008B40F0010004490883FFF787FF00BFB9
:10087000FEE700001C380240000002400300640054
:10088000320032000A000A000A000A000A000300CF
:1008900000000000B4080008000000204000000034
:1008A00030010008F408000840000020A8060000FD
:1008B0004C0100080048E801030406080C10182049
:1008C00030000000000000000001020304060708D9
:1008D000090000000000000000000000000000000F
:1008E0000000000000000000000000007C0800087C
:0408F0007C08000878
:04000005080001915D
:00000001FF
